:10000000380D00209D1800005B400000CD18000056
:10001000CD180000CD180000CD180000CD1800004C
:10002000000000000000000000000000E1160000D9
:10003000CD180000000000008916000033400000C9
:100040005D1800005D1800005D1800005D180000DC
:100050005D1800005D1800005D1800005D180000CC
:100060005D1800005D1800005D1800005D180000BC
:100070005D1800005D1800005D1800005D180000AC
:100080005D1800005D1800005D1800005D1800009C
:100090005D1800005D1800005D1800005D1800008C
:1000A0005D1800005D1800005D1800005D1800007C
:1000B0005D1800005D1800005D1800005D1800006C
:1000C0005D1800005D1800005D1800005D1800005C
:1000D0005D1800005D1800005D1800005D1800004C
:1000E0005D1800005D1800005D1800005D1800003C
:1000F0005D1800005D1800005D1800005D1800002C
:100100005D1800005D1800005D1800005D1800001B
:100110005D1800005D1800005D1800005D1800000B
:100120005D1800005D1800005D1800005D180000FB
:100130005D1800005D1800005D1800005D180000EB
:040140005D18000046
:1001440053B94AB9002908BF00281CBF4FF0FF313A
:100154004FF0FF3000F070B9ADF1080C6DE904CE3A
:1001640000F006F8DDF804E0DDE9022304B070478E
:100174002DE9F047089E0D4604468A46002B7FD1A0
:100184008A42174641D9B2FA82F24AB1C2F1200139
:1001940005FA02F39740944020FA01F141EA030A78
:1001A4004FEA17484FEA144C1FFA87F9BAFBF8FED6
:1001B40008FB1EA30EFB09F14CEA0343994206D93E
:1001C400FB1802D2994200F224810EF1FF3E591A23
:1001D400A3B2B1FBF8F008FB101100FB09F943EAE4
:1001E4000144A14505D93C1902D2A14500F20E8172
:1001F4000138A4EB090440EA0E4000211EB1D440AA
:100204000023C6E90043BDE8F08702B9FFDEB2FA75
:1002140082F2002A4FD1CB1B4FEA174E1FFA87F800
:100224000121250CB3FBFEFC0EFB1C302B4608FB06
:100234000CF945EA0045A9450AD97D192CBF0123CB
:100244000023A94502D9002B00F0D9800CF1FF3C12
:10025400A5EB0905A3B2B5FBFEF00EFB105508FB98
:1002640000F843EA0544A04505D93C1902D2A0454B
:1002740000F2C9800138A4EB080440EA0C40BDE751
:100284008B4208D9002E00F0B1800021C6E9000598
:100294000846BDE8F087B3FA83F1002946D1AB42A2
:1002A400C0F0A780824240F2A4800846002EAAD063
:1002B400C6E9004AA7E7C2F12000974001FA02F319
:1002C4004FEA174EC14024FA00F51FFA87F894400C
:1002D4001D43B1FBFEF02B0C0EFB101100FB08FCC0
:1002E40043EA01439C4509D9FB182CBF0121002195
:1002F4009C4502D9002900F095800138A3EB0C033A
:10030400ADB2B3FBFEF10EFB113301FB08FC45EA71
:100314000345AC4505D97D1902D2AC4500F289806C
:100324000139A5EB0C0341EA00417AE7C1F120044D
:100334008B4002FA01F705FA01FCE24020FA04F8C6
:10034400E54000FA01FE134348EA0C024FEA134861
:100354004FEA124C1FFA83F9B5FBF8FA08FB1A5559
:100364000AFB09F04CEA054C60450AD913EB0C0C66
:100374002CBF01250025604501D9002D55D00AF177
:10038400FF3AACEB000C92B2BCFBF8F008FB10CCCB
:1003940000FB09F942EA0C4CE14505D913EB0C0CBE
:1003A40001D2E1453BD8013840EA0A40ACEB090CE4
:1003B400A0FB0789CC4545464A4602D306D1C6452B
:1003C40004D20138B8EB070569EB03022EB3BEEB88
:1003D40005036CEB020C23FA01F20CFA04F42CFA78
:1003E40001F300211443C6E900430CE731463046CB
:1003F40009E7841A65EB030301209A4656E7ACF13A
:10040400020C3D4424E702383C4434E702383C44BF
:10041400EFE6AEF1020E3B44D9E63146F3E602388C
:100424009C44C1E702383B4468E7AAF1020A9C44B1
:10043400A7E702393D4474E7704700BF70B516481A
:1004440002F09AFA044618B3056983684FF42062EF
:1004540002211B689847002819D12B6823F0040354
:100464002B600125236985F001061B6813F0040F36
:1004740018BFF5B26DB1A368DB6804212046984724
:10048400F5B200214FF4004002F054FFEAE7E8DA45
:1004940070BDA3681B69F0E75C4A00000B68013378
:1004A4000B60014B1B68184700000020014B1860CB
:1004B400704700BF0000002007B50B46002102462C
:1004C4000191034801A900F0EBF803B05DF804FBC7
:1004D400A10400002DE9F84FB0F81890044619F073
:1004E400080893460DD001290CBF49F0100949F0C2
:1004F4002009A0F818908BF31188BFF36F8FBDE823
:10050400F88F09F00709022907D1204603F0D3FB2D
:100514000028F0D00128238B50D16769218B002F4C
:1005240015DA256821F00701C4E9008841F00101CA
:1005340021830026218B01F0070ACA4502D0A36853
:10054400002B5CD10DB9002E74D0002358E001F0CB
:1005540007035A1F012A20D821F00701062B25681A
:1005640089B2C4E900880CD1002D2B4638BF002382
:100574002BB1628B1B6801326283002BF8D141F0EE
:1005840002012046218303F096FB06460028D1D0C1
:10059400238B43F020032383CBE7042B0CD121F0DE
:1005A400070189B22046218303F085FB0546002814
:1005B400BFD041F0200121830025BAE7032809D1E7
:1005C400226923F00703166843F0060300252383FA
:1005D4002F46AFE7042806D1226923F007035668A3
:1005E40043F00403F2E7052806D1226923F0070348
:1005F400966843F00503E9E700252E46E8E7012362
:1006040041F0080121838BF31188BFF36F8F03BB83
:10061400002D33D116B120462049B0474FF02003B6
:10062400EFF3118B83F31188BFF36F8F238B23F0C8
:1006340008032383238BDA0628D5012123F0100332
:100644002383B4F8189009F0070900297FF45BAFFD
:1006540051E7A1680029DBD00B68002B38BF0023C9
:10066400994652463B462046D1F804B0D847B9F1E2
:10067400000FCDD04946D9F80030EEE729463B4675
:10068400524620462D6803F032FBC1E713F02001E7
:100694001EBF23F0200302212383D2E71F3D000065
:1006A4002DE9F04F8B4692461C46002591B00290EE
:1006B4009AF8000008B928465EE325280AF10107E4
:1006C40007D05946029B98470028C0F2558301354C
:1006D40010E2182200210AA803F031FD9AF8013033
:1006E400252B78D000229446164696461046394665
:1006F40017F8013B2B2B00F09D8000F29480202BF7
:1007040000F09B80232B00F09A8028B19DF83000E4
:1007140040F004008DF83000BEF1000F05D09DF8C4
:10072400300040F008008DF830002EB19DF8300004
:1007340040F010008DF83000BCF1000F05D09DF89A
:10074400300040F020008DF830002AB19DF83020B0
:1007540042F040028DF830209DF8302002F0440031
:10076400442803D16FF386128DF830209DF8302091
:100774002A2B42F080028DF830207BD19DF8312065
:100784004B1C42F001028DF831201A782E2A0CBF3E
:10079400012100219DF8312061F341028DF83120BF
:1007A40074D15A782A2A6AD000210A2601331846BD
:1007B40010F8012BA2F13007092F40F28E809DF82A
:1007C40030200E91C2F3400040EAD17161F341023E
:1007D4008DF830205AE00AF102078DF833309DF885
:1007E4003130D90740F1498154F8049BB9F1000F25
:1007F40007DA9DF83020C9F1000942F004028DF8AF
:1008040030205A0740F1428154F8048BB8F1000FAC
:1008140080F241819DF831306FF341038DF831301E
:100824004FF0FF3837E12D2B0CD0302B7FF46DAF18
:1008340001225CE74FF0010E59E7012657E74FF01C
:10084400010C54E7012052E733460CFB0202303A14
:100854001E4616F8010BA0F13007092FF4D999426E
:1008640093D09DF830100D92D20F62F341018DF8B0
:1008740030108AE70B4600224FF00A0CE8E79DF897
:100884003120023342F004028DF831201F4617F85C
:10089400012B6C2A41D025D8682A2BD06A2A46D04D
:1008A4004C2A4CD01F4617F8012B9DF83130782A7A
:1008B4008DF8332000F2D980572A4DD8412A03D02D
:1008C400453A022A00F2D18004229DF8323062F3C4
:1008D40002038DF8323001239EE006FB012103461A
:1008E400303964E7742A26D07A2ADBD106229DF8AF
:1008F40031300DE05A78682A9DF8312006D1012163
:1009040061F3C6028DF831209F1CCCE71346022206
:1009140062F3C6038DF83130C5E75A786C2A9DF826
:10092400312001D10421EBE713460322F0E705222D
:100934009DF83130ECE707229DF83130E8E7BDF847
:10094400303023F4F04323F0020343F4804343F0B4
:100954000203ADF83030A6E7A2F15801202900F2D5
:10096400848001A050F821F0310A00006F0A0000D1
:100974006F0A00006F0A00006F0A00006F0A00008F
:100984006F0A00006F0A00006F0A0000CD08000023
:100994006F0A0000310A0000F1090000CD080000D0
:1009A400CD080000CD0800006F0A0000F109000026
:1009B4006F0A00006F0A00006F0A00006F0A00004F
:1009C400390A0000310A0000550A00006F0A0000CD
:1009D4006F0A0000550A00006F0A0000310A000087
:1009E4006F0A00006F0A0000310A000001209DF820
:1009F400321003F0780360F30201402B8DF83210BB
:100A040002BF9DF8301041F001018DF83010632AC7
:100A140031D1003B18BF01239DF83020C2F34001BF
:100A24000B4363F341028DF83020D8E602209DF891
:100A34003210DEE703219DF8322003F07803A3F19E
:100A4400400061F3020243428DF832204341E3E760
:100A540003219DF8322013F0780F61F3020214BFD2
:100A6400012300238DF83220D6E79DF8303043F07F
:100A740001038DF830300023CEE79DF93020002AA1
:100A8400ACBF4FF0FF39DDF83490BAE69B077FF531
:100A9400C7AEDDF838800023CDE90D339DF8323040
:100AA4009DF8312003F00703012BC2F3C30236D1B2
:100AB400D31E042B20D8DFE803F00307071F1F0011
:100AC40054F8040BC11704E0073424F00704F4E8D5
:100AD4000201CDE90A019DF8303013F0030654D029
:100AE4003B4652465946029803F0E5F90028C0F205
:100AF40043810544BA46DBE554F8040B012A4FEA66
:100B0400E071CDE90A0105D19DF828300A9300234C
:100B14000B93E0E7022ADED1BDF92800D2E7022BCD
:100B240023D1D31E042B13D8DFE803F0030A0A12DF
:100B3400120000212068231D0A900B911C46CAE76D
:100B4400073424F00703F3E80201CDE90A01F5E7CD
:100B540054F8043B012A0A934FF000030B93D3D0BB
:100B6400022AB8D1BDF82830D0E7042B07D10734C6
:100B740024F00704F4E80201CDE90A01ABE7032BF2
:100B840004BF54F8043B0A93A5E79DF83300782882
:100B9400B0D8622822D825283FF493AD5828A9D18B
:100BA400DDE90A010DF1260300930CAA04AB03F05E
:100BB40037F98246B8F1000F0DF126000CDB9DF8E1
:100BC4003020A0EB0A036FF3861298458DF830208D
:100BD40002D9A8EB03030D9380463DE06338152842
:100BE40088D801A151F820F06D0C0000D10C000050
:100BF400F90A0000F90A0000F90A0000F90A0000E5
:100C0400D10C0000F90A0000F90A0000F90A0000FA
:100C1400F90A00002F0D0000FD0C0000010D00007A
:100C2400F90A0000F90A0000450C0000F90A000066
:100C3400FD0C0000F90A0000F90A0000FD0C000098
:100C4400B8F1000FDDF828A00ADB4146504603F056
:100C540036FA00260AEB0008BAF1000F0CD149E776
:100C6400504603F025FAF4E700260A9B0DF111081B
:100C74008DF810300DF1100AA8EB0A0306B1013308
:100C84009DF83220D0066BD5023352060D9948BF29
:100C94000E9A0B4448BF9B18B9F1000F79DD9DF8FB
:100CA4003020A9EB0309C2F380030393530770D4E4
:100CB400500664D546B159463046029B98470028F1
:100CC4005ADB039B01351E46302359E01E0711D41D
:100CD40013F0100618BF2026DDE90A23002A73F159
:100CE4000001BFF65DAF524263EB43032D26CDE90D
:100CF4000A2355E72B26EFE7002651E70A9848B365
:100D04000DF126030093002104AB0CAA03F088F82C
:100D1400BDF83230824603F0EF0343F4F04343F06E
:100D240010030026ADF8323044E70A9B072A3FF649
:100D3400E1AEDFE802F00D04060D08080D0D1D708C
:100D4400D8E61D80D6E62846E917C3E90001D1E6B6
:100D54001D60CFE6DFF8C4800646A8F1050A8BE7DC
:100D6400110748BF013390E7184603935946029B85
:100D740098470028039B04DA11B0BDE8F08F2023C4
:100D84004D444A46002AA5EB090109F1FF39EBDC81
:100D94000D4636B159463046029B98470028EBDB96
:100DA40001359DF83230D90601D41A0706D55946C3
:100DB4003020029B98470028DEDB01359DF8323055
:100DC400DB0607D559469DF83300029B9847002857
:100DD400D2DB01350D9E2E44731B002B16DC4346DB
:100DE40052465946029803F066F80028C4DB0544CD
:100DF400A944A9EB0503002B7FF77CAE59462020BC
:100E0400029B98470028B7DB0135F2E759463020AA
:100E1400029B98470028AFDB0135DDE7684A0000F4
:100E24004FF02002EFF3118382F31188BFF36F8F29
:100E34000121044AC2F8401583F31188BFF36F8F70
:100E4400002070470090035020B1034B800143F011
:100E540001031847704700BFD048000082B002ABBE
:100E640003E903009DF80030062B07D10122044B4F
:100E7400C3F80025BFF34F8F20BFFDE702B07047D2
:100E840000400050F8B505464FF02003EFF31186FB
:100E940083F31188BFF36F8F0B4B1C68002C38BF92
:100EA40000245CB1094FD4E90132002D08BF134678
:100EB4000BB1387898472468002CF4D186F3118854
:100EC400BFF36F8FF8BD00BF90020020980200208E
:100ED400084B10B51C685CB901221A60064B93E8F4
:100EE400030003F001F82046BDE81040FFF7CABF35
:100EF40010BD00BF040000209802002037B56D46E5
:100F04000E4C0146284602F0FAFF95E8030084E8F7
:100F14000300207880B10022094B1A6001F07EFFA3
:100F24000120FFF7AFFF94E80300FFF797FFFFF7F7
:100F3400CFFF02F063F8207803B030BD98020020A0
:100F440004000020044608B54FF02002EFF311839B
:100F540082F31188BFF36F8F03F06BF8204600F023
:100F64009FFD034802F09AFE00F038FCFCE700BF46
:100F7400694A000010B5074801F0FEFC064C074B17
:100F84001860204600F026FF2046FFF78FFA002065
:100F940010BD00BF924A0000A50F0000A00200206F
:100FA4000A2838B50446074D04D1286883680D2102
:100FB4005B68984728688368E1B25B689847204675
:100FC40038BD00BFA00200200E4A70B5841A054641
:100FD4000C200E464021A3100B4C5C43E4B200FBF2
:100FE4000420084402F098FF011E05DB074B03EBC5
:100FF400C40463689847002128463346BDE870401E
:10100400184700BFB8020020B76DDBB6EC480000FB
:101014002DE9F0410C25104E8046841BA3100F4C83
:101024000F465C43E4B2654305F14000402130447F
:1010340002F08BFF011E09DB094A7319C3E90E276D
:10104400084B53F83430BDE8F041184740463B465E
:10105400BDE8F041184700BFB8020020B76DDBB609
:10106400B13F0000EC48000070B5002201210446A5
:10107400052000F061FB052000F040FB0F4801F063
:101084002BFB0F4B984215D103F048F926690D4903
:10109400304602F05FFE00280BDB0125356424692D
:1010A400084904F11C0002F055FE002801DB002071
:1010B400E56470BD6FF00400FBE700BF01110000A0
:1010C4000000AD0BFC48000001460C2300224B43FA
:1010D400084870B5C4184033D4E90E561844A263C6
:1010E40002F051FF2DB132462B46BDE87040024854
:1010F400184770BDB8020020C000002010B10128BC
:1011040004D07047034B1B6C5B0701D1FFF7DCBFB6
:10111400704700BFB802002008B54FF02003EFF37A
:10112400118183F31188BFF36F8F124A136843F060
:10113400020013F0010310600CD04FF05022D2F8DB
:101144000C34D2F80C2413F0010303D00A4802F043
:101154001AFF012381F31188BFF36F8F23B1BDE818
:1011640008400020FFF7B0BF0120BDE8084001F0AF
:10117400C3BA00BF08030020F8020020074BD3E8DD
:10118400EF2F22F00201C3E8E01F0028F7D1D307B4
:1011940002D4012001F0E2BA704700BF0803002026
:1011A4001FB500220123CDE902236B46084ACDF87E
:1011B40000D0CDF804D002F01FFF002805DB4FF467
:1011C40080420023684602F04FF905B05DF804FB45
:1011D400CF3F00002DE9F843012206463949D1E802
:1011E400EF3FC1E8E02F0028F9D133B93649374839
:1011F4004B60CB608A6002F0C0FD731E012B32D8B5
:10120400012E07D14FF05023D3F81C3403F003030D
:10121400022B28D003F0ADF9044618B92C4B1B78E7
:10122400002B47D14FF02003EFF3118583F311888E
:10123400BFF36F8F0124274FDFF89C80DFF89C9069
:101244004FF05022D2F81834D2F81824D2030CD517
:1012540003F00303022B01D0012E06D124B385F33E
:101264001188BFF36F8FBDE8F883C4B1284600F03E
:10127400C3FA4FF05022D2F81835DBB2012BDFD17C
:1012840039680029DCD00021396039680221C2F8AC
:1012940018152022C8F88021C9F80030D0E70021B1
:1012A400212002F047F8E4E74FF050230222C3F86C
:1012B4000423D8E74FF0502302220546C3F808233D
:1012C400B9E700BF0C030020A8020020D4020020CC
:1012D400320900200451005000E100E008500050A1
:1012E400044A1368C81A20F07F400344136002F0D4
:1012F40079BA00BF200300202DE9F0474FF480376E
:101304004FF00009860000F1500406F15026A400B5
:1013140006F58036A4B204F15024D6F84035DFF83F
:101324006C8021F07F4504F580348740D8F804A50B
:10133400A3EB0A0323F07F432AF07F42012BC6F874
:10134400402502D1132003F01AF90AF10202AB1A64
:1013540023F07F43B3F5000F88BF1546C4F800900F
:10136400236825F07F43C8F84473C6F84035D8F89D
:1013740004359A4506D0EB1A023B23F07F43B3F5BC
:10138400000F01D8BDE8F0872B46CFE7005001508D
:10139400F8B5002427460F4E0F4B104A18461D6817
:1013A40004B1F8BDD2F80413C903FAD53168002991
:1013B400F7D0346031684FF48031C2F84813012407
:1013C400D2F8401525B100205A681F60A847E3E70A
:1013D4000560E6E74051015014030020005001501D
:1013E40038B500244FF480334FF400120D4D012121
:1013F400C5F80845C5F804330B4B1520C3F8802104
:10140400224600F099F9152000F078F90123074AE3
:1014140002201360064A2B601360FFF7DBFE2046B0
:1014240038BD00BF0050015000E100E008500150F9
:101434001C030020134BB0F1FF3F08BF18460138CE
:1014440000281CDD9842A8BF18460F4BD3F804258A
:101454000E4B1968521A12F4000F18BF002022F024
:101464007F4301330A4A03440A4810600020506055
:10147400044A934294BFC9188918FFF73DBF00205E
:10148400E3E700BFFFFF7F0000500150200300206E
:1014940014030020E51200004FF02002EFF3118343
:1014A40082F31188BFF36F8F064AD2F80405064A07
:1014B4001268801A20F07F4083F31188BFF36F8F86
:1014C400704700BF0050015020030020014802F083
:1014D40057BA00BF0849000008B5B0B14368042BEF
:1014E4000DD100220368D3E8EF1F012903D1C3E81B
:1014F400E02F0028F7D1074808BF104608BD3BB1CC
:10150400006801F0EBFB0020F8E76FF4E040F5E73A
:101514000148F3E7E98FFFFFEA8FFFFF10B50446A8
:1015240018B90D4B0D485B689847616808290DD0C0
:1015340031F004030AD011F0020108D02146084812
:1015440002F03EFF002323600023636010BD1422D9
:10155400206802F0F4FDF7E760000020A94A0000CB
:101564002403002010B5044618B9164B16485B68CE
:1015740098476368042B23D0082B21D0CBB9236868
:10158400BBB94FF0FF324FF0FF3321460F4801F053
:10159400FDFA08B923681BB90A4B0D485B689847E4
:1015A40014220021206802F0CAFD636843F002039C
:1015B4006360206802F02DFF636843F001036360F9
:1015C40010BD00BF60000020A94A000024030020D1
:1015D400CF4A000008B5E8B14368042B0CD10122BE
:1015E4000368D3E8EF1F002903D1C3E8E02F0028E4
:1015F400F7D10BD1002008BD53B100684FF0FF3282
:101604004FF0FF3301F0F2FA0028F3D00348F2E779
:101614000348F0E76FF4E040EDE700BFE98FFFFF18
:10162400EA8FFFFF08B5064940231422054802F05B
:10163400ACFEBDE808400449044802F0F3B900BF19
:10164400400300202403002020490000104900002A
:10165400094A0A49936809685867996708494B68B1
:1016640043F080534B60002383F31188BFF36F8FE3
:101674009368986F704700BFD8080020D0490000D5
:1016840000ED00E013498A684FF030001044EFF396
:10169400098C80E8F01F202080F31188BFF36F8F3E
:1016A4000D4F4FF000664A6A8A603E60506F002317
:1016B400536780F3118802F1300090E8F01F8CF337
:1016C400098802F1000004B502F0BBFCBDE8044047
:1016D40070470000D808002004ED00E01EF0040F5D
:1016E4000CBFEFF30880EFF30980816911F8021C45
:1016F4000229FFD001B502F0AAFC01BD43B2002BC0
:1017040008DB012200F01F0002FA00F0024A5B0924
:1017140042F82300704700BF00E100E0054B420996
:1017240053F82220012300F01F0003FA00F01040B8
:10173400704700BF00E100E043B2002B01F101015A
:10174400ACBF03F16043064B4FEA4111C9B2ABBFD2
:1017540003F5614300F00F0083F800131954704738
:1017640014ED00E042F8203C009B0B4942F81C3C7D
:10177400019B21F0010142F8183C029B42F8081C2D
:1017840042F8143C4FF0807342F8043C0023203AA2
:1017940002654367704700BF113E0000044608B568
:1017A4000E46154600F0ACF9084B9C60636E83F35B
:1017B4000B88284686F30988002163B681F31188D3
:1017C400BFF36F8F0022002302F020FBD808002013
:1017D400014910220A60704710ED00E072B64040E3
:1017E40080F31188BFF36F8FBFF34F8F30BF62B6A2
:1017F400BFF36F8F704700BF72B6494081F3118801
:1018040020BF80F3118862B6704700BF30BFFFF776
:10181400FDBF00BF0E4A08B50E4B22F07F029A604E
:10182400BFF34F8FBFF36F8FD3F8882022F4700279
:10183400C3F88820EFF3148323F0040383F314889C
:1018440001F0DCF801F0D4FE00F03CF901F0FAF804
:101854000000000000ED00E001B572B60B4A106A0A
:1018640000281EBF0021116202F088FD62B6EFF36A
:101874000580A0F110004FEAC0000549014409C9E0
:101884009847BDE80140034908470000D8080020F4
:1018940074460000891A000002F024FB202080F323
:1018A400118808484FF40061401880F30988EFF369
:1018B40014800221084380F31488BFF36F8FFFF76D
:1018C400A9FF0000780E0020EFF30880EFF30981F0
:1018D40001B5724600F056F801BD00BF0E4B9A6A7E
:1018E4009A6A9A6A920708D55A6B9A6A120604D5BC
:1018F40018B19A6A22F080029A620020064B9A6A12
:101904009A6A9A6AD20658BF9A6A9A6A42F0FF02A1
:101914009A620870704700BF00ED00E00D4B9A6AB0
:101924009A6A9A6A920508D59A6B9A6A120404D53F
:1019340018B19A6A22F400429A620020054B9A6A0E
:101944009A6AD20558BF9A6A9A6A42F47F429A62A6
:101954000870704700ED00E0094B9A6A9A6A986A29
:101964009A6A9A6A9A6A9A6A9A6A10F480106FEA72
:1019740002426FEA124218BF02209A62704700BF07
:1019840000ED00E070B5364B0E465B6800258AB06A
:10199400C3F3080385F31188BFF36F8F02F07F410F
:1019A400B1F17F4F11D102F00C0108290DD01107BC
:1019B40001D4064601250022033B8DF80720032BA2
:1019C40047D8DFE803F0043E423B2E46F3E7244BBE
:1019D400DA6A92073DD4DC6A14F0804408D02833D4
:1019E4001B78EBB101200DF10701FFF777FF0446E7
:1019F4009DF8073093B92022314602A802F074FB07
:101A0400099B45B3C3F3080222B96FEA53236FEA73
:101A140043230993204602A902F017FB0AB070BDC4
:101A2400104B1B782BB101200DF10701FFF776FF56
:101A3400DDE70D4B188884B2002CD9D0FFF78CFF5A
:101A4400D5E700200DF10701CFE700200DF10701D4
:101A5400ECE70024CCE723F4FF7323F00103D8E779
:101A640000ED00E029ED00E02AED00E0044B5A69A6
:101A740042F010025A615A6942F480625A61704716
:101A840000ED00E0044B9968586A884203D003498A
:101A94004FF080520A607047D808002004ED00E03F
:101AA400BFF34F8F0549064BCA6802F4E062134343
:101AB400CB60BFF34F8F00BFFDE700BF00ED00E038
:101AC4000400FA05002320210348C2180133412BE6
:101AD40082F80013F9D1704700E100E0064B9B68DF
:101AE400834207D1EFF3058323B1044A536843F0DB
:101AF4008053536001F046BCD808002000ED00E09C
:101B04001FB5094C094A23460121094800F002F98E
:101B140000230393074B0121E41A01A801930294C3
:101B240000F002F904B010BD0060012000000020A4
:101B3400344900008801002010B50B680C7A23F0AA
:101B44001F0204F01F031A43CB68640923F01F0328
:101B5400044943EA440343F001038860CA600B610B
:101B640010BD00BF90ED00E02DE9F04F884614460B
:101B740006464FF000094A4D85B0C14505DA77683D
:101B8400BFB31F2F05D86FF01504204605B0BDE87C
:101B9400F08FFB06F7D1D6F800A01AF01F0FF2D190
:101BA400504602F07CFA834607EB0A00013802F043
:101BB40076FA8345E7D11BF1160FE4D0631E5B452B
:101BC400E1DBC5F808B0E968C5F808B02F6921F071
:101BD4001F01D6E900321A44994247F01F0702F167
:101BE400FF3A1CD1574508D131465FFA8BF002F019
:101BF40039FA09F101090C36BFE73146C5F808B0D6
:101C0400EB6822F01F0203F01F031A43EA60E0B2FC
:101C140002F028FA10F1160FB5D0441CE9E7013B95
:101C24005745E0B223F01F03C5F808B006D12A696E
:101C3400314602F01F0213432B61E9E7296901F0E1
:101C44001F010B432B61314602F00CFA10F1160F01
:101C540099D0C5F808B0EA689DF80830013F62F3EE
:101C640004038DF808302B699DF808205B0863F3A2
:101C740047128DF80820D6E900321344009323F06C
:101C84001F033B44441CA3EB0A0AE0B22AF01F03DF
:101C94000F2803933FF677AF6946FFF74DFFBCE784
:101CA40090ED00E00522034B5A60BFF34F8FBFF362
:101CB4006F8F704790ED00E0BFF35F8F0022014B00
:101CC4005A60704790ED00E038B50E4C2568102D31
:101CD40014D8FFF7F1FF00200B4B0C4A1A6385421E
:101CE40005D10B4B1D70FFF7DDFF002038BD616887
:101CF40001EB0011FFF720FF0130F0E74FF0FF3058
:101D0400F4E700BF4049000090ED00E0AAFF440062
:101D14003009002010B5034C2278FFF725FF20700E
:101D240010BD00BF300900202DE9F74F264D8A462B
:101D340006464FF00008AB46244FD0451BDAD6F8D0
:101D44000490B9F1000F39D031680846019102F0CE
:101D5400A6F90199044609EB0100013802F09FF944
:101D640084424FF014021A4B08D06FF0150302FBA3
:101D740008F84BF8083003B0BDE8F08F14F1160FE3
:101D84002C60F8D01978A142F5DD02FB08B0BC60E4
:101D9400BC60FC6800F10801007B64F30400087176
:101DA40038690C79400860F347140C71F96821F024
:101DB4001F016960396921F01F01296108F10108D7
:101DC40014350C36B9E700BF4008002090ED00E060
:101DD40030090020014B1860704700BF2800002024
:101DE40000F01F02054800EB8200D0F8003223F413
:101DF400403343EA0143C0F8003270470025845061
:101E040008B5094B1A786AB901210D20197005210A
:101E1400FFF792FC0D20FFF771FC4FF00042034BDB
:101E2400C3F80423002008BD3109002000D000506D
:101E3400F7B50E46416806F01F05097AB2F5A03FD2
:101E4400076945EA41150AD15C4805F01F01803154
:101E540050F82110C80707D56FF0220093E0B2F5BF
:101E6400005FF96800F091800121F868B1400143F6
:101E7400F96001217869B140B2F5A03F0CBF084375
:101E8400884378610020BA69B3F5C02F0CBF0A43B8
:101E94008A43BA613A69B3F5802F0CBF114322EA31
:101EA4000101474A3961D2F80433DBB200F5A2716B
:101EB40052F82110C1F304218D426BD123FA00F1B1
:101EC400C90767D5830003F1A04303F55043D3F852
:101ED400101521F00101C3F8101501238340C2F845
:101EE4000833C0B200F0CEFC28460021FFF778FF8B
:101EF400F868F04010F0010045D07869F04010F027
:101F040001044ED0BB690DF10700F340DB0757BF56
:101F14003969032621FA06F606F001065CBFC6F10C
:101F24000206F6B200F0D0FC264B984236D10020CF
:101F34009DF807102D028B0003F1A04303F55043D5
:101F4400D3F8102505F4F85522F4473222F44072F0
:101F5400C3F81025D3F8102515438A0002F1A042D6
:101F640002F5514245EA0646C3F81065106012684E
:101F7400D3F8102542F00102C3F810250123104ABA
:101F84008B40C2F8043303B0F0BD0120B04021EA15
:101F940000016DE70130082888D1A5E76FF0120031
:101FA400F1E739692846F14001F00101C1F103016B
:101FB400C9B2FFF715FF2046E5E700BF00258450AE
:101FC40000D000500000AD0B284B70B5466828487F
:101FD400134083423BD00DD8062B15D005D89BB1B6
:101FE400022B36D06FF0150030E0B3F5801FF9D125
:101FF400012309E01F4883422DD0B3F5A00F2CD054
:10200400B3F5800FEED10223D0064CBF0325C2F3F3
:10201400401582F4807412F4007FC2F34020C4F3AC
:10202400002406D012F4006F766818D001228A408A
:10203400B26040EA4402002042EA032301F01F0197
:102044000D4A43EA8503803142F8213070BD0723ED
:10205400DAE70423D8E70523D6E70323D4E75205B8
:1020640042BF01228A40F260E3E700BF0600F000AD
:102074000600100002004000002584502DE9F84FAE
:10208400454D2E68002E5BD0444B4FF00108D3E938
:102094000520D968024321EA0209414A4F464FF01C
:1020A400000B924614691B695C4029EA04047FBB57
:1020B4002F602B68002301251F463A48D0F80423DB
:1020C40005FA03F1114211D09A0002F1A04202F57F
:1020D4005142116851B103F5A27150F821101760F3
:1020E400C1F3042105FA01F112680C430133082BF2
:1020F400E4D13CBB56B101260027284DEC68D5E954
:1021040005210A4324EA0204002C33D1BDE8F88FE8
:1021140018EA070F0FD018EA090F0BF01F0008BFC9
:1021240000F180034FF0000108BF5AF82330FFF795
:1021340057FE27EA08070BF1010B4FEA4808B6E7F8
:102144003446B7E7154B59680029D3D00D68164FAC
:10215400002D38BF00258A68224002D038464B68DB
:102164009847002DC6D02B682946002B38BF002382
:102174001D46F0E726420CD0296907F01F00F940FC
:1021840001F00101C1F10301C9B2FFF729FE24EAFC
:10219400060401377600B7E77CD1005058080020C8
:1021A4000025845000D0005020010020F0B54B7968
:1021B400012B2AD0032B25D110268B79032B21D177
:1021C400CC792CB1012C1DD143685B689B0719D0D5
:1021D4000A7912B1022A15D10E220B684568B3F5AB
:1021E400164F2D6865D02DD8B3F5165F64D016D878
:1021F400B3F5966F62D00AD8B3F5967F61D0B3F584
:10220400167F61D06FF0220052E00026D5E7B3F5C7
:10221400166F5CD0B3F5965FF4D1374B3CE0B3F561
:10222400E14F57D007D8B3F5615F55D0B3F5964F5A
:10223400E8D1324B30E047F61227BB42E2D14FF4EB
:10224400000329E0B3F5613F48D013D8B3F5963FB6
:1022540047D009D84DF6C027BB4244D0B3F5614FEF
:10226400D0D14FF46B0317E0B3F5E13FCAD14FF07F
:10227400EB7311E0B3F5612F38D008D8204FBB427F
:1022840037D0B3F5E12FBDD14FF0E86304E01D4F23
:10229400BB42B7D14FF08053C5F8243503693443AA
:1022A4002243043303C9C5F86C2583E803000020E6
:1022B400F0BD4FF41D03EFE7134BEDE74FF49E23FE
:1022C400EAE74FF4A033E7E74FF41C33E4E74FF4B5
:1022D4001D23E1E70D4BDFE70D4BDDE74FF06C739A
:1022E400DAE70C4BD8E74FF46503D5E74FF070639A
:1022F400D2E74FF08063CFE700B0130000A04E0098
:1023040090D0030040420F000050270000C0750029
:1023140000F03A0000903A01F8B505460F46066908
:1023240002F027F910B92C4B1B7883B94FF0200326
:10233400EFF3118483F31188BFF36F8F284601F004
:10234400B8FF28BB84F31188BFF36F8FEEE76424D2
:10235400284601F0AEFF70B9012001F0DDFF013C19
:10236400F6D10021212000F0E5FFF0E784F3118885
:10237400BFF36F8FF5E74FF02003EFF3118483F37E
:102384001188BFF36F8F284601F093FF0028EDD02A
:10239400012206F8107F69680B68C3F84465C3F826
:1023A40048250022C3F82021D3F82001C3F858217E
:1023B400D3F858214A68D20641BF0822C3F8002541
:1023C4004FF48002C3F8042301229A6084F3118835
:1023D400BFF36F8FF8BD00BF320900204FF0000C2F
:1023E40043682DE9F04106691C680F46C4F800C52E
:1023F4000546306008680121414B00F01F029140FE
:1024040099600321803243F822107A68511C1EBF60
:1024140002F01F01803143F821C0B968C4F80C05EB
:10242400481C18BF0020C4F814251EBF01F01F0269
:10243400803243F82200F868421C0CD04FF0010CA3
:1024440000F01F020CFA02FCC3F808C04FF0030CA2
:10245400803243F822C0C4F80805C4F8101529696D
:1024640028460431FFF7A2FE8046002841D16B685C
:102474005B68190713D506F1120000F0E5F9214B4A
:10248400984239D1B37C43F00043C4F8A031C4F876
:102494008C300123B27C93401B4AC2F804350823D4
:1024A400C4F800357B6801330CD00023C4F8103124
:1024B400D4F8103106F11103C4F834350123C4F8FB
:1024C400383523606B6810365B681A075CBF4FF4BD
:1024D4008072C4F80423DB0644BF4FF48003C4F8BD
:1024E40004330023C4F84465C4F848350123A360C9
:1024F400E3604046BDE8F0816FF00408F9E700BFEF
:10250400002584500000AD0B0070015030B585B03B
:102514006C460546084B0FCB84E80F0000220121CE
:102524000820FFF709F90820FFF7E8F821462846B4
:10253400FFF754FF05B030BDB048000030B585B09A
:102544006C460546084B0FCB84E80F00002201219E
:102554000920FFF7F1F80920FFF7D0F821462846B3
:10256400FFF73CFF05B030BDC0480000054B1868BC
:10257400043B1B68092B03D1431E58425841704742
:10258400002070473401FF0008B5474B1B68092B36
:1025940001BF4FF050230022C3F81421C3F81821BF
:1025A400FFF7E4FF30B10123404A1360A2F638225A
:1025B400C2F878353C4B1B68092B07D13C4B1B6890
:1025C400012B1EBF01223B4BC3F87825FFF7CEFF3A
:1025D40010B10E22384B1A60334B1B68092B04D1FF
:1025E4000022364B1A6001225A600022D30003F500
:1025F4007F03D3F80013013108D0D3F8001301325C
:10260400D3F80433B2F5807F0B60EFD12C4BDA6939
:10261400D1073BD52B4B1946D3F80024012AFBD113
:10262400C3F80425D1F80034012BFBD1244BDA691B
:10263400D20708D5DA69234922F00102DA61D1F818
:102644000024012AFBD11A6A01320AD11A6A22F043
:10265400FF0242F020021A621A4AD2F80034012B17
:10266400FBD10022174BC3F80425D3F80024012A18
:10267400FBD1BFF34F8F1449144BCA6802F4E062D4
:102684001343CB60BFF34F8F00BFFDE71B6A0133D9
:10269400C0D00D4AD2F88C3043F44063C2F88C3079
:1026A4000B4B0C4A1A6008BD3001FF00384A005039
:1026B4003401FF0000400050E4AE03500C470050CA
:1026C4000080FF000090035000ED00E00400FA05D4
:1026D400540000200090D003044B1A7922B901223F
:1026E40018601A7102487047024870477C0800203D
:1026F4000000AD0B0C00AD0B10B1012820D07047C9
:102704004FF05022D2F81834D2F81814C90311D556
:1027140003F00303022B0DD1C2F8183500220D4B30
:102724001A601B6802224FF05023C3F804230122CD
:102734009A6070474FF050230122C3F81825EDE743
:102744000022054B1A601B684FF05023C3F80403A2
:1027540018607047045100500051005038B510B152
:10276400012818D038BD4FF050230222012142F233
:1027740010751C46C3F80823154A10601268154AE0
:102784001160D4F81834DB03ECD5012001F0C4FD4A
:10279400013DF6D1E6E74FF05024002242F21075D5
:1027A4000D4BC4F808031A601B680C4B1860D4F86E
:1027B4000C34D4F80C2403F00103D203D2D5002B3B
:1027C400D0D0012001F0A8FD013DF0D1CAE700BF3F
:1027D400045100500C50005000510050045000505F
:1027E400164B10B51A6852B1002018601B680122FC
:1027F4004FF05023C3F80823114B1B689847114B23
:102804001A688AB100221A601B684FF05023D3F86B
:102814001824D3F8181402F00302012A4FF002011D
:1028240003D1C3F818159A6010BDC3F80813044BFC
:102834000120BDE810401B68184700BF005100503C
:102844007C080020045100500B4A70B51668F1430F
:1028540089B271B10025ECB221FA04F3DB0705F16A
:102864000105F8D50123A3403343047003481360E2
:1028740070BD0348FCE700BF840800200000AD0BD6
:102884000200AD0B012303FA00F010F0FF0F12D089
:102894004FF02003EFF3118183F31188BFF36F8F9F
:1028A400064AD36C23EA0000D06481F31188BFF395
:1028B4006F8F034870470348704700BF88080020A3
:1028C4000000AD0B0400AD0B2DE9F041FF22002404
:1028D40001260546DFF858E01448DFF85880E3B2D3
:1028E4004FF02001EFF3118C81F31188BFF36F8F48
:1028F40022FA03F1C9070AD5DEF84C1006FA03F7E9
:10290400394201BF40463943CEF84C102B708CF34A
:102914001188BFF36F8F404505D006FA03F39A433D
:1029240004F10104DBD1BDE8F08100BF0200AD0B6E
:10293400880800200000AD0B0E4B70B553F8204002
:10294400013053F82060A64200D870BDD4E90035A8
:102954002846984765B1EB6830B10028B8BF4042BB
:10296400FF28A8BFFF2018705A7842F001025A705D
:102974000834E8E7BC49000070B5054610B90024E6
:10298400204670BD0378002BF9D00F4A0F4C164631
:10299400944208D10D4CB442F1D0204601F0CAFC57
:1029A40050B91834F7E7204601F0C4FC10B123688D
:1029B400AB42E5D01834EBE72846216801F088FBE8
:1029C4000028EED1DCE700BF38010020C000002061
:1029D40008B5094C4FF02002EFF3118382F31188FC
:1029E400BFF36F8F01F0E5FD2062FEF787FA002840
:1029F400F0D1FEF7F3FEEDE7D80800200248034AC1
:102A04000021121A01F09BBB880100203409002028
:102A1400012208B5094B02201A70FFF78DFF00F060
:102A2400DBFD0320FFF788FF00F078FDFDF706FDCE
:102A3400034A137B23F00103137308BD32090020FA
:102A4400080200202DE98048354BA7B003F5006942
:102A540089F3088883F30A880024E023314D4FF07A
:102A6400010B85F82230EC772C766C76AC766B6AA9
:102A74002D4E43F4E0236B62FEF7F8FFFEF7A8FE49
:102A84004FF0FF33AB62EB6240F20113274DADF818
:102A9400243006ABAB60CDE91F4401F04AFC20466C
:102AA400FFF74AFF0120FFF747FFDFF898A000F087
:102AB400E3FB1F4B6E624FF480621E490593304660
:102AC4005346CDE9034BCDE90144009400F0F6FCF4
:102AD400737B804623F004033046737301F0FFFCDC
:102AE4000F23154F4FF4A072CDE902431349144B41
:102AF4003846CDE904B4CDE9005400F0DFFC7B7B1B
:102B0400524623F004037B7305F118034146304613
:102B1400C5E90633EF602C75C5F80490FEF73EFE58
:102B2400780E002000ED00E008020020D808002004
:102B3400124B00003809002088010020380D0020C5
:102B4400D5290000152A000070B50E4B0E4CA34287
:102B540001D3002070BDD3E9030141EA000212F061
:102B640003020BD19D685A61AA4201D11C33EEE7DE
:102B74005E6901320E6059610144F5E76FF015009A
:102B8400E8E700BF3801002038010020D3B50C4627
:102B940016461F464FF02003EFF3118183F311888B
:102BA400BFF36F8F43695BB123601B684361836923
:102BB40001338361002081F31188BFF36F8F11E02B
:102BC40056EA070203D16FF00B002360F3E70246D5
:102BD400CDE90067083000F091F918B9024B9B6801
:102BE4005B69236002B0D0BDD80800202DE9F34111
:102BF400044616461F464FF02003EFF3118883F373
:102C04001188BFF36F8FC368324A6BB180689168D3
:102C1400884219D056EA070318D188F31188BFF304
:102C24006F8F6FF00F000CE0916891F90E10013373
:102C3400E36093682161A36088F31188BFF36F8F09
:102C4400002002B0BDE8F0812169F0E790F90E3070
:102C540091F90E109942A8BF194621EAE1718B42FD
:102C64002CDD00F0BDFA054622464146CDE9006759
:102C7400194800F043F90028E3D04FF02003EFF3A4
:102C8400118683F31188BFF36F8F236821699C42F7
:102C940007D033B193F90E309942A8BF194621EAFF
:102CA400E171A06890F90E30994209D16DB13146B5
:102CB400094800F0A1F86FF00A00C2E70025D3E745
:102CC40000F08EFA0028F2D1F0E786F31188BFF302
:102CD4006F8FF0E7D80800203309002038B58368E7
:102CE4000446002B36D01E4A9268934235D1DA7BD3
:102CF400013ADA73C368012B05D0013BC36000F0CD
:102D04007DF9002038BD4FF02003EFF3118583F3E4
:102D14001188BFF36F8F0169806890F90E30994272
:102D240001D000F05DFA204601F00BFCA06058B120
:102D340090F90E2022610022826701F0D0FB29461F
:102D4400084800F059F8DAE7E06085F31188BFF32A
:102D54006F8FD4E76FF01500D4E74FF0FF30D1E761
:102D6400D80800203309002010B5084C23685BB153
:102D7400FEF792FB03462068054A03440021BDE8A0
:102D84001040136101F025BC10BD00BF10090020E4
:102D9400D8080020F8B504460D464FF02003EFF3A1
:102DA400118683F31188BFF36F8F00224FF400471D
:102DB40040F2E73000210D4BE7FB04011A610023C8
:102DC4004FF47A72FDF7BCF9002C094B09DC18604A
:102DD400084B1D60FFF7C8FF86F31188BFF36F8FA0
:102DE400F8BD0228B8BF0220F1E700BFD8080020D0
:102DF400100900200C09002049B9EFF3058030B90F
:102E0400054B5A6A9B689A4201D0FEF721BC81F3B4
:102E14001188BFF36F8F7047D80800204FF020034C
:102E2400EFF3118183F31188BFF36F8F044B9A681A
:102E3400D37B013BD37381F31188BFF36F8F70474A
:102E4400D808002038B50D4C024604F1280001F0E2
:102E54000FFB054600B9E568A3684AB95A7BD20658
:102E640006D1AA6922B9DA897F2A01D9636238BDF9
:102E74009D4201D0FFF778FF6562F8E7D80800208B
:102E840008B590F90D200146002A437B04DA03F0CB
:102E94007F03437301F0C4FA044B9868431A584201
:102EA4005841BDE80840FFF7CDBF00BFD808002057
:102EB4002DE9F041064614461D464FF02003EFF37A
:102EC400118783F31188BFF36F8F01F0DBFA87F367
:102ED4001188BFF36F8F6B1C08BFB4F1FF3F08D09C
:102EE40022462B4606F118000349BDE8F04100F0E4
:102EF400E9BBBDE8F08100BF0345000010B50C46F6
:102F0400064B11469868064B1860DDE90223FFF76B
:102F1400CFFF2046BDE81040FEF79ABBD80800203A
:102F2400080900202DE9F04105460F4601F06BFB2E
:102F340004464FF02003EFF3118883F31188BFF3A5
:102F44006F8F124E124BB0682C441860FFF798FF35
:102F5400B06810492A463B46183000F0B3FBB2680B
:102F64004046537B002543F010035373FEF770FB78
:102F740001F049FB241A65F10005002C75F10003EA
:102F8400B8BF00242046BDE8F08100BFD808002067
:102F9400080900200345000070B50446183001F00C
:102FA400F2FA4FF02003EFF3118683F31188BFF395
:102FB4006F8F94F90D20637B002A05DA03F07F03F9
:102FC4002046637301F02CFA0B4D637BA86843F031
:102FD40010036373031B58425841FFF733FF86F312
:102FE4001188BFF36F8FAB68A34203D1BDE8704073
:102FF40001F034BA70BD00BFD808002010B54FF0FE
:103004002003EFF3118483F31188BFF36F8F084B10
:1030140000209A68D37B0133D373FFF713FF84F343
:103024001188BFF36F8FBDE8104001F017BA00BFDD
:10303400D808002070B590F90D200146002A437B82
:1030440004DA03F07F03437301F0EAF9174A4B7B78
:10305400104663F07F034B7350F8283FD56A8342D0
:1030640008BF0023002B38BF0023CBB191F90E60B9
:1030740093F90E40A6420FD0A41B002C0CDD586817
:10308400C1E90030016059609068BDE87040431A9E
:1030940058425841FFF7D6BEAB4201D01B68E4E763
:1030A400C1E900052960D162EEE700BFD80800201D
:1030B400014670B54FF02003EFF3118483F31188B8
:1030C400BFF36F8F164B174A98681568A8421D46C0
:1030D40006D1FFF749FE84F31188BFF36F8F70BDEB
:1030E40000261660104A1268BAB1C2897F2A14D821
:1030F400427BD20611D10D4A90F90E6012689642B5
:103104000BDB0B4A904208D01A698A4202DCFFF7B3
:1031140091FFDEE7521A1A61DDE700232B61DAE73B
:10312400D808002008090020100900200C090020FC
:103134008801002070B490F90D30427B002B2DDB08
:10314400D3062BD183694BBB154962F07F024273CE
:103154000A4652F8284FCD6A944218BF2346002BE2
:1031640038BF0023ABB190F90E6093F90E40A6422C
:103174000BD0A41B002C08DD5A68C0E90032106093
:103184005860002070BCFFF75DBEAB4201D01B68E5
:10319400E8E7C0E900252860C862F2E770BC704720
:1031A400D808002010B54FF02002EFF3118482F309
:1031B4001188BFF36F8F427B510704D484F31188C5
:1031C400BFF36F8F10BD22F004024273FFF7B2FF0A
:1031D4002146BDE810400148FFF70EBE3309002028
:1031E400F8B504464FF02003EFF3118683F31188FA
:1031F400BFF36F8F437B49B2DA0638D18569002D5E
:1032040035D103F07F03437301F00AF9437B8173E3
:1032140063F07F0343731748034653F8287F9F42A4
:1032240018BF3D46002D1A462B4638BF0023C76AF7
:10323400C3B193F90E50A94210D06D1A002D0DDDC3
:103244005A68C4E9003214605C600120FFF7FAFD9B
:10325400012086F31188BFF36F8FF8BDBB4201D004
:103264001B68E5E7C4E900273C60C462EDE7002081
:10327400A173EEE7D80800200021044B084603F1AF
:103284002802C3E90A22FFF785BD00BFD808002041
:103294002649F8B58A68264B9A423DD04FF0200360
:1032A400EFF3118583F31188BFF36F8F8868437B35
:1032B40003F07F03437301F0B3F808468A68537B35
:1032C40063F07F03537350F8283FCE6A834208BFEC
:1032D4000023002B38BF0023CBB192F90E7093F971
:1032E4000E40A7420FD0E41B002C0CDD5968C2E944
:1032F40000310A605A600120FFF7A4FD2846BDE8AA
:10330400F840FEF7A5B9B34201D01B68E4E7C2E96F
:1033140000063260CA62EEE74FF02003EFF311803B
:1033240083F31188BFF36F8FE9E700BFD80800204B
:1033340088010020B1F1FF3F08BFB0F1FF3F08B59D
:1033440002460B4606D10B4B9868FFF725FE4FF05B
:10335400FF3008BD13430AD1FFF79AFF00204FF452
:103364007A7380FB0323D00B40EA4340F1E7FFF775
:10337400D9FDF4E7D8080020014B9868704700BFD6
:10338400D80800202DE9F04104464FF02003EFF364
:10339400118683F31188BFF36F8F437B1A0705D51A
:1033A40086F31188BFF36F8FBDE8F08123F020020C
:1033B40042F00801D20920D14173A36813B1204619
:1033C40001F036F804F1180001F0DDF84FF00008C0
:1033D40004F15807A56DBD4200D0B5B90120FFF72F
:1033E40031FD104B9B68A342DAD1EFF30583002B28
:1033F400D6D13046FEF72CF9D2E703F05F0343F051
:103404000803437301F00CF8D7E7284601F010F8DD
:1034140005F1180001F0B7F82846C5F87880FFF7E1
:1034240089FED7E7D808002038B504464FF02003BA
:10343400EFF3118583F31188BFF36F8F01F081F8E7
:1034440048B10022826701F04AF82946BDE83840B5
:103454000448FFF7D1BCD4E902329A4218BF0133C1
:10346400A360F2E73309002037B514461D464FF038
:103474002003EFF3118183F31188BFF36F8F836807
:1034840043B1013B836081F31188BFF36F8F002048
:1034940003B030BD54EA050306D181F31188BFF3AC
:1034A4006F8F6FF00F00F3E70246CDE90045024845
:1034B400FFF724FDECE700BF330900202DE9FF41AD
:1034C4000E9E00F1580506730426C0E91655002522
:1034D400044646730D9EC0E906558673D61D0C9AA4
:1034E40026F00706C0E919168560C573C566029201
:1034F4000B9A01EB060801920A9A00924246FEF7E3
:1035040031F9054B65659B6803B11B6F4046236722
:1035140004B0BDE8F08100BFD80800202DE9F047D1
:103524002A4E2B4DB04686B0B54205F1300410D377
:10353400FFF774FC4FF4004940F2E7360027244CAF
:10354400DFF890A0444521D306B0BDE8F047FFF76B
:1035540055BD54F8043C059354F8103C049354F8B6
:10356400143C039354F8183C029354F81C3C019304
:1035740054F8203C009354E90A2354E90C01FFF762
:103584009DFF54F8303C5D652546CDE7636A5A1CBF
:103594000DD03046394623EAE373C9FB0301B9422F
:1035A40008BFB042256804D12846FFF7FBFD30343C
:1035B400C8E74FF47A720023FCF7C2FD02460B46BB
:1035C40005F11800514600F07DF8F0E738010020BD
:1035D4003801002003450000024A0349034800F073
:1035E4005DBB00BF5D4B0000174B0000374B000074
:1035F40008B50648064A0749121A00F075FDBDE8E9
:103604000840054A0549064800F06EBD0000002048
:1036140088010020604B000000000000604B0000A7
:1036240000000020034B1B680BB9FDF735BF0020D9
:10363400704700BF1409002030B5036868B10A4A16
:103644005268904209D043B1D3E90421D0E904453A
:10365400121945EB0101C3E90421426813605A6061
:103664000023C0E9003330BD5800002038B5134BA7
:103674001C689C4208BF0024FFF7D4FF0546BCB178
:10368400D4E90401401B61EBE571012871F10003E9
:1036940011DB6FF000420023824273EB010400DA75
:1036A4001046074B1B6913B19842A8BF184638BD92
:1036B4006FF00040F5E70020F3E700BF580000205A
:1036C400D80800202DE9F04FB3F1FF3F08BFB2F155
:1036D400FF3F044692469B4685B06FD0561C6FF060
:1036E400010543F100074FF0FF33B5EB060863EB28
:1036F4000709B8F1000F79F1000316DB0391FFF716
:1037040091FF4FF0FF33344E0399D6E90026AD1AEA
:1037140063EB0603B5EB0A0263EB0B030092019320
:10372400DDE90067361A67EBE077A1604FF020030C
:10373400EFF3118583F31188BFF36F8FFFF772FFE7
:10374400012E77F10003BCBF01260027234A361857
:10375400136847EBE0779342C4E9046702D0D2F8D8
:1037640004C02BB95368C4E900231C60546012E000
:10377400D3E90489D4E90467464577EB090120DAE3
:10378400B8EB060069EB0701C3E904015968C4E911
:1037940000310C605C60136893420BD09C4209D1E9
:1037A400FFF764FF18B10E4B1B69834202D000215E
:1037B400FDF740FE85F31188BFF36F8F05B0BDE8B8
:1037C400F08FB6EB080067EB09016345C4E9040117
:1037D400C8D01B68C5E700BF88020020580000203D
:1037E400D80800202DE9F74F0646FFF761FC4FF09B
:1037F4002003EFF3118483F31188BFF36F8FDFF895
:10380400B0A02A4D5146DFF8ACB02E60D5F800C008
:10381400DBF800006246DAE90089D3175845CDE9A0
:1038240000230DD060B1D0E90467B445BB411DDA73
:10383400009BB6EB030C019B67EB0306C0E904C6CF
:103844000026009B2E6013EB0802019B43EB090347
:10385400C1E90023FFF70AFF3146FDF7EBFD84F3CE
:103864001188BFF36F8F03B0BDE8F08F00220023EF
:1038740018EB060849EBE679C0E90423ACEB06062D
:10388400CAE900892E60FFF7D7FE84F31188BFF3DD
:103894006F8F836898474FF02003EFF3118483F30D
:1038A4001188BFF36F8F0249B0E700BF14090020ED
:1038B400880200205800002010B54FF02003EFF3D9
:1038C400118483F31188BFF36F8FFDF7E5FD064B79
:1038D400D3E90023121843F1000384F31188BFF3E2
:1038E4006F8F1046194610BD8802002010B50A4C8F
:1038F40023681BB101230020236010BD00F0AEF843
:103904000028F7D00138062803D8044B53F82000C8
:1039140010BD034810BD00BF18090020D4490000A1
:10392400FE8FFFFFBFF34F8F0549064BCA6802F4B1
:10393400E0621343CB60BFF34F8F00BFFDE700BFCE
:1039440000ED00E00400FA054FF0FE33002130B42E
:10395400064A074D074C2B6013602360064A074C48
:10396400EB606368C2F8001530BC18470414845037
:103974000014845008148450000084506000002017
:10398400024BD0E90012C3E9001270476000002026
:1039940048B143682BB1BFF35F8F0023036018461F
:1039A4007047024870476FF4E0407047EA8FFFFFAA
:1039B40010B5044628B1636813B100232360636023
:1039C40010BD024B02485B689847F4E76000002092
:1039D400F049000010B5044630B10022636822604B
:1039E40043F00103636010BD0148FFF7ADFFF4E746
:1039F400184A000080B1436863B10122D0E8EF3F68
:103A0400C0E8E12F0029F9D1012BF7D0BFF35F8F74
:103A140000207047024870476FF4E040704700BFD1
:103A2400EA8FFFFF70B40B4B0668C268D0E90154FB
:103A3400C3E90242C3E90065D1E903020E68064BFB
:103A4400D1E90154C3E90065C3E902401A6170BCBD
:103A5400704700BF700000208000002010B500F007
:103A640033F820B1032400F067F8204610BD00F0BD
:103A740035F890B900F0B0F890B90F4B1B681B0EE5
:103A8400F02B08D10D4A0E4B12689A420AD0072433
:103A940000F01CF8E7E70624FAE70424204610BDEA
:103AA4000024F5E7012000F097F804460028F7D138
:103AB400044B1860D9E700BF28198450241A845095
:103AC4000000E0200C1A845000207047002070474A
:103AD400014B1860704700BF041A845010B5114898
:103AE40000F048F800B110BD0F4800F043F800287A
:103AF400F9D10E4C204600F03DF80028F3D10C4BD0
:103B04000C481C6000F036F801460028EBD100F0A8
:103B14002DF8044608B1204610BD00F03FF82046B9
:103B2400FAE700BFB8000020AC000020B400002079
:103B3400BC000020B000002008B5084800F024F8BC
:103B4400074800F021F8074800F01EF8064800F086
:103B54001BF8BDE8084000F00BB800BFB800002017
:103B6400AC000020B4000020B0000020002070470A
:103B7400704700BF08B5034B02681B68106898477C
:103B8400002008BD7000002008B5034B02685B6884
:103B940010689847002008BD7000002070B5094CDB
:103BA400094D2069AB68984718B1084B08485B6811
:103BB40098470021074AEB6811602069BDE870400E
:103BC400184700BF80000020700000206000002023
:103BD4003C4A00002C09002070B51A4D1A4E0446C8
:103BE400B26828699047F0B95CB1184C2368ABB14E
:103BF400012B1AD0013B23602869F3689847002001
:103C040070BD124C216839B90120114B114AC3F817
:103C140000051368002BFCD101312160F368286989
:103C24009847002070BD0C4870BD0A4A1368002BE9
:103C3400FCD1074A6FF07E40C2F80035FFF748FF19
:103C44002368D7E780000020700000202C090020A2
:103C54000000845010198450E98FFFFF034658B1C7
:103C6400426802F00302012A03D0032A04D1026845
:103C740012B10020986070476FF0150070474268D9
:103C8400034602F00302032A4FF00002816014BFCE
:103C9400104600685A607047002070470FB407B59B
:103CA40004A951F8040B0191FCF706FC03B05DF87C
:103CB40004EB04B07047038B13F0070305D10368CA
:103CC400002B0CBF002003207047022B05D1438B2F
:103CD400002B14BF002004207047012B05D103687A
:103CE400002B0CBF002005207047002070472DE9F1
:103CF400F0410D4607461946281D90461E46FFF71B
:103D0400BEFF044638B13346424629463846A446E7
:103D1400BDE8F0416047BDE8F08110B44FF02004E5
:103D2400EFF3118284F31188BFF36F8F416110BCEC
:103D34000121FCF7CFBB10B50C4640B139B1081DC9
:103D4400FFF78CFF28B9A36833F0030301D06FF0A9
:103D5400150010BD38B50C46054658B151B10B6875
:103D640043B14B6833B11C22002100F0E8F9002074
:103D74002C6138BD6FF01500FBE770B504460E46A4
:103D8400FFF7D9FF051E31DB4FF02003EFF311815C
:103D940083F31188BFF36F8F4FF6FF75638B208B0E
:103DA400AB4200F007022ED0022A0ED10133638306
:103DB4001546012381F31188BFF36F8FB3B100233C
:103DC40031462046FFF793FF10E0830701D0062A0F
:103DD4000ED100233360636893B9C4E900661546C5
:103DE40062B90A4620460221FCF774FB284670BDDE
:103DF400052A0CBF6FF022056FF004050023D9E7F4
:103E04001E606660EBE76FF00A05F7E7044608B545
:103E1400084611461A46A047FFF7AEFAFDF75EFEC4
:103E24002DE9F74F9946D37814466F2BA3F141023D
:103E340006460F4601922DD028D8582B14BF0A25C8
:103E44001025AA464FF0000BDDF8308052465B4641
:103E540030463946FCF774F9092AD3B21FD83033F7
:103E64005F45DBB208BF564508F8013D01D3C8459C
:103E740012D823789B0605D5082D16D1A37843F0D4
:103E84000803A370404603B0BDE8F08F03F0F703C6
:103E9400702BD3E70825D4E706460F46D6E7019AE8
:103EA400192A94BF37335733DAE7102DEAD1A378B0
:103EB40043F01003E5E72DE9F0410746884615462F
:103EC4001E461446B442A4EB050002D33EB923783F
:103ED4002BB1414614F8010BB8470028F2DABDE8CB
:103EE400F0817047FEF750BB82B002AB03E90300D8
:103EF400002383F31188BFF36F8F02B07047002251
:103F0400028042607047CBB20C21026903FB01219D
:103F1400086C00F0070070474FF02003EFF31182A4
:103F240083F31188BFF36F8F036813F0C00301D0CC
:103F34008B4207D101230360002082F31188BFF371
:103F44006F8F70474FF0FF30F7E710B54FF0200345
:103F5400EFF3118283F31188BFF36F8F036803F0CB
:103F64000704012C06D10160002082F31188BFF3FD
:103F74006F8F10BD03F0C0038B4214BF4FF0FF30AE
:103F84006FF04400F1E74FF02003EFF3118283F365
:103F94001188BFF36F8F036803F0C00343F002037B
:103FA400036082F31188BFF36F8F704710B41C2431
:103FB4000069CBB203FB0400002110BC10470020B1
:103FC400FEF79ABB0020FEF7C9BB1046FFF72CBAD8
:103FD40038B50C23CCB263430546006940338021D5
:103FE4001844FFF799FF002805DB696801EBC40456
:103FF40063689847002038BD2DE9F8430C27CDB2FB
:104004006F430469064607F140008021204490462E
:104014009946FFF79AFF002807DB3C44C4E90E8960
:10402400736853F8353098470020BDE8F88370472B
:10403400704770470020FCF785BF0021012000F085
:1040440004B8436E83F30B88704700F07CB90146D3
:10405400006800F078B908B5FDF7D8FBBDE8084062
:10406400FDF710BD7FB50A898E7A0B684D6802F0A2
:104074001F0242EA461200938DF8082023F01F0322
:104084006A1E134423F01F030F28039304D86946C0
:10409400FDF752FD04B070BD6FF01500FAE740E87B
:1040A40000F313F4803FD8B208BF6FF015007047D7
:1040B400034600201A5C02B970470130FAE7034650
:1040C40000201A5C0AB1884200D170470130F8E739
:1040D400431E013913F8012F11F8010F824201D157
:1040E400002AF7D1101A7047F0B581EA0004A50739
:1040F40003460BD0013B0A4491421BD1F0BD002A78
:10410400FCD011F8014B013A03F8014B9C07F6D19E
:1041140022F003041D1F96080F19B94205D16FF050
:104124000305234405FB0622E4E751F804CB45F8D4
:1041340004CFF2E711F8014B03F8014FDCE7034623
:1041440070B5C9B29C0711D141EA012422F00306DB
:1041540044EA04451E449408B3420DD16FF00305AC
:1041640005FB04221A44934209D170BD002AFCD0F5
:1041740003F8011B013AE5E743F8045BECE703F8B5
:10418400011BF0E74FF0FF307047436800205B6885
:104194001B690B60704743685B68586842400A407B
:1041A40042405A6000207047436800205B68996071
:1041B4007047436800205B68D960704743680020FB
:1041C4005A6853684B4053607047036930B5586868
:1041D40058B10024814213D108685CB99C685860C6
:1041E400A14200D198600020086072B9002030BD5F
:1041F4002846EFE720609868814208BF9C60F2E798
:1042040005680446002DF3D13AB15A680A609868EB
:1042140059600028EAD19960E9E76FF01500E6E7F4
:1042240043681B68D3F80423D10518D5D3F820219B
:10423400AAB14FF02001EFF3118281F31188BFF38B
:104244006F8FD3F8201131B10021C3F82011D3F8B6
:1042540020110121D96082F31188BFF36F8F426866
:104264005268D20615D54FF02001EFF3118281F385
:104274001188BFF36F8FD3F8581111B10021C3F81F
:1042840000154FF48001C3F8081382F31188BFF3BB
:104294006F8F70470B460269D2E9010183E803007E
:1042A4000020704743681B68D3F88004C3F8800477
:1042B400704742681368D3F8580140B9526812072E
:1042C40006D4D3F82001003818BF0120704701201C
:1042D4007047436802691B68D3F8100148B1002095
:1042E400527C0A70C3F81001D3F8102101221A601D
:1042F40070474FF0FF307047002008B5FDF7D0FB42
:10430400FFF7F4BA08B5FDF7E1F8FDF78BF9BDE85E
:104314000840FFF7EBBA004700F031B908B50520B3
:10432400FDF7FCF920B9BDE808400520FDF7E6B922
:1043340008BD7047C3681888C0F30800A0F58073EF
:10434400584258417047F8B505460E464FF02003D1
:10435400EFF3118783F31188BFF36F8FFFF70CF826
:10436400314604462846FFF7C7FF87F31188BFF399
:104374006F8F2046BDE8F840FDF7B0BB08B5FCF7E9
:10438400A7FDBDE80840FFF753BE30B500248461A3
:1043940041EA020414F00304C0E9023201610CD1C1
:1043A4004461A34203D1C0E90000002030BD456947
:1043B40001340D6041611144F3E76FF01500F5E736
:1043C400F8B504460D464FF02003EFF3118683F34E
:1043D4001188BFF36F8F476977B900F0B2F858B10D
:1043E4002A688767426100F07AF8314604F10800D0
:1043F400BDE8F840FEF700BD2B6862691A602B68BF
:104404006361A369013BA36186F31188BFF36F8FD6
:10441400F8BD03460020C3E90033C3E90200704736
:10442400D0E9003213605A600023C0E900337047BA
:1044340008B5FFF7F5FF437B23F002034373002322
:10444400836008BD034620B9EFF305820AB9FDF77E
:10445400FFB883F31188BFF36F8F70474FF02003C9
:10446400EFF3118083F31188BFF36F8FFFF7EABF77
:1044740003460068834203D0002838BF00207047F9
:104484000020704738B504460D46FEF7F9FC637BFF
:1044940043F002036373B5B12B68A5609D4208BF66
:1044A4000023002B38BF00239BB194F90E1093F91D
:1044B4000E20914208D0521A002A05DD5A68C4E938
:1044C400003214605C6038BD6A68934201D01B6896
:1044D400EAE76B68C4E900531C606C60F3E710B54D
:1044E4004FF02003EFF3118483F31188BFF36F8F30
:1044F400FEF720FE84F31188BFF36F8F10BD0146D1
:1045040010B54FF02003EFF3118483F31188BFF348
:104514006F8F10F80B3C13F0280F0DD151F8103C9D
:1045240018380BB1FFF784FF11F80B3C23F0140388
:1045340001F80B3CFEF7FEFD84F31188BFF36F8F87
:1045440010BD38B54FF02003EFF3118583F31188C4
:10455400BFF36F8FFFF78CFF044620B1FFF768FFAE
:10456400183000F010F885F31188BFF36F8F2046E0
:1045740038BDEFF30580003818BF0120704708B13B
:10458400FCF762BC704710B54FF02002EFF31184C2
:1045940082F31188BFF36F8F03683BB1FFF74CF8C8
:1045A400002084F31188BFF36F8F10BD6FF01500E6
:1045B400F7E710B54FF02003EFF3118483F311886C
:1045C400BFF36F8FFFF752F884F31188BFF36F8F37
:1045D40010BD70B504460D464FF02003EFF311866D
:1045E40083F31188BFF36F8FFFF740F8012805DDCF
:1045F400A04203DB29462046FCF71CFF86F3118802
:10460400BFF36F8F70BD08B5FFF756F908BD70474B
:0846140060BBFF7F0100000004
:10461C00250E0000000000004D2B000000000000E3
:10462C00CD1C00000000000005430000000000004D
:10463C006D100000C000002041250000D8000020B3
:10464C0011250000F0000020790F00000000000090
:10465C00E513000008010020051E000020010020C9
:08466C000943000000000000FA
:10467400000000003F400000000000003F40000038
:10468400000000003F400000000000003F40000028
:10469400000000003F400000E52700001B4300002D
:1046A400000000003F400000000000003F40000008
:1046B400F000002025420000D80000202542000020
:1046C400000000003F400000000000003F400000E8
:1046D400000000003F4000000000000081200000B6
:1046E400000000003F400000000000003F400000C8
:1046F400000000003F400000000000003F400000B8
:10470400000000003F400000000000003F400000A7
:10471400000000003F40000000000000951300006E
:10472400000000003F400000000000003F40000087
:10473400000000003F400000000000003F40000077
:10474400000000003F400000000000003F40000067
:10475400000000003F400000000000003F40000057
:10476400000000003F400000000000003F40000047
:10477400000000003F400000000000003F40000037
:10478400000000003F400000000000003F40000027
:10479400000000003F400000000000003F40000017
:1047A400000000003F400000000000003F40000007
:1047B400000000003F400000000000003F400000F7
:1047C400000000003F400000000000003F400000E7
:1047D400000000003F400000000000003F400000D7
:1047E400000000003F400000000000003F400000C7
:1047F400000000003F400000000000003F400000B7
:10480400000000003F400000000000003F400000A6
:10481400000000003F400000000000003F40000096
:10482400000000003F400000000000003F40000086
:10483400000000003F400000000000003F40000076
:10484400000000003F400000000000003F40000066
:10485400000000003F400000000000003F40000056
:10486400000000003F400000000000003F40000046
:08487400000000003F400000BD
:10487C00FF7FFF7FFF7FFF7FFF7FFF7FFF7FFF7F3C
:10488C00FF7FFF7FFF7FFF7FFF7FFF7FFF7FFF7F2C
:0C489C00FF7FFF7FFF7FFF7FFF7FFF7F1C
:0848A800FFFFFFFFFFFFFFFF10
:1048B0001D0000001C0000001A0000001B0000008A
:1048C00001000000000000000F0000000E000000CA
:1048D0000338FDD870470000A5110000D53F000047
:1048E000FD3F0000000000000B3F00001D11000014
:1048F00081110000C33F0000C93F000015100000F7
:10490000CD0F000000000000000000003940000052
:104910006915000021150000D9150000DD14000004
:1049200020000020080000201800002000000000E7
:104930001000002000000020000000000600010020
:10494000020000004849000000000000FC4A00008E
:1049500006000000E0FF0F0000000020044B0000F4
:1049600021000000E05F0120CD1F00008F4100000A
:104970009B410000AD410000B7410000C141000073
:10498000351E0000CF41000000000000FFFFFFFFC8
:104990000025845000000000D74200001D230000C5
:1049A000A9420000B121000099420000008000509F
:1049B0000B000000009000500B0000001C4600009F
:1049C0005C46000064460000744600007446000027
:1049D000F5FFFFFFFF8FFFFFFF8FFFFFFE8FFFFF42
:1049E000FE8FFFFFFD8FFFFFFC8FFFFFFC8FFFFFA0
:1049F0006D757465785F667265652063616C6C6562
:104A0000642077697468204E554C4C207061726147
:104A10006D6574657200000043616E277420696ED5
:104A2000697469616C697A65206D757465782C208C
:104A3000776173204E554C4C0D0A0000436F756C26
:104A400064206E6F74206C6F636B20706F7765727B
:104A50002073617665206D75746578004750494F05
:104A60005F3000286E696C29004661696C656420BE
:104A7000746F207265626F6F743A207370696E6E26
:104A8000696E6720656E646C6573736C792E2E2E6B
:104A90000A00554152545F3000434C4F434B007362
:104AA00079735F636C6F636B006D757465785F69B4
:104AB0006E69742063616C6C65642077697468202A
:104AC0004E554C4C20706172616D65746572004387
:104AD0006F756C64206E6F7420616C6C6F636174B1
:104AE00065206D75746578206265666F72652069F2
:104AF0006E697469616C697A696E6700464C4153EE
:104B0000485F30005352414D5F3000554152545F71
:104B100031006D61696E0076322E342E39392D6E7A
:104B20006373312D333531302D6765346638376620
:104B3000626131623837002A2A2A20426F6F746915
:104B40006E67205A6570687972204F5320627569CC
:104B50006C64202573202573202A2A2A0A0000006D
:104B60009D3C000001000000380100200100000011
:104B70004C01002001000000600100200100000045
:104B800074010020010000008941000000000000C5
:104B900000C201000001030000000000000000004E
:104BA0000000000000C2010000010300000000003E
:104BB000000000000090D0035800002058000020A2
:104BC00000000000293900001C090020010000003D
:104BD000D9390000B5390000F939000095390000D5
:104BE000A4000020680000209C00002000000000BD
:104BF000940000202009002001000000240900206A
:104C000001000000280900200100000084000020AD
:104C1000900000208800002080000020B4000020C8
:104C2000994A0000EC480000D8480000A402002087
:104C3000B80200209E4800000B4B0000B449000061
:104C400098490000780800204000002094480000A7
:104C5000924A0000AC490000984900007408002006
:104C60002C0000208A4800009F4A0000000000003D
:104C70000000000010030020000000008448000035
:104C80005C4A00008C49000068490000540800207C
:084C9000580800207C480000D8
:104C9800380100203801002000000000000000005A
:104CA8000F0000004C0100204C0100200000000013
:104CB800000000000F0000006001002060010020DB
:104CC80000000000000000000F0000007401002038
:104CD8007401002000000000000000000F00000028
:040000030000189D44
:00000001FF
