:10000000581900201D220000836700007D22000097
:100010007D2200007D2200007D2200007D22000064
:10002000000000000000000000000000F11F0000C0
:100030007D22000000000000991F0000251800002C
:10004000DD210000DD210000DD210000DD210000B8
:10005000DD210000DD210000DD210000DD210000A8
:10006000DD210000DD210000DD210000DD21000098
:10007000DD210000DD210000DD210000DD21000088
:10008000DD210000DD210000DD210000DD21000078
:10009000DD210000DD210000DD210000DD21000068
:1000A000DD210000DD210000DD210000DD21000058
:1000B000DD210000DD210000DD210000DD21000048
:1000C000DD210000DD210000DD210000DD21000038
:1000D000DD210000DD210000DD210000DD21000028
:1000E000DD210000DD210000DD210000DD21000018
:1000F000DD210000DD210000DD210000DD21000008
:10010000DD210000DD210000DD210000DD210000F7
:10011000DD210000DD210000DD210000DD210000E7
:10012000DD210000DD210000DD210000DD210000D7
:10013000DD210000DD210000DD210000DD210000C7
:10014000DD210000000000000000000000000000B1
:10015000000000000000000000000000000000009F
:10016000000000000000000000000000000000008F
:10017000000000000000000000000000000000007F
:10018000000000000000000000000000000000006F
:10019000000000000000000000000000000000005F
:1001A000000000000000000000000000000000004F
:1001B000000000000000000000000000000000003F
:1001C000000000000000000000000000000000002F
:1001D000000000000000000000000000000000001F
:1001E000000000000000000000000000000000000F
:1001F00000000000000000000000000000000000FF
:10020000DEE61E284CBBCE8F025B00003C000000E7
:1002100094830000010000000000000000000000C6
:10022000FFFF02910000000000000000000000003D
:0C023000000000000000000000000000C2
:10023C0053B94AB9002908BF00281CBF4FF0FF3141
:10024C004FF0FF3000F070B9ADF1080C6DE904CE41
:10025C0000F006F8DDF804E0DDE9022304B0704795
:10026C002DE9F047089E0D4604468A46002B7FD1A7
:10027C008A42174641D9B2FA82F24AB1C2F1200140
:10028C0005FA02F39740944020FA01F141EA030A7F
:10029C004FEA17484FEA144C1FFA87F9BAFBF8FEDD
:1002AC0008FB1EA30EFB09F14CEA0343994206D945
:1002BC00FB1802D2994200F224810EF1FF3E591A2A
:1002CC00A3B2B1FBF8F008FB101100FB09F943EAEB
:1002DC000144A14505D93C1902D2A14500F20E8179
:1002EC000138A4EB090440EA0E4000211EB1D440B1
:1002FC000023C6E90043BDE8F08702B9FFDEB2FA7D
:10030C0082F2002A4FD1CB1B4FEA174E1FFA87F807
:10031C000121250CB3FBFEFC0EFB1C302B4608FB0D
:10032C000CF945EA0045A9450AD97D192CBF0123D2
:10033C000023A94502D9002B00F0D9800CF1FF3C19
:10034C00A5EB0905A3B2B5FBFEF00EFB105508FB9F
:10035C0000F843EA0544A04505D93C1902D2A04552
:10036C0000F2C9800138A4EB080440EA0C40BDE758
:10037C008B4208D9002E00F0B1800021C6E900059F
:10038C000846BDE8F087B3FA83F1002946D1AB42A9
:10039C00C0F0A780824240F2A4800846002EAAD06A
:1003AC00C6E9004AA7E7C2F12000974001FA02F320
:1003BC004FEA174EC14024FA00F51FFA87F8944013
:1003CC001D43B1FBFEF02B0C0EFB101100FB08FCC7
:1003DC0043EA01439C4509D9FB182CBF012100219C
:1003EC009C4502D9002900F095800138A3EB0C0341
:1003FC00ADB2B3FBFEF10EFB113301FB08FC45EA79
:10040C000345AC4505D97D1902D2AC4500F2898073
:10041C000139A5EB0C0341EA00417AE7C1F1200454
:10042C008B4002FA01F705FA01FCE24020FA04F8CD
:10043C00E54000FA01FE134348EA0C024FEA134868
:10044C004FEA124C1FFA83F9B5FBF8FA08FB1A5560
:10045C000AFB09F04CEA054C60450AD913EB0C0C6D
:10046C002CBF01250025604501D9002D55D00AF17E
:10047C00FF3AACEB000C92B2BCFBF8F008FB10CCD2
:10048C0000FB09F942EA0C4CE14505D913EB0C0CC5
:10049C0001D2E1453BD8013840EA0A40ACEB090CEB
:1004AC00A0FB0789CC4545464A4602D306D1C64532
:1004BC0004D20138B8EB070569EB03022EB3BEEB8F
:1004CC0005036CEB020C23FA01F20CFA04F42CFA7F
:1004DC0001F300211443C6E900430CE731463046D2
:1004EC0009E7841A65EB030301209A4656E7ACF141
:1004FC00020C3D4424E702383C4434E702383C44C7
:10050C00EFE6AEF1020E3B44D9E63146F3E6023893
:10051C009C44C1E702383B4468E7AAF1020A9C44B8
:10052C00A7E702393D4474E7704700BF2DE9E04F5F
:10053C002746A046A146A246A346A446A2B02DEC4F
:10054C00000A84F3008825462646A4473DEC000AA1
:10055C0022B0BDE8E08F000038B54468054604F0D1
:10056C000304032C816002D02CB1002000E0006851
:10057C0000236B6038BD45220449054805F03EFF59
:10058C004521024806F006F8EFE700BF8470000032
:10059C00A77000000B6801330B60014B1B681847F8
:1005AC0000000020014B1860704700BF00000020C5
:1005BC0007B50B46002102460191034801A900F042
:1005CC006DFA03B05DF804FBA10500002DE9F74FAF
:1005DC00B0F81CA004461AF0080F93461CD0012951
:1005EC000CBF4AF0100A4AF0200AA0F81CA004F133
:1005FC00140005F043FA40B9BA49BB48AC2205F0E7
:10060C00FDFEAC21B74805F0C5FF8BF31188BFF395
:10061C006F8F03B0BDE8F08FB44FDFF8CC820AF0D7
:10062C00070A022906D1204605F0F5FE0028DED087
:10063C00012865D1D4F81890A38BB9F1000F19DA01
:10064C000026256823F00703C4E9006643F0010384
:10065C00A383A38B03F007025245009203D0A26838
:10066C00002A40F0F18015B9002E00F02B814FF0DC
:10067C00000AEBE003F00702511F012922D80021E8
:10068C0023F00703062A25689BB2C4E900110CD19C
:10069C008D422A4638BF0A462AB1E18B12680131D5
:1006AC00E183002AF8D143F002032046A38305F02E
:1006BC00B2FE06460028CCD0A38B43F02003A383C4
:1006CC000026C6E7042A0DD123F007039AB2204670
:1006DC00A28305F0A0FE054680B142F02002002561
:1006EC00A283EDE740F219123946404605F086FE2A
:1006FC0040F21911384605F04DFF00252E46A8E7AB
:10070C00032831D1BAF1000F0AD0394640464FF4D4
:10071C00AA7205F073FE4FF4AA71384605F03AFF41
:10072C00236853B93946404640F2551205F066FE2F
:10073C0040F25511384605F02DFF23691E6856B955
:10074C00394640464FF4AC7205F058FE4FF4AC718C
:10075C00384605F01FFFA38B23F0070343F0060375
:10076C000025A383A94674E704282ED1BAF1020F01
:10077C000AD03946404640F25B1205F03FFE40F28B
:10078C005B11384605F006FFE38B53B13946404602
:10079C004FF4AE7205F032FE4FF4AE71384605F0F0
:1007AC00F9FE23695E6856B93946404640F25F123D
:1007BC0005F024FE40F25F11384605F0EBFEA38BEA
:1007CC0023F0070343F00403CAE705282ED1BAF13E
:1007DC00010F0AD0394640464FF4B17205F00EFEB7
:1007EC004FF4B171384605F0D5FE236853B939463C
:1007FC00404640F2631205F001FE40F263113846A8
:10080C0005F0C8FE23699E6856B9394640464FF438
:10081C00B37205F0F3FD4FF4B371384605F0BAFE30
:10082C00A38B23F0070343F0050399E7002540F25F
:10083C0069123946404605F0E1FD40F2691138462F
:10084C0005F0A8FE2E468DE74FF0010A43F0080391
:10085C00A38304F114031846019305F00FF940B972
:10086C0040462049AC2205F0C9FDAC211D4805F0DD
:10087C0091FE8BF31188BFF36F8FBAF1000F39D152
:10088C00002D4CD116B120461949B0474FF020032A
:10089C00EFF3118B83F31188BFF36F8F019805F081
:1008AC00DFF840B940460F49812205F0A7FD8121B0
:1008BC000C4805F06FFE019805F0EEF8A38B23F0C1
:1008CC000803A383A38BDA0631D5012123F010038F
:1008DC00A383B4F81CA00AF0070A00297FF4A1AE88
:1008EC0085E600BFE1700000A7700000BF7000003B
:1008FC004D090000A1680029C2D00B68002B38BF3D
:10090C0000239A4620464B46D1F804B0009AD847AB
:10091C00BAF1000FB4D05146DAF80030EEE72946B0
:10092C004B462046009A2D6805F091FDA8E713F080
:10093C0020011EBF23F020030221A383C9E700BFBF
:10094C00F8B504460D4600F114064FF02003EFF302
:10095C00118783F31188BFF36F8F304605F080F851
:10096C0040B90A490A48812205F048FD812107480F
:10097C0005F010FE304605F08FF83A462046A5618A
:10098C000121BDE8F840FFF721BE00BFE170000077
:10099C00A77000002DE9F04704460F4605F06DFDE9
:1009AC00051E54DB04F114094FF02003EFF3118AF8
:1009BC0083F31188BFF36F8F484605F051F840B9A7
:1009CC0033493448812205F019FD8121304805F066
:1009DC00E1FD484605F060F84FF6FF71E38BA28B02
:1009EC008B4202F007064AD0022E1FD135464FF03B
:1009FC0001080133E383484605F040F840B9244927
:100A0C002448AC2205F0FAFCAC21214805F0C2FDCB
:100A1C008AF31188BFF36F8FB8F1000F17D0002342
:100A2C0032463946204605F012FD10E0930701D0FE
:100A3C00062E0FD100233B606368EBB9C4E9007745
:100A4C003546F6B9524602212046FFF7BFFD28462F
:100A5C00BDE8F087052E17D0012E0AD00E490D489F
:100A6C0040F2C51205F0CAFC40F2C5110A4805F067
:100A7C0091FD6FF0040504E01F606760E0E76FF024
:100A8C000A054FF00008B6E76FF02205F9E700BF42
:100A9C00E1700000A7700000BF7000002DE9F04F5E
:100AAC008B4692461C46002591B002909AF80000A5
:100ABC0008B928465EE325280AF1010707D05946F4
:100ACC00029B98470028C0F25583013510E218228A
:100ADC0000210AA805F0B6FE9AF80130252B78D033
:100AEC0000229446164696461046394617F8013BA6
:100AFC002B2B00F09D8000F29480202B00F09B802B
:100B0C00232B00F09A8028B19DF8300040F00400AF
:100B1C008DF83000BEF1000F05D09DF8300040F08C
:100B2C0008008DF830002EB19DF8300040F0100018
:100B3C008DF83000BCF1000F05D09DF8300040F06E
:100B4C0020008DF830002AB19DF8302042F0400290
:100B5C008DF830209DF8302002F04400442803D159
:100B6C006FF386128DF830209DF830202A2B42F03E
:100B7C0080028DF830207BD19DF831204B1C42F047
:100B8C0001028DF831201A782E2A0CBF0121002188
:100B9C009DF8312061F341028DF8312074D15A78DF
:100BAC002A2A6AD000210A260133184610F8012B94
:100BBC00A2F13007092F40F28E809DF830200E9163
:100BCC00C2F3400040EAD17161F341028DF830204C
:100BDC005AE00AF102078DF833309DF83130D9070D
:100BEC0040F1498154F8049BB9F1000F07DA9DF8E4
:100BFC003020C9F1000942F004028DF830205A0768
:100C0C0040F1428154F8048BB8F1000F80F241811D
:100C1C009DF831306FF341038DF831304FF0FF38D0
:100C2C0037E12D2B0CD0302B7FF46DAF01225CE71C
:100C3C004FF0010E59E7012657E74FF0010C54E72E
:100C4C00012052E733460CFB0202303A1E4616F8DE
:100C5C00010BA0F13007092FF4D9994293D09DF8DC
:100C6C0030100D92D20F62F341018DF830108AE7EB
:100C7C000B4600224FF00A0CE8E79DF831200233B6
:100C8C0042F004028DF831201F4617F8012B6C2A14
:100C9C0041D025D8682A2BD06A2A46D04C2A4CD071
:100CAC001F4617F8012B9DF83130782A8DF8332028
:100CBC0000F2D980572A4DD8412A03D0453A022A4E
:100CCC0000F2D18004229DF8323062F302038DF8D9
:100CDC00323001239EE006FB01210346303964E7E4
:100CEC00742A26D07A2ADBD106229DF831300DE009
:100CFC005A78682A9DF8312006D1012161F3C60289
:100D0C008DF831209F1CCCE71346022262F3C603F8
:100D1C008DF83130C5E75A786C2A9DF8312001D115
:100D2C000421EBE713460322F0E705229DF831304E
:100D3C00ECE707229DF83130E8E7BDF8303023F4BA
:100D4C00F04323F0020343F4804343F00203ADF875
:100D5C003030A6E7A2F15801202900F2848001A0CE
:100D6C0050F821F0350E0000730E0000730E0000D9
:100D7C00730E0000730E0000730E0000730E000063
:100D8C00730E0000730E0000D10C0000730E0000F7
:100D9C00350E0000F50D0000D10C0000D10C000048
:100DAC00D10C0000730E0000F50D0000730E000056
:100DBC00730E0000730E0000730E00003D0E000059
:100DCC00350E0000590E0000730E0000730E00006B
:100DDC00590E0000730E0000350E0000730E00005B
:100DEC00730E0000350E000001209DF8321003F048
:100DFC00780360F30201402B8DF8321002BF9DF88E
:100E0C00301041F001018DF83010632A31D1003BD4
:100E1C0018BF01239DF83020C2F340010B4363F34C
:100E2C0041028DF83020D8E602209DF83210DEE722
:100E3C0003219DF8322003F07803A3F1400061F305
:100E4C00020243428DF832204341E3E703219DF82F
:100E5C00322013F0780F61F3020214BF0123002338
:100E6C008DF83220D6E79DF8303043F001038DF831
:100E7C0030300023CEE79DF93020002AACBF4FF074
:100E8C00FF39DDF83490BAE69B077FF5C7AEDDF885
:100E9C0038800023CDE90D339DF832309DF8312098
:100EAC0003F00703012BC2F3C30236D1D31E042B6C
:100EBC0020D8DFE803F00307071F1F0054F8040BCA
:100ECC00C11704E0073424F00704F4E80201CDE96B
:100EDC000A019DF8303013F0030654D03B465246BD
:100EEC005946029805F040FB0028C0F243810544A6
:100EFC00BA46DBE554F8040B012A4FEAE071CDE960
:100F0C000A0105D19DF828300A9300230B93E0E7E2
:100F1C00022ADED1BDF92800D2E7022B23D1D31E41
:100F2C00042B13D8DFE803F0030A0A121200002185
:100F3C002068231D0A900B911C46CAE7073424F045
:100F4C000703F3E80201CDE90A01F5E754F8043B85
:100F5C00012A0A934FF000030B93D3D0022AB8D185
:100F6C00BDF82830D0E7042B07D1073424F0070450
:100F7C00F4E80201CDE90A01ABE7032B04BF54F8F6
:100F8C00043B0A93A5E79DF833007828B0D8622873
:100F9C0022D825283FF493AD5828A9D1DDE90A01C0
:100FAC000DF1260300930CAA04AB05F092FA8246CD
:100FBC00B8F1000F0DF126000CDB9DF83020A0EBF2
:100FCC000A036FF3861298458DF8302002D9A8EBEE
:100FDC0003030D9380463DE06338152888D801A1A2
:100FEC0051F820F071100000D5100000FD0E00002B
:100FFC00FD0E0000FD0E0000FD0E0000D5100000DF
:10100C00FD0E0000FD0E0000FD0E0000FD0E0000A8
:10101C00331100000111000005110000FD0E00004D
:10102C00FD0E000049100000FD0E00000111000033
:10103C00FD0E0000FD0E000001110000B8F1000FC4
:10104C00DDF828A00ADB4146504605F0ABFB002634
:10105C000AEB0008BAF1000F0CD149E7504605F035
:10106C009AFBF4E700260A9B0DF111088DF810305D
:10107C000DF1100AA8EB0A0306B101339DF83220DA
:10108C00D0066BD5023352060D9948BF0E9A0B440D
:10109C0048BF9B18B9F1000F79DD9DF83020A9EB02
:1010AC000309C2F380030393530770D4500664D52D
:1010BC0046B159463046029B984700285ADB039BA1
:1010CC0001351E46302359E01E0711D413F01006CB
:1010DC0018BF2026DDE90A23002A73F10001BFF6B0
:1010EC005DAF524263EB43032D26CDE90A2355E74E
:1010FC002B26EFE7002651E70A9848B30DF126039B
:10110C000093002104AB0CAA05F0E3F9BDF83230D2
:10111C00824603F0EF0343F4F04343F01003002640
:10112C00ADF8323044E70A9B072A3FF6E1AEDFE820
:10113C0002F00D04060D08080D0D1D70D8E61D807B
:10114C00D6E62846E917C3E90001D1E61D60CFE6D3
:10115C00DFF8C4800646A8F1050A8BE7110748BFE3
:10116C00013390E7184603935946029B9847002891
:10117C00039B04DA11B0BDE8F08F20234D444A469E
:10118C00002AA5EB090109F1FF39EBDC0D4636B15C
:10119C0059463046029B98470028EBDB01359DF8F9
:1011AC003230D90601D41A0706D559463020029B95
:1011BC0098470028DEDB01359DF83230DB0607D579
:1011CC0059469DF83300029B98470028D2DB013525
:1011DC000D9E2E44731B002B16DC4346524659467B
:1011EC00029805F0C1F90028C4DB0544A944A9EB19
:1011FC000503002B7FF77CAE59462020029B9847B5
:10120C000028B7DB0135F2E759463020029B98479E
:10121C000028AFDB0135DDE70C7100004FF0200238
:10122C00EFF3118382F31188BFF36F8F0121044A0E
:10123C00C2F8401583F31188BFF36F8F00207047FD
:10124C000090035020B1034B800143F00103184779
:10125C00704700BF006E000082B002AB03E90300D0
:10126C009DF80030062B07D10122044BC3F8002552
:10127C00BFF34F8F20BFFDE702B070470040005016
:10128C00F8B505464FF02003EFF3118683F3118870
:10129C00BFF36F8F194804F0E3FB40B918491948A4
:1012AC00812205F0ABF88121154805F073F913483C
:1012BC0004F0F2FB144B1C68002C38BF00245CB10A
:1012CC00124FD4E90132002D08BF13460BB1387808
:1012DC0098472468002CF4D1084804F0CFFB40B99F
:1012EC0007490848AC2205F089F8AC21044805F000
:1012FC0051F986F31188BFF36F8FF8BDC00200203F
:10130C00E1700000A7700000C4020020CC02002095
:10131C00084B10B51C685CB901221A60064B93E8A7
:10132C00030005F041F92046BDE81040FFF7A8BFC7
:10133C0010BD00BF04000020CC02002037B56D4664
:10134C000E4C0146284605F047F995E8030084E861
:10135C000300207880B10022094B1A6003F04CFB8B
:10136C000120FFF78DFF94E80300FFF775FFFFF7EF
:10137C00CFFF03F027FD207803B030BDCC02002056
:10138C0004000020044608B54FF02002EFF311834F
:10139C0082F31188BFF36F8F05F080F9204601F0BE
:1013AC00E1F9034805F02AF800F0ACFEFCE700BFB9
:1013BC001771000010B5074802F0DCFE064C074B15
:1013CC001860204601F094FC2046FFF7EBF8002053
:1013DC0010BD00BF40710000ED130000D4020020CE
:1013EC000A2838B50446074D04D1286883680D21B6
:1013FC005B68984728688368E1B25B689847204629
:10140C0038BD00BFD40200202DE9F0410E4C074638
:10141C00051BC5F347130C255D4305F148000E462B
:10142C002044402105F0DCF8011E08DB074B2C445E
:10143C00C4E91036064B5B59BDE8F04118473846F5
:10144C003346BDE8F0411847EC0200204F6600001F
:10145C001C6E000038B5CCB2012C054608D90849E1
:10146C0008487E2204F0CAFF7E21054805F092F858
:10147C000C212B6904FB0134A06C00F0070038BD73
:10148C0047710000A7700000F8B5CCB2012C0546DE
:10149C00164607690AD91849184840F2531204F045
:1014AC00ADFF40F25311144805F074F84FF02003CF
:1014BC00EFF3118283F31188BFF36F8F0C2303FBBF
:1014CC000471896C11F0C00101D08E4211D101213F
:1014DC00002003FB0473996482F31188BFF36F8FB0
:1014EC0030B90C23696803FB041463689847002027
:1014FC00F8BD4FF0FF30EFE747710000A770000018
:10150C0070B50D4606490446411A4911402205485A
:10151C00FFF7BAFF2B4601462046BDE8704018473E
:10152C00EC020020F000002070B5002201210446DE
:10153C00052000F085FD052000F064FD0F4802F049
:10154C0005F90F4B984215D102F020F926690D4987
:10155C00304604F0A1FF00280BDB0125B56424699B
:10156C00084904F1200004F097FF002801DB00205B
:10157C00656570BD6FF00400FBE700BFC915000086
:10158C000000AD0B346E000001460C2300224B43CF
:10159C00084870B5C4184833D4E91056184422646E
:1015AC0005F03CF82DB132462B46BDE870400248A0
:1015BC00184770BDEC020020F0000020012808B58F
:1015CC0006D0032808D0A0B90F4B9B6C5B0719D130
:1015DC00BDE80840FFF7D8BF0C4940F266220C4822
:1015EC0004F00CFF40F26621BDE80840074804F007
:1015FC00D1BF064940F26A22054804F0FFFE40F2D2
:10160C006A21F1E708BD00BFEC0200204771000021
:10161C00A770000008B54FF02003EFF3118183F39E
:10162C001188BFF36F8F124A136843F0020013F056
:10163C00010310600CD04FF05022D2F80C34D2F8C9
:10164C000C2413F0010303D00A4804F0E7FF012334
:10165C0081F31188BFF36F8F23B1BDE808400020E0
:10166C00FFF792BF0120BDE8084002F0ADB800BF03
:10167C004403002034030020074BD3E8EF2F22F063
:10168C000201C3E8E01F0028F7D1D30702D40120E0
:10169C0002F0EAB8704700BF440300201FB50022D7
:1016AC000123CDE902236B46084ACDF800D0CDF8D2
:1016BC0004D004F0D8FF002805DB4FF4804200234F
:1016CC00684604F08FF805B05DF804FB6D66000009
:1016DC002DE9F843012205464649D1E8EF3FC1E820
:1016EC00E02F0028F9D19BB9434944484B60CB60AB
:1016FC008A60FFF74FF900280ADA4149414840F265
:10170C00262204F07BFE40F226213D4804F042FFE5
:10171C00ADB36B1E012B59D8012D07D14FF05023BF
:10172C00D3F81C3403F00303022B28D005F0AEF9D8
:10173C00044618B9344B1B78002B54D14FF02003BE
:10174C00EFF3118683F31188BFF36F8F01242F4FB2
:10175C00DFF8BC80DFF8BC904FF05022D2F8183480
:10176C00D2F81824D2030CD503F00303022B01D0BA
:10177C00012D06D124B386F31188BFF36F8FBDE81A
:10178C00F883C4B1304600F0CBFC4FF05022D2F8B5
:10179C001835DBB2012BDFD139680029DCD00021F0
:1017AC00396039680221C2F818152022C8F8802146
:1017BC00C9F80030D0E70021212003F013FFE4E743
:1017CC004FF050230222C3F80423D8E70C490D48EC
:1017DC004FF40E7204F012FEBDE8F8434FF40E7194
:1017EC00074804F0D7BE4FF0502302220646C3F838
:1017FC000823ACE748030020DC0200200C03002087
:10180C0047710000A77000005109002004510050DE
:10181C0000E100E00850005010B5064C0648214687
:10182C00172204F0EBFD2046BDE81040172104F010
:10183C00B1BE00BF9E710000A7700000044A13687F
:10184C00C81A20F07F400344136004F013BB00BFA0
:10185C005C0300202DE9F0474FF480374FF000096E
:10186C00860000F1500406F15026A40006F58036DF
:10187C00A4B204F15024D6F84035DFF86C8021F086
:10188C007F4504F580348740D8F804A5A3EB0A0300
:10189C0023F07F432AF07F42012BC6F8402502D16A
:1018AC00132005F0F9F80AF10202AB1A23F07F437A
:1018BC00B3F5000F88BF1546C4F80090236825F0D7
:1018CC007F43C8F84473C6F84035D8F804359A45B8
:1018DC0006D0EB1A023B23F07F43B3F5000F01D87F
:1018EC00BDE8F0872B46CFE700500150F8B5002437
:1018FC0027460F4E0F4B104A18461D6804B1F8BD11
:10190C00D2F80413C903FAD531680029F7D0346032
:10191C0031684FF48031C2F848130124D2F84015D5
:10192C0025B100205A681F60A847E3E70560E6E789
:10193C0040510150500300200050015038B5002494
:10194C004FF480334FF400120D4D0121C5F80845BA
:10195C00C5F804330B4B1520C3F88021224600F048
:10196C006FFB152000F04EFB0123074A0220136089
:10197C00064A2B601360FFF7ABFE204638BD00BF54
:10198C000050015000E100E00850015058030020C5
:10199C00134BB0F1FF3F08BF1846013800281CDD7F
:1019AC009842A8BF18460F4BD3F804250E4B196864
:1019BC00521A12F4000F18BF002022F07F4301339B
:1019CC000A4A03440A48106000205060044A9342BB
:1019DC0094BFC9188918FFF73DBF0020E3E700BF8B
:1019EC00FFFF7F00005001505C03002050030020DB
:1019FC004918000038B54FF02003EFF3118583F33D
:101A0C001188BFF36F8F154804F02AF840B91449B8
:101A1C001448812204F0F2FC8121114804F0BAFD33
:101A2C000E4804F039F8104B0C48D3F804450F4B12
:101A3C001B68E41A24F07F4404F020F840B90849EC
:101A4C000848AC2204F0DAFCAC21054804F0A2FDF5
:101A5C0085F31188BFF36F8F204638BD60030020DB
:101A6C00E1700000A7700000005001505C030020E2
:101A7C00034610B588B08DF807300DF107030293BB
:101A8C000123094ACDE905131068039300220723AB
:101A9C008DF810208DF81C30836802225C6802A936
:101AAC004623A04708B010BD6403002070B586B073
:101ABC000E460DF1070105461446FFF7D9FFC0B9D4
:101ACC000D4B9DF80720186802AB0393022322EA02
:101ADC00060222438DF807208DF808508DF8092056
:101AEC0004938DF81430836801225C6803A94623A3
:101AFC00A04706B070BD00BF6403002008B502F01B
:101B0C0039FB044B002818600CBF6FF0120000204A
:101B1C0008BD00BF6403002000280DDB012243092F
:101B2C0000F01F0002FA00F0044A203342F82300B0
:101B3C00BFF34F8FBFF36F8F704700BF00E100E022
:101B4C00F7B500281C4614BF4FF400534FF4004364
:101B5C008A4215463FD803B0F0BD3A46002837D02C
:101B6C0002F5E07746F82740571CBD42F5D15D439E
:101B7C001A484B43009504F041FC194B14F0100F1C
:101B8C001849194808BF194604F038FC14F0040F22
:101B9C0014BF72212D21154804F030FC14F0020FF3
:101BAC0014BF77212D21114804F028FC14F0010FEB
:101BBC000CBF2D2178210D4804F020FC6C210B4822
:101BCC0004F01CFC0A4803B0BDE8F04004F016BC5D
:101BDC0002F5C077C6E70A46064EBFE72072000042
:101BEC00147200000B720000297300003A7200009E
:101BFC00C67C00000030005030B54FF480244FF00C
:101C0C00041585B04FF48021254804F0F7FB2168BA
:101C1C00244804F0F3FB2968234804F0EFFB10225E
:101C2C000021684604F00EFE236868460093029477
:101C3C0000F0E8FF012001F015F8002000F0FEFF95
:101C4C00002001F023F80121002001F03DF801F003
:101C5C0031F816482C6804F0D1FB0820FFF75CFF24
:101C6C00134A24F00104D2F82038002B07DA03F0D1
:101C7C000303023B012B9CBF0E4BC2F82038012101
:101C8C00082004F041FDBFF34F8FBFF36F8F640842
:101C9C0064002046214622462346FEF747FC00BF3F
:101CAC003D720000547200006972000087720000DF
:101CBC0000300050000100802DE9F843394804F051
:101CCC009DFB00210024084640F217130822FFF761
:101CDC0037FF40F20713202208210020FFF730FFC6
:101CEC00314804F08BFB314804F088FB40F21713A9
:101CFC00082200210120FFF723FF2D4D40F207138E
:101D0C00202208210120FFF71BFF274804F076FB57
:101D1C00C5F88044274804F071FB274EC5F8C04431
:101D2C00264F274DDFF8A88095F805902146B9F18C
:101D3C00000F14BF33463B4640462A6804F05EFB56
:101D4C00B9F1000F0CD11F48013404F057FB1C2CC7
:101D5C0005F10805E8D11448BDE8F84304F04EBB82
:101D6C0095F8049095F90400FFF7D6FE4FEA890325
:101D7C0003F1A04303F54053B9F1310FD3F8002818
:101D8C0006D0002A07DA02F00302023A012A02D82E
:101D9C000D4AC3F800280121484604F0B5FC0B4855
:101DAC00D2E700BFBD720000C67C0000E1720000EB
:101DBC000030005003730000B27200001872000073
:101DCC00406E00002C730000000100803373000093
:101DDC001F730000014804F089B900BF206F000098
:101DEC0008B5B0B14368042B0DD100220368D3E8C9
:101DFC00EF1F012903D1C3E8E02F0028F7D10748D2
:101E0C0008BF104608BD3BB1006802F0B9FC0020C9
:101E1C00F8E76FF4E040F5E70148F3E7E98FFFFFDF
:101E2C00EA8FFFFF10B5044618B90D4B0D485B68DF
:101E3C009847616808290DD031F004030AD011F0DD
:101E4C00020108D02146084802F076FB00232360EB
:101E5C000023636010BD1422206804F0F3FCF7E744
:101E6C0090000020447400006803002010B5044664
:101E7C0018B9164B16485B6898476368042B23D037
:101E8C00082B21D0CBB92368BBB94FF0FF324FF0F0
:101E9C00FF3321460F4802F0F5FA08B923681BB945
:101EAC000A4B0D485B68984714220021206804F007
:101EBC00C9FC636843F002036360206804F0BFFD53
:101ECC00636843F00103636010BD00BF9000002005
:101EDC0044740000680300206A74000008B5E8B17F
:101EEC004368042B0CD101220368D3E8EF1F0029AF
:101EFC0003D1C3E8E02F0028F7D10BD1002008BD97
:101F0C0053B100684FF0FF324FF0FF3302F066FB25
:101F1C000028F3D00348F2E70348F0E76FF4E04001
:101F2C00EDE700BFE98FFFFFEA8FFFFF08B5064919
:101F3C0040231422054804F066FDBDE8084004491E
:101F4C00044804F025B900BF880300206803002072
:101F5C00386F0000286F0000094A0A499368096825
:101F6C005867996708494B6843F080534B600023CE
:101F7C0083F31188BFF36F8F9368986F704700BF1E
:101F8C00EC080020E46F000000ED00E013498A68C3
:101F9C004FF030001044EFF3098C80E8F01F202044
:101FAC0080F31188BFF36F8F0D4F4FF000664A6AB4
:101FBC008A603E60506F0023536780F3118802F1F2
:101FCC00300090E8F01F8CF3098802F1000004B592
:101FDC0004F0C9FBBDE8044070470000EC08002089
:101FEC0004ED00E01EF0040F0CBFEFF30880EFF3DC
:101FFC000980816911F8021C0229FFD001B504F097
:10200C00B6FB01BD43B2002B08DB012200F01F0020
:10201C0002FA00F0024A5B0942F82300704700BF45
:10202C0000E100E0054B420953F82220012300F0A7
:10203C001F0003FA00F01040704700BF00E100E001
:10204C0038B54C1C072C054608D90D490D485822AB
:10205C0004F0D4F958210A4804F09CFA6BB2002B16
:10206C00ACBF03F16043084B4FEA4414E4B2ABBF7E
:10207C0003F5614305F00F0583F800435C5538BD4B
:10208C0097740000A770000014ED00E042F8203CAB
:10209C00009B0B4942F81C3C019B21F0010142F8CA
:1020AC00183C029B42F8081C42F8143C4FF0807319
:1020BC0042F8043C0023203A02654367704700BF96
:1020CC00CB640000044608B50E46154600F0B0FB84
:1020DC00084B9C60636E83F30B88284686F3098853
:1020EC00002163B681F31188BFF36F8F00220023A8
:1020FC0004F0E5F9EC080020014910220A60704751
:10210C0010ED00E072B6404080F31188BFF36F8F82
:10211C00BFF34F8F30BF62B6BFF36F8F704700BFF6
:10212C0072B6494081F3118820BF80F3118862B6E2
:10213C00704700BF37B505460C46C9B18B681048CF
:10214C000093D1E90023452104F039FA6369452154
:10215C000093D4E903230B4804F031FA4521E269DA
:10216C00094804F02CFA4521A269084804F027FA22
:10217C002146284603B0BDE8304002F027B800BF26
:10218C00CD74000001750000357500004975000024
:10219C0030BFFFF7FDBF00BF0B4A08B50B4B22F059
:1021AC007F029A60BFF34F8FBFF36F8FD3F88820F5
:1021BC0022F47002C3F8882002F07AF803F080FC55
:1021CC0000F018FB02F098F80000000000ED00E0B1
:1021DC0001B572B60B4A106A00281EBF00211162AD
:1021EC0004F00AFC62B6EFF30580A0F110004FEA90
:1021FC00C0000549014409C99847BDE8014003499D
:10220C0008470000EC0800202C6B0000552700004C
:10221C00002080F31488BFF36F8F002080F30A88AE
:10222C0080F30B8804F0BEF900200E490860BFF360
:10223C004F8F0D4880F3088800F0B6FA202080F309
:10224C0011880A484FF40061401880F30988EFF3B5
:10225C0014800221084380F31488BFF36F8FFFF7BB
:10226C009BFF000094ED00E058190020981A002004
:10227C00EFF30880EFF3098101B5724600F070F9B5
:10228C0001BD00BF70B52B4C06460D462A484521B2
:10229C0004F095F9A26AD00603D54521274804F02D
:1022AC008EF9A36A190703D54521254804F087F94F
:1022BC00204CA36A9A0710D54521224804F07FF9D7
:1022CC00626BA36A1B0608D545211F4804F077F9F9
:1022DC001EB1A36A23F08003A362164CA26AD60730
:1022EC0003D54521194804F06AF9A36A980603D569
:1022FC004521174804F063F90E4B9A6AD10602D4B3
:10230C009A6A92070DD59B6ADB060AD511491248C9
:10231C0040F24F1204F072F840F24F110D4804F0E5
:10232C0039F90020034A936A43F0FF039362287043
:10233C0070BD00BF00ED00E07C75000097750000DB
:10234C00CF750000E7750000047600001F760000D2
:10235C004376000077760000A770000070B5234C20
:10236C0006460D462248452104F029F9A26AD104FB
:10237C0003D545211F4804F022F9A36A1A0503D599
:10238C0045211D4804F01BF9184CA36A9B0510D578
:10239C001A48452104F013F9A26BA36A180408D556
:1023AC004521174804F00BF91EB1A36A23F400432E
:1023BC00A3620E4CA36A590503D54521114804F0BC
:1023CC00FEF8A36ADA050BD545210F4804F0F7F89F
:1023DC000020064A936A43F47F439362287070BDD1
:1023EC00A36A9B04F4D545210848EFE700ED00E013
:1023FC00B1760000CC760000CF750000E2760000CC
:10240C00007700001A7700003A770000437600004E
:10241C0038B5214C4521214804F0D1F8A26A950128
:10242C0003D545211E4804F0CAF8A36ADC0103D584
:10243C0045211C4804F0C3F8174DAC6A14F4801401
:10244C0004D04521184804F0BAF80224AB6A1803EA
:10245C0003D54521154804F0B2F80F4DAA6A510373
:10246C0003D54521124804F0AAF8AB6A9A0303D5A8
:10247C004521104804F0A3F8074DAB6ADB0303D5E4
:10248C0045210D4804F09BF8AB6A20466FEA0343E4
:10249C006FEA1343AB6238BD00ED00E057770000E4
:1024AC00747700008C770000AB770000DA770000BF
:1024BC00FD770000277800004678000010B51E4C10
:1024CC001E48452104F07BF8A2696369580603D5C0
:1024DC0045211B4804F073F86369D90708D54521D9
:1024EC00184804F06CF8636943F0FF03636110BD96
:1024FC0063699A0702D545211348F2E763695B07C4
:10250C0002D545211148ECE76369180702D545212E
:10251C000F48E6E76369D90602D545210D48E0E787
:10252C0063699A0602D545210B48DAE763691B06F5
:10253C00D9D545210948D4E7D0ED00E076780000E4
:10254C0094780000A9780000C4780000E7780000B7
:10255C0007790000297900004379000062790000B6
:10256C002DE9F041624B0D465C6800268AB0C4F33D
:10257C00080786F31188BFF36F8F02F07F43B3F126
:10258C007F4F1ED112F0010339D012F0400302F03C
:10259C00080840F0A680520754BF05461E462A681C
:1025AC00544B58BF01261344012B98BF2A6C45216C
:1025BC00514804F004F8B8F1000F1DD0EFF38985F1
:1025CC005DB940F2DB324D494D4803F017FF40F244
:1025DC00DB314A4803F0DEFF00250023FA1E984643
:1025EC008DF807301346092B69D8DFE803F00A5938
:1025FC005D38616868686865EFF38885E0E71E46BA
:10260C00DFE745213F4803F0DAFF394B8DF80780AF
:10261C00DC6A14F0020404D045213B4803F0CFFFE0
:10262C0048E0DB6A5B0022D54521384803F0C7FF40
:10263C00374B1B7833B101200DF10701FFF722FE58
:10264C00044614E0334B1B782BB101200DF107012C
:10265C00FFF784FEF4E7304B1B889BB213B1FFF7F6
:10266C00D7FEEDE72D4B5B690BB1FFF727FF9DF80C
:10267C00073093B92022294602A804F0B8F8099B28
:10268C0056B3C3F3080222B96FEA53236FEA43230C
:10269C000993204602A9FFF74DFD0AB0BDE8F08171
:1026AC0000200DF10701C9E700200DF10701CFE76C
:1026BC00FFF704FF0024DAE745211948AEE7194972
:1026CC0014F4F87F184A194808BF0A46A7F11003FA
:1026DC00452103F074FFEDE723F4FF7323F00103AE
:1026EC00D6E7B8F1000F7FF46BAF0546012667E71C
:1026FC0000ED00E0A6ED0501A8790000777600005A
:10270C00A7700000CC790000E87900000E7A000078
:10271C0028ED00E029ED00E02AED00E0D0ED00E02E
:10272C00327A00007A7900008F7900005B7A000021
:10273C00044B5A6942F010025A615A6942F48062A1
:10274C005A61704700ED00E0044B9968586A884262
:10275C0003D003494FF080520A607047EC08002008
:10276C0004ED00E0BFF34F8F0549064BCA6802F435
:10277C00E0621343CB60BFF34F8F00BFFDE700BF98
:10278C0000ED00E00400FA0500231846054A116824
:10279C00C1F307218B4200D1704793601061013364
:1027AC00F8E700BF90ED00E010B572B6002484F39A
:1027BC001388FFF7E9FF0E4A234611464FF0FF340A
:1027CC0003F120000133102B42F82040F8D10023F4
:1027DC004FF0FF3003F160020133102B41F822005F
:1027EC00F8D162B6BFF34F8FBFF36F8F10BD00BF30
:1027FC0000E100E0002320210348C2180133412BE3
:10280C0082F80013F9D1704700E100E0064B9B6899
:10281C00834207D1EFF3058323B1044A536843F095
:10282C008053536002F014BFEC08002000ED00E070
:10283C001FB5094C094A23460121094800F05EF9ED
:10284C0000230393074B0121E41A01A8019302947E
:10285C0000F070F904B010BD00000420000000204E
:10286C004C6F0000B801002010B50B680C7A23F0F7
:10287C001F0204F01F031A43CB68640923F01F03E3
:10288C00044943EA440343F001038860CA600B61C6
:10289C0010BD00BF90ED00E030B54B680C6885B002
:1028AC000A898D7A0094013B24F01F04234402F022
:1028BC001F0242EA451223F01F030F2804468DF82D
:1028CC000820039309D902464521064803F077FEF8
:1028DC006FF01504204605B030BD6946FFF7C4FF04
:1028EC00F8E700BF777A00002DE9F04F89461446CF
:1028FC0006464FF00008524D85B0C84523DA77687C
:10290C00002F42D01F2F17D9FB0615D1D6F800A0E7
:10291C001AF01F0F10D1504603F034FF834607EB1B
:10292C000A00013803F02EFF834510D06FF0150B11
:10293C005A464521434802E042464521424803F0AD
:10294C003EFE6FF01504204605B0BDE8F08F1BF17C
:10295C00160FEDD0631E5B45EADBC5F808B0E968DD
:10296C00C5F808B02F6921F01F01D6E900321A44CE
:10297C00994247F01F0702F1FF3A1CD1574508D185
:10298C0031465FFA8BF0FFF787FF08F101080C3630
:10299C00B3E73146C5F808B0EB6822F01F0203F02C
:1029AC001F031A43EA60E0B2FFF776FF10F1160F2F
:1029BC00C7D0441CE9E7013B5745E0B223F01F03A5
:1029CC00C5F808B006D12A69314602F01F0213433C
:1029DC002B61E9E7296901F01F010B432B6131469B
:1029EC00FFF75AFF10F1160FABD0C5F808B0EA6824
:1029FC009DF80830013F62F304038DF808302B6911
:102A0C009DF808205B0863F347128DF80820D6E97F
:102A1C0000321344009323F01F033B44441CA3EBEC
:102A2C000A0AE0B22AF01F030F28039303D90246C7
:102A3C004521064883E76946FFF716FFB9E700BF53
:102A4C0090ED00E0CA7A0000A27A0000777A0000CC
:102A5C000522034B5A60BFF34F8FBFF36F8F704744
:102A6C0090ED00E0BFF35F8F0022014B5A6070477E
:102A7C0090ED00E070B51B4D2E68102E0DD94FF463
:102A8C009E721949194803F0B9FC17484FF49E710E
:102A9C0003F080FD4FF0FF3070BDFFF7E3FF002027
:102AAC00134C144A2263864215D1134B1E70FFF748
:102ABC00CFFF2368C3F30723102B0AD00A490B4816
:102ACC004FF4CF7203F09AFC4FF4CF71064803F029
:102ADC0061FD0020E0E7696801EB0011FFF7C4FE1F
:102AEC000130E0E7586F0000F27A0000A770000098
:102AFC0090ED00E0AAFF44005009002010B50A4CEC
:102B0C002278FFF7F1FE207016300CD107490848E7
:102B1C0040F2051203F072FCBDE8104040F20511C2
:102B2C00024803F037BD10BD50090020F27A0000B6
:102B3C00A77000002DE9F74F2D4D8A4606464FF041
:102B4C000008AB462B4FD04502DB03B0BDE8F08F3D
:102B5C00D6F80490B9F1000F44D0316808460191C1
:102B6C0003F010FE0199044609EB0100013803F053
:102B7C0009FE84424FF014021F4B13D06FF0150363
:102B8C0002FB08F84BF8083040F215121B491C48A0
:102B9C0003F034FC40F21511184803B0BDE8F04FB7
:102BAC0003F0F8BC14F1160F2C60EDD01978A1428B
:102BBC00EADD02FB08B0BC60BC60FC6800F10801F7
:102BCC00007B64F30400087138690C79400860F3E9
:102BDC0047140C71F96821F01F016960396921F003
:102BEC001F01296108F1010814350C36ABE700BF51
:102BFC008808002090ED00E050090020F27A0000D7
:102C0C00A770000082680C4B9A60036883F3888875
:102C1C00436883F38988027B02F00101EFF394830C
:102C2C0023F00303920748BF43F0020309B143F0BA
:102C3C00010383F39488704700ED02E0084AD368DF
:102C4C0048B123F400531B041B0C43F0BF6343F443
:102C5C000033D36070479BB243F40053F5E700BFD9
:102C6C0000ED00E0084AD36840B19BB243F48043C6
:102C7C0043F0BF6343F40033D360704723F48043C5
:102C8C001B041B0CF4E700BF00ED00E0084AD368FE
:102C9C0040B19BB243F0080343F0BF6343F40033ED
:102CAC00D360704723F008031B041B0CF4E700BF30
:102CBC0000ED00E0034AD2F88C3043F44063C2F8D4
:102CCC008C30704700ED00E0084B1A6818B142F0E8
:102CDC0001021A60704722F001021A601A6811B1E1
:102CEC0042F00202F5E722F00202F2E7D0ED00E03A
:102CFC00014B1860704700BF2800002010B52A480F
:102D0C00FEF7FCFE044658B145210246274803F065
:102D1C0056FC22464521264803F051FC204610BDA6
:102D2C0003F0D5FC044618B1024645212148EEE7D4
:102D3C0003F0D9FC044618B1024645211E48E6E7CB
:102D4C00012003F0D5FC044618B1024645211B486E
:102D5C00DDE7012003F0C0FC04460028D9D1072090
:102D6C0003F0A3FC044618B1024645211448CEE7F3
:102D7C001F2003F094FC044618B10246452111486B
:102D8C00C5E7072003F09CFC044618B10246452118
:102D9C000D48BCE7012003F08EFC04460028BDD092
:102DAC00024645210948B2E7417B0000477B000001
:102DBC00C87C0000757B0000A27B0000D57B000066
:102DCC00097C00003B7C00006B7C0000A47C0000B4
:102DDC0010B50446002201210A20FFF731F9606882
:102DEC002369094A00F1080100F028FE074B9842BC
:102DFC0007D007484521226803F0E1FB6FF00F0074
:102E0C0010BD0020FCE700BF612E00000000AD0BE0
:102E1C00047D0000CA0708B5436809D4C1F3420217
:102E2C00012A08D0022A0FD04521094803F0C7FB1C
:102E3C006FF0150007E04FF0CC721B68C3F8242527
:102E4C0003690020596208BD4FF0C8621B68F5E7A2
:102E5C00297D00000378012B08D0022B08D04BB938
:102E6C00054B0B6201F1100002F086BC034BF8E736
:102E7C00034BF6E7034BF4E70000AD0B0100AE0B80
:102E8C000200AE0B0100AD0B2DE9F04F934614225E
:102E9C001D4604698BB0064689460DEB02000021E5
:102EAC00D4F82C80B4F828A003F0CCFC8DF8155085
:102EBC004FF0FF324FF0FF33204602F093FC3069A5
:102ECC00103000270022002302F08CFC706800F008
:102EDC0023FE4D463C465F4501D3002443E0297A4E
:102EEC000B0700F19380BAF1000F0DD07B1C9B45B2
:102EFC000AD9880708D42B7D81EA030202F001026B
:102F0C0003F0040313431FD0002C36D100242B688C
:102F1C0008936B6806932B7A706803F0010213F028
:102F2C00020F8DF8142005A90CBF2022002200F0FE
:102F3C004DFE384B984234D00B3398420CBF6FF097
:102F4C000F046FF004040EE001236A681019504559
:102F5C0015D91346452122462F48CDF800A003F081
:102F6C002EFB6FF01B04706800F0FEFD306902F060
:102F7C0003FC20460BB0BDE8F08F0023E5E7C90742
:102F8C0006D4296808EB0400039303F030FC039B80
:102F9C006A68144423BB002CB8D0CDF8208006946A
:102FAC00B9E7306910304FF48042002302F01AFC6C
:102FBC0038B13A464521194803F001FB6FF004047F
:102FCC00D1E733691A6A134B9A4205D03B46452127
:102FDC00134803F0F4FAF1E72B7ADB0703D400244F
:102FEC0001370C3577E7089B9845F8D10C2303FB88
:102FFC0007935A680C3B9442F1D3A41AD86808EB97
:10300C000401039303F0F3FB039BF2E76FF022043C
:10301C00A9E700BF0000AD0B407D0000677D0000FC
:10302C00967D0000F0B54B79012B2AD0032B25D1CE
:10303C0010268B79032B21D1CC792CB1012C1DD1ED
:10304C0043685B689B0719D00A7912B1022A15D123
:10305C000E220B684568B3F5164F2D6865D02DD838
:10306C00B3F5165F64D016D8B3F5966F62D00AD854
:10307C00B3F5967F61D0B3F5167F61D06FF0220067
:10308C0052E00026D5E7B3F5166F5CD0B3F5965F2A
:10309C00F4D1374B3CE0B3F5E14F57D007D8B3F53B
:1030AC00615F55D0B3F5964FE8D1324B30E047F61F
:1030BC001227BB42E2D14FF4000329E0B3F5613F84
:1030CC0048D013D8B3F5963F47D009D84DF6C02752
:1030DC00BB4244D0B3F5614FD0D14FF46B0317E032
:1030EC00B3F5E13FCAD14FF0EB7311E0B3F5612FAB
:1030FC0038D008D8204FBB4237D0B3F5E12FBDD123
:10310C004FF0E86304E01D4FBB42B7D14FF0805342
:10311C00C5F82435036934432243043303C9C5F885
:10312C006C2583E803000020F0BD4FF41D03EFE78E
:10313C00134BEDE74FF49E23EAE74FF4A033E7E798
:10314C004FF41C33E4E74FF41D23E1E70D4BDFE7AD
:10315C000D4BDDE74FF06C73DAE70C4BD8E74FF40F
:10316C006503D5E74FF07063D2E74FF08063CFE78C
:10317C0000B0130000A04E0090D0030040420F009E
:10318C000050270000C0750000F03A0000903A0192
:10319C00036810B55A090CBF4FF0FF32002203F040
:1031AC001F0322FA03F3DB0704460AD40E490F4827
:1031BC0040F21A2203F022F940F21A210A4803F0D5
:1031CC00E9F9236803F01F025B0922600AD0064963
:1031DC00064840F21F2203F011F940F21F21024869
:1031EC0003F0D8F9024810BDCA7D0000A77000009A
:1031FC0000258450F8B505460F46066903F046FCD9
:10320C0010B92C4B1B7883B94FF02003EFF31184CA
:10321C0083F31188BFF36F8F284603F082FB28BB22
:10322C0084F31188BFF36F8FEEE76424284603F014
:10323C0078FB70B9012003F0A3FB013CF6D100210F
:10324C00212002F0CFF9F0E784F31188BFF36F8FE0
:10325C00F5E74FF02003EFF3118483F31188BFF3EC
:10326C006F8F284603F05DFB0028EDD0012206F895
:10327C00107F69680B68C3F84465C3F848250022C1
:10328C00C3F82021D3F82001C3F85821D3F85821D2
:10329C004A68D20641BF0822C3F800254FF48002C9
:1032AC00C3F8042301229A6084F31188BFF36F8F53
:1032BC00F8BD00BF510900202DE9F3474FF000087D
:1032CC00436807691C680B68C4F8008506463860BB
:1032DC0001A80D460193FFF75BFF0123019A934070
:1032EC0083602B6801A80193FFF752FF0322019B17
:1032FC00803340F823206B68591C07D001A8019338
:10330C00FFF746FF019B803340F82380D5E900236B
:10331C00C4F80C25C4F81435AB685A1C08D001A8A5
:10332C000193FFF735FF0022019B803340F82320E7
:10333C00EB68581C11D001A80193FFF729FF01235A
:10334C00019A93408360EB6801A80193FFF720FF7B
:10335C000322019B803340F823203169D5E90232E6
:10336C003046C4F808250431C4F81035FFF75AFE6E
:10337C00804680B973685B6819073AD507F112006B
:10338C0000F00CFB304B984209D045212F4803F03C
:10339C0016F96FF00408404602B0BDE8F08714F54A
:1033AC00907A97F812900AD129492A484FF4F5726D
:1033BC0003F024F84FF4F571254803F0EBF849F0CD
:1033CC00004914F10C0FCAF880900AD12049214809
:1033DC004FF4F87203F012F84FF4F8711C4803F034
:1033EC00D9F80123C4F88C90BA7C93401A4AC2F8DD
:1033FC0004350823C4F800356B6801330CD0002366
:10340C00C4F81031D4F8103107F11103C4F8343575
:10341C000123C4F838352360736810375B681A07CA
:10342C005CBF4FF48072C4F80423DB0644BF4FF436
:10343C008003C4F804330023C4F84475C4F8483539
:10344C000123A360E360A6E70000AD0BFD7D000047
:10345C00217E0000A77000000070015030B585B0CF
:10346C006C460546084B0FCB84E80F000022012167
:10347C000820FEF7E5FD0820FEF7C4FD214628468E
:10348C00FFF71AFF05B030BDC06D000030B585B038
:10349C006C460546084B0FCB84E80F000022012137
:1034AC000920FEF7CDFD0920FEF7ACFD214628468C
:1034BC00FFF702FF05B030BDD06D00000348452179
:1034CC0008B503F07CF80020FFF74CF9707E000083
:1034DC002DE9F0430025214C214E54F8048CDFF8E3
:1034EC00889085B0A84503D8002005B0BDE8F083CE
:1034FC00636A96E807001F6801AB83E807000C229B
:10350C001946384603F063F990B98FB1636A2169A3
:10351C001B681A6991420BD19A69A169914207D82B
:10352C00E169914204D962695B6932EA03030AD00A
:10353C00276A67B10B4802F061FF404080F31188A5
:10354C004FF0040002DFE36801351C44CAE748462B
:10355C0002F054FF636A1F60F5E700BF3C020000F5
:10356C00E06D0000927E0000BB7E0000054B1868E9
:10357C00043B1B68092B03D1431E5842584170472A
:10358C00002070473401FF004A4A08B5136843F025
:10359C0002031360484B1B68092B01BF4FF05023EB
:1035AC000022C3F81421C3F81821FFF7DFFF30B154
:1035BC000123424A1360A2F63822C2F878353E4BFA
:1035CC001B68092B07D13E4B1B68012B1EBF012228
:1035DC003C4BC3F87825FFF7C9FF10B10E223A4BCC
:1035EC001A60354B1B68092B04D10022374B1A602B
:1035FC0001225A600022D30003F57F03D3F8001395
:10360C00013108D0D3F800130132D3F80433B2F5EA
:10361C00807F0B60EFD12E4BDA69D1073BD52D4B58
:10362C001946D3F80024012AFBD1C3F80425D1F89C
:10363C000034012BFBD1264BDA69D20708D5DA69A5
:10364C00244922F00102DA61D1F80024012AFBD1CD
:10365C001A6A01320AD11A6A22F0FF0242F02002E1
:10366C001A621C4AD2F80034012BFBD10022194BF0
:10367C00C3F80425D3F80024012AFBD1BFF34F8FE4
:10368C001549164BCA6802F4E0621343CB60BFF3D2
:10369C004F8F00BFFDE71B6A0133C0D00E4AD2F832
:1036AC008C3043F44063C2F88C300D4B0D4A1A60D9
:1036BC0008BD00BFD0ED00E03001FF00384A0050DB
:1036CC003401FF0000400050E4AE03500C470050A2
:1036DC000080FF000090035000ED00E00400FA05AC
:1036EC00840000200090D00308B570B101281BD0D5
:1036FC0040F242321349144802F080FE114840F265
:10370C00423102F047FF00200DE031B14FF0502361
:10371C00D3F8183403F003030B704FF05023D3F895
:10372C001804C0F3004008BD31B14FF05023D3F85A
:10373C000C3403F001030B704FF05023D3F80C043E
:10374C00EFE700BFEE7E0000A770000010B5044646
:10375C0040B909490948B32202F050FEB32106488A
:10376C0002F018FF064B1A7922B9012205481C6099
:10377C001A7110BD0448FCE7227F0000A7700000FE
:10378C00A80800200000AD0B0C00AD0B08B50B4BCE
:10379C001B7943B90A490B48CC2202F02FFECC21ED
:1037AC00074802F0F7FE0520FEF73CFC20B9BDE807
:1037BC0008400520FEF726BC08BD00BFA808002065
:1037CC00227F0000A7700000224B13B51B79044622
:1037DC0053B9214921484FF4847202F00FFE4FF483
:1037EC0084711D4802F0D6FE6CB1012C28D04FF428
:1037FC009D721949194802F001FE4FF49D7116484B
:10380C0002F0C8FE18E020460DF10701FFF76CFF2F
:10381C004FF0502390B19DF80720022A0ED1C3F827
:10382C00182500220E4B1A601B6802224FF0502301
:10383C00C3F8042301229A6002B010BD0122EEE706
:10384C000022084B1A601B684FF05023C3F8044346
:10385C001C60F1E7A8080020227F0000A770000080
:10386C0004510050005100502D4B13B51B790446E8
:10387C0053B92C492C4840F2411202F0BFFD40F2E2
:10388C004111284802F086FE74B1012C27D025493D
:10389C00254840F25D1202F0B1FD40F25D11214865
:1038AC0002F078FE02B010BD4FF050230222C3F894
:1038BC0008230122C3F8044142F2107403F5827309
:1038CC001B681A4B1A6000210846FFF70DFF0028F1
:1038DC00E8D0012003F054F8013CF4D1E2E74FF0BA
:1038EC0050230022C3F80843C3F8002103F580736A
:1038FC001B680F4B1C608DF8074042F210740120BE
:10390C000DF10701FFF7F0FE0028CBD09DF8070062
:10391C000128C7D103F034F8013CF0D1C2E700BF55
:10392C00A8080020227F0000A77000000C50005057
:10393C0004500050164B07B51A6852B1002018609D
:10394C001B6801224FF05023C3F80823114B1B684E
:10395C009847114B1A688AB100200DF107011860C5
:10396C001B68FFF7C1FE9DF807104FF0502301298B
:10397C004FF0020205D1C3F81825996003B05DF829
:10398C0004FBC3F80823034B01201B689847F5E799
:10399C0000510050A8080020045100500B4A70B58B
:1039AC001668F14389B271B10025ECB221FA04F327
:1039BC00DB0705F10105F8D50123A340334304705F
:1039CC000348136070BD0348FCE700BFB00800203B
:1039DC000000AD0B0200AD0B036810B55A090CBF0B
:1039EC004FF0FF32002203F01F0322FA03F3DB0730
:1039FC0004460AD40E490F4840F21A2202F0FEFC8B
:103A0C0040F21A210A4802F0C5FD236803F01F0298
:103A1C005B0922600AD00649064840F21F2202F0D8
:103A2C00EDFC40F21F21024802F0B4FD024810BD2B
:103A3C00CA7D0000A7700000002584502DE9F347D3
:103A4C008046924699460C4641B92E492E48DE22B4
:103A5C0002F0D4FCDE212B4802F09CFDD4E90023BB
:103A6C009A4208D127492848DF2202F0C7FCDF21FF
:103A7C00244802F08FFD342698F80470234D7E43C1
:103A8C00A91991F82D30002B3AD18B6081F8303088
:103A9C0081F82F30637BC1F8049081F832302368B1
:103AAC0045F806A001A840F20C690193FFF794FFBA
:103ABC00019B803340F82390636801A80193FFF7C2
:103ACC008BFF019B803340F82390D8F80000D4E999
:103ADC000023C0F80825C0F80C35A368C0F82435BD
:103AEC00AB591BB140F30730FEF78CFA342303FBC0
:103AFC0007550123064885F82D3002B0BDE8F08744
:103B0C000448FAE75F7F0000A7700000B4080020AB
:103B1C000000AD0B0500AD0B342270B50F4D0479D0
:103B2C00064602FB045292F82D20012A0AD00C49B9
:103B3C000C484FF4A37202F061FC4FF4A3710848D7
:103B4C0002F028FD06223368C3F80025342303FB5A
:103B5C000454022384F82D3070BD00BFB40800203B
:103B6C005F7F0000A7700000342270B5134D0479FC
:103B7C00064602FB045292F82D2052B91049114806
:103B8C0040F2511202F03AFC40F251110C4802F092
:103B9C0001FD3422002102FB045433680A4AA1605F
:103BAC00C3F80823D3F8002222F4BC52C3F8002235
:103BBC00C3F80015012384F82D3070BDB408002023
:103BCC005F7F0000A770000002029C012DE9F04706
:103BDC00037907460D4616463BB94B68B3F5805F33
:103BEC0003D28B68B3F5805F0AD3B649B64840F26E
:103BFC00612202F003FC40F26121B24802F0CAFCDF
:103C0C00342497F80490B14B04FB09F41A599846E4
:103C1C0002BB2B78022B0ED02B78032B1AD140F23F
:103C2C006A22A849A84802F0E9FB40F26A21A5489B
:103C3C0002F0B0FC0EE040F26922A249A24802F068
:103C4C00DDFB40F269219F4802F0A4FC58F80430D7
:103C5C00002BE1D03C683427002307FB098787F849
:103C6C002E30EB6803F06043B3F1005F03D0984F44
:103C7C003846BDE8F087974BC4F8083397F82F30D7
:103C8C0003F0FF0A23B1BB68934FC4F80433EFE78A
:103C9C0016F0140F0CBF01230023AE4687F82F300B
:103CAC0007F10C0CBEE80F00ACE80F00DEF800309A
:103CBC003E62CCF80030C6F3001387F830306B78D6
:103CCC00C4F88835C4F804A1D4F80431C4F824A18C
:103CDC00D4F82431C4F860A1D4F86031C4F848A1F8
:103CEC00D4F8483116F0010318BF0123C4F850353D
:103CFC0016F0020318BF0123C4F840352B78032BB0
:103D0C0000F2DC80DFE803F0ABC79002F2060AD5C4
:103D1C006C496D4840F2A91202F070FB40F2A911F7
:103D2C00684802F037FC33070AD5664966484FF4F9
:103D3C00D57202F063FB4FF4D571624802F02AFC95
:103D4C0077070AD55F49604840F2AB1202F056FB88
:103D5C0040F2AB115B4802F01DFC2A6902F0604393
:103D6C00B3F1005F83D14FF48073E968C4F800327B
:103D7C006B68C4F84415C4F848350023C4F85031B6
:103D8C00D4F8501101212162A160D4F850110029FE
:103D9C00FBD0C4F85031D4F85031AB68C4F844258A
:103DAC00C4F8483534234FF4802203FB09839A600E
:103DBC0008234A4F300704D42A78032A1CBF012257
:103DCC00E250342303FB09F308EB030258F80330E9
:103DDC00002B40F087800125D4F84821D4F8041139
:103DEC00002940F09A80003A18BF0122D4F824111F
:103DFC00002900F09880C4F82431D4F82411D4F8A8
:103E0C006001D4F8001210B111F4007F04D12562C6
:103E1C0065610028E0D00022C90540F18480C4F817
:103E2C004831D4F84821D7E76B68EA68C4F84425D0
:103E3C00C4F848352B6903F06042B2F1005F7FF49F
:103E4C0016AFAA68C4F834354FF48453C4F8382537
:103E5C00C4F800323423022203FB098312E06B689E
:103E6C00EA6816F0200FC4F84425C4F848354FF022
:103E7C0034030BD04FF48072C4F800224FF480222C
:103E8C0003FB09839A600123236291E74FF40072CC
:103E9C00C4F80022DFE76B68EA68C4F83425C4F87C
:103EAC0038354FF48053C4F800323423022203FB1C
:103EBC0009839A600123236200237AE70823084FC1
:103ECC0078E700BF5F7F0000A7700000B4080020F7
:103EDC000A00AD0B02029C010B00AD0B0000AD0BF8
:103EEC000400AD0B710744BF00239360730606D426
:103EFC00342303FB09839A6842F002029A6034234C
:103F0C0003FB0988D8F8083043F40073C8F808306C
:103F1C00D8F80830C4F80433AAE6C4F80431D4F84D
:103F2C000421012262E7002A3FF456AF342100201D
:103F3C0001FB0982D4F8C434C4F8C43482F82F00CD
:103F4C008BB10F4A13F0010F0E4F18BF174613F029
:103F5C00020F02F1010218BF174613F0040F0A4BAF
:103F6C0018BF1F4684E673063FF582AE204609FB58
:103F7C00018102F007FD034B002808BF1F4677E6BE
:103F8C000000AE0B0100AD0B0200AE0BF0B5624CA5
:103F9C0087B0236853B9614961484FF4297202F024
:103FAC002DFA4FF429715D4802F0F4FA5D4BD3F809
:103FBC0024211D46FAB10022C3F82421D3F8242170
:103FCC00D3F80421BAB9A268C3F808230222A2606C
:103FDC00A268C3F80423D3F860211AB1D3F80032D5
:103FEC009E0503D401224F4B1A625A61012384F8B7
:103FFC002E3007B0F0BDD5F80431002B54D000237F
:10400C00C5F80431D5F80431236A5D060AD494F856
:10401C002E303BB94049434802F0B4FC80F001001B
:10402C0084F82E00236A13F0040722D13E4E01AD12
:10403C000FCE0FC5336894F830C02B60394BC3F8E2
:10404C006071D3F86021C3F85C71D3F85C21BCF1CA
:10405C00000F02D094F82E205AB10022C3F800228F
:10406C00A260324AC3F808234FF48062304BC3F885
:10407C0080212C4AD2F8C4349807C2F8C4343CD5F9
:10408C0001238DF8003094F830300BB984F82F30C0
:10409C00236A5B0703D594F82E30002BA9D0D4E902
:1040AC00003168469847A4E7C5F84831D5F848313F
:1040BC00237B83B91C4F01AE0FCF0FC63B68336017
:1040CC0094F83030002BD4D1C5F80032A360174BD4
:1040DC00C5F80833C8E74FF40073C5F8003240F256
:1040EC000223A36003F1CE73C5F80833A368C5F8A7
:1040FC0004330123AB602B627BE7590701D5022304
:10410C00BFE7DA0701D50323BBE794F82E30002B69
:10411C00B7D00423B5E700BFB40800205F7F0000D0
:10412C00A770000000A00050C008002002029C01F3
:10413C0000E100E00E4B70B553F82040013053F80D
:10414C002060A64200D870BDD4E9003528469847B7
:10415C0065B1EB6830B10028B8BF4042FF28A8BF5A
:10416C00FF2018705A7842F001025A700834E8E7C0
:10417C00D06F000070B5054610B90024204670BD04
:10418C000378002BF9D00F4A0F4C1646944208D1F5
:10419C000D4CB442F1D0204602F025FC50B9183435
:1041AC00F7E7204602F01FFC10B12368AB42E5D0C4
:1041BC001834EBE72846216802F0FDFA0028EED10E
:1041CC00DCE700BF68010020F0000020F7B50446D2
:1041DC000E464FF02003EFF3118783F31188BFF3E2
:1041EC006F8F01F02FFA0022042C98BF1D4B05464F
:1041FC0094BF53F824301C4B0092452122461B4897
:10420C0002F0DDF93EB1F369C3F308031BB145219C
:10421C00174802F0D4F935B1284602F041FC0346A8
:10422C0008B1027802B9134B2A464521124802F014
:10423C00C6F931462046FFF741F9042C08D10F4945
:10424C000F488E2202F0DAF88E210C4802F0A2F907
:10425C0087F31188BFF36F8F284603B0BDE8F04099
:10426C00FEF7D4BAE86F00009B7F0000B17F00001E
:10427C00DE7F0000A97F0000048000002180000088
:10428C00A770000008B5094C4FF02002EFF3118322
:10429C0082F31188BFF36F8F01F078FD2062FDF778
:1042AC004DF80028F0D1FDF72DFFEDE7EC080020CC
:1042BC000248034A0021121A02F0C4BAB8010020C5
:1042CC0054090020012208B5094B02201A70FFF78F
:1042DC0031FF01F0E9FB0320FFF72CFF01F040FB5D
:1042EC0002F072F8034A137B23F00103137308BD29
:1042FC0051090020380200202DE980483D4BA7B021
:10430C0003F5006787F3088883F30A880024E02309
:10431C00394D4FF0010B85F82230EC772C766C760A
:10432C00AC76EC766B6A354E43F4E0236B626B6AC9
:10433C00DFF8E0A043F400236B62AC63EB68DFF8BA
:10434C00D8809BB243F0BF6343F40833EB60FEF7B5
:10435C00EFF9FDF7D1FE4FF0FF33AB62EB6240F2A9
:10436C000113274DADF8243006ABAB60CDE91F44EB
:10437C0002F038FB2046FFF7DDFE0120FFF7DAFEE6
:10438C0001F010F81F4B6E624FF480521E490593DA
:10439C0030465346CDE9034BCDE90144009401F07E
:1043AC008BFA737B814623F004033046737300F061
:1043BC0071FE0F234FF4A072CDE902431349144B45
:1043CC004046CDE904B4CDE9005401F075FA98F8F3
:1043DC000D30524623F0040388F80D3005F1180314
:1043EC0049463046C5E90633C5F80C802C756F601C
:1043FC00FDF768FE981A002000ED00E0380200205E
:10440C00EC0800208D80000058090020581900206D
:10441C0091420000D1420000B80100202DE9F0418A
:10442C00144D154CA846154EAC4208D931461448CB
:10443C00402201F0E3FF4021304602F0ABF8444546
:10444C0002D30020BDE8F081D4E9041242EA010352
:10445C0013F003030BD1E068A361834201D1203434
:10446C00E2E7A76901331760A2610A44F5E76FF030
:10447C001500E7E768010020680100209580000026
:10448C00A77000002DE9F74304460D469046994667
:10449C0000F108064FF02003EFF3118783F3118826
:1044AC00BFF36F8F304601F0DBFA40B91F4920484B
:1044BC00812201F0A3FF81211C4802F06BF83046E9
:1044CC0001F0EAFAA369C3B12B601B68A361E3692D
:1044DC000133E3610024304601F0D0FA40B91349AE
:1044EC001348AC2201F08AFFAC21104802F052F8BC
:1044FC0087F31188BFF36F8F13E058EA090203D1D9
:10450C006FF00B042B60E6E7224639463046CDE9C6
:10451C00008900F0D9FB044618B9064B9B685B690F
:10452C002B60204603B0BDE8F08300BFE1700000B3
:10453C00A7700000EC0800202DE9F04104460D4660
:10454C0000F108064FF02003EFF3118783F3118875
:10455C00BFF36F8F304601F083FA40B91D491E48F6
:10456C00812201F04BFF81211A4802F013F83046EA
:10457C0001F092FAD4F81880B8F1000F0FD1204650
:10458C0000F0D2FE58B12A68C0F87880426100F081
:10459C0081FD39463046BDE8F04100F0F7B92B6893
:1045AC00A26930461A602B68A361E369013BE361A1
:1045BC0001F064FA40B907490748AC2201F01EFF2C
:1045CC00AC21044801F0E6FF87F31188BFF36F8F2D
:1045DC00BDE8F081E1700000A77000002DE9F34107
:1045EC00044616461F46EFF3058343B15F49604806
:1045FC007D2201F003FF7D215C4801F0CBFF4FF0E1
:10460C002003EFF3118883F31188BFF36F8F5948A0
:10461C0001F026FA40B958495548812201F0EEFEC6
:10462C008121554801F0B6FF524801F035FAE36894
:10463C00524AD3B1A0689168884233D056EA070336
:10464C0032D14C4801F01AFA40B94B494848AC22D7
:10465C0001F0D4FEAC21484801F09CFF88F311888E
:10466C00BFF36F8F6FF00F0019E0916891F90E1086
:10467C000133E36093683F482161A36001F0FEF9C8
:10468C0040B93D493A48AC2201F0B8FEAC213A4859
:10469C0001F080FF88F31188BFF36F8F002002B008
:1046AC00BDE8F0812169E3E790F90E3091F90E1025
:1046BC009942A8BF194621EAE1718B423CDD00F01A
:1046CC00A9FD054622464146CDE90067294800F080
:1046DC00FBFA0028E3D04FF02003EFF3118683F3AD
:1046EC001188BFF36F8F234801F0BAF940B9224902
:1046FC001F48812201F082FE81211F4801F04AFFF0
:10470C001C4801F0C9F9236821699C4207D033B1D8
:10471C0093F90E309942A8BF194621EAE171A068BD
:10472C0090F90E30994209D16DB13146114800F023
:10473C002DF96FF00A00B2E70025C3E700F06AFD1F
:10474C000028F2D1F0E70B4801F098F940B90A497A
:10475C000748AC2201F052FEAC21074801F01AFFC9
:10476C0086F31188BFF36F8FE3E700BFBA800000B8
:10477C00A7700000E8080020E1700000EC080020A1
:10478C0038B50446EFF3058343B145494548D82273
:10479C0001F034FED821424801F0FCFEA368002B46
:1047AC0078D0414DAA68934277D1E36843B93C492C
:1047BC003C48EA2201F022FEEA21394801F0EAFEE7
:1047CC00EFF3058343B139493648FC2201F016FE5C
:1047DC00FC21364801F0DEFEAB68DB7B012B08D1F7
:1047EC0032493048FD2201F009FEFD212F4801F02D
:1047FC00D1FEAA68D37B013BD373E368012B05D0B0
:10480C00013BE36000F0DEFA002038BD4FF02003DE
:10481C00EFF3118583F31188BFF36F8F244801F0F8
:10482C001FF940B923491F48812201F0E7FD81217E
:10483C00204801F0AFFE1E4801F02EF9A068216956
:10484C0090F90E30994201D000F0E4FC204600F0C3
:10485C006BFDA06058B190F90E2022610022826796
:10486C0000F018FC2946124800F090F8CAE7E06006
:10487C000F4801F003F940B90E490A48AC2201F087
:10488C00BDFDAC210B4801F085FE85F31188BFF30B
:10489C006F8FB7E76FF01500B7E74FF0FF30B4E755
:1048AC00BA800000A7700000EC080020DC8000003B
:1048BC00E8080020E170000010B5084C23685BB1DB
:1048CC00FDF798F803462068054A03440021BDE82B
:1048DC001040136101F090BA10BD00BF28090020F0
:1048EC00EC080020F8B504460D464FF02003EFF31A
:1048FC00118683F31188BFF36F8F1E4801F0B0F857
:10490C0040B91D491D48812201F078FD81211A48CA
:10491C0001F040FE174801F0BFF84FF400470022A9
:10492C0040F2E7300021164BE7FB04011A6100232B
:10493C004FF47A72FBF77CFC002C124B16DC1860DF
:10494C00114B1D60FFF7B8FF0A4801F097F840B90A
:10495C0009490A48AC2201F051FDAC21064801F08E
:10496C0019FE86F31188BFF36F8FF8BD0228B8BF0C
:10497C000220E4E720090020E1700000A77000008D
:10498C00EC080020280900202409002010B503465B
:10499C000C46C1B9EFF30582AAB9144A516A926860
:1049AC00914210D001F06AF840B911491148C32264
:1049BC0001F024FDC3210E4801F0ECFDBDE81040D0
:1049CC000020FDF7C9BA184601F058F840B908495B
:1049DC000848AC2201F012FDAC21054801F0DAFDCB
:1049EC0084F31188BFF36F8F10BD00BFEC0800205B
:1049FC00E1700000A770000038B54FF02003EFF312
:104A0C00118583F31188BFF36F8F204801F028F8CC
:104A1C0040B91F491F48812201F0F0FC81211C483C
:104A2C0001F0B8FD194801F037F8EFF3058343B1F5
:104A3C0019491848FC2201F0E1FCFC21164801F050
:104A4C00A9FD164CA268D27B012A08D11249114843
:104A5C00FD2201F0D3FCFD210F4801F09BFDA26863
:104A6C00D37B013BD373094801F008F840B90849DE
:104A7C000848AC2201F0C2FCAC21054801F08AFDCB
:104A8C0085F31188BFF36F8F38BD00BF200900205C
:104A9C00E1700000A7700000DC800000EC08002032
:104AAC000B4B10B599420C460AD10A490A484FF4EF
:104ABC006E7201F0A3FC4FF46E71064801F06AFDB2
:104ACC00D4E9003213605A600023C4E9003310BDEE
:104ADC00B801002007810000A7700000836810B5A2
:104AEC00044653B90A490B4840F2492201F086FCAE
:104AFC0040F24921064801F04DFD2146A068FFF720
:104B0C00CFFF637B23F0020363730023A36010BD0C
:104B1C0007810000A770000038B5134C024604F161
:104B2C00280001F0A9FF054600B9E568AAB9A368F9
:104B3C0043B90E490E48882201F060FC88210B48CD
:104B4C0001F028FDA3685A7BD20606D1AA6922B9C6
:104B5C00DA897F2A01D9636238BDA368AB4201D0E0
:104B6C00FFF7AAFE6562F7E7EC080020078100005A
:104B7C00A770000010B590F90D200446002A437B65
:104B8C0006DA03F07F03014643730648FFF788FFFC
:104B9C00054B9868031B58425841BDE81040FFF77D
:104BAC00BBBF00BF14090020EC08002038B5044638
:104BBC000D46FFF7DFFF637B43F00203637325B3FE
:104BCC00184BA5609C420AD11749184840F2A932EB
:104BDC0001F014FC40F2A931134801F0DBFC2B6806
:104BEC009D4208BF0023002B38BF00239BB194F9D2
:104BFC000E1093F90E20914208D0521A002A05DDAE
:104C0C005A68C4E9003214605C6038BD6A6893422B
:104C1C0001D01B68EAE76B68C4E900531C606C6048
:104C2C00F3E700BFB801002007810000A770000067
:104C3C002DE9F04104460D4616461F464FF0200361
:104C4C00EFF3118883F31188BFF36F8F1A4800F0CC
:104C5C0007FF40B919491A48812201F0CFFB812185
:104C6C00164801F097FC144800F016FF2046294620
:104C7C00FFF79CFF104800F001FF40B90F491048A6
:104C8C00AC2201F0BBFBAC210C4801F083FC88F397
:104C9C001188BFF36F8F7B1C08BFB6F1FF3F08D0A4
:104CAC0032463B4604F118000649BDE8F04100F0DD
:104CBC0071BFBDE8F08100BF20090020E170000049
:104CCC00A77000009151000038B505460D4B0C46FD
:104CDC0098680D4B11461860DDE90423FFF7A8FF17
:104CEC00284600F0CBFE40B908490948C32201F020
:104CFC0085FBC321054801F04DFC2046BDE838403A
:104D0C00FDF72AB9EC0800201C090020E170000016
:104D1C00A770000070B50446183000F0FBFF4FF090
:104D2C002003EFF3118683F31188BFF36F8F2048B4
:104D3C0000F096FE40B91F491F48812201F05EFB2E
:104D4C0081211C4801F026FC194800F0A5FE94F9BD
:104D5C000D20637B002A06DA03F07F0321461748F7
:104D6C006373FFF79DFE164D637BA86843F0100339
:104D7C006373031B58425841FFF7CEFE0C4800F0FA
:104D8C007DFE40B90B490C48AC2201F037FBAC213D
:104D9C00084801F0FFFB86F31188BFF36F8FAB68F7
:104DAC00A34203D1BDE8704001F05CBE70BD00BFF2
:104DBC0020090020E1700000A770000014090020F9
:104DCC00EC08002038B54FF02003EFF3118583F386
:104DDC001188BFF36F8F244800F042FE40B923497D
:104DEC002348812201F00AFB8121204801F0D2FBEB
:104DFC00204C1D4800F050FEA268D27B52B91E49CF
:104E0C001B484FF4527201F0F9FA4FF452711A48E0
:104E1C0001F0C0FBEFF3058353B11749144840F27E
:104E2C00493201F0EBFA40F24931134801F0B2FB80
:104E3C00A2680020D37B0133D373FFF76DFE0A48C1
:104E4C0000F01CFE40B909490948AC2201F0D6FA21
:104E5C00AC21064801F09EFB85F31188BFF36F8FE0
:104E6C00BDE8384001F0FEBD20090020E1700000D3
:104E7C00A7700000EC0800200781000070B590F9C5
:104E8C000D200446002A437B06DA03F07F0301461B
:104E9C0043732048FFF704FE637B63F07F03637367
:104EAC001D4B9C420AD11D491D4840F2A93201F00C
:104EBC00A5FA40F2A931194801F06CFB194A1146C8
:104ECC0051F8283FD56A8B4208BF0023002B38BF0E
:104EDC000023CBB194F90E6093F90E0086420FD0EB
:104EEC00801B00280CDD5968C4E900310C605C6043
:104EFC009068031B58425841BDE87040FFF70CBE48
:104F0C00AB4201D01B68E4E7C4E900152C60D46205
:104F1C00EEE700BF14090020B80100200781000053
:104F2C00A7700000EC08002070B504464FF0200379
:104F3C00EFF3118583F31188BFF36F8F254800F0D1
:104F4C008FFD40B924492548812201F057FA81216F
:104F5C00214801F01FFB1F4800F09EFD204B214A09
:104F6C00986811688842194613D1FFF7A5FC1948B7
:104F7C0000F084FD40B918491848AC2201F03EFA03
:104F8C00AC21154801F006FB85F31188BFF36F8F38
:104F9C0070BD00261660144A1268BAB1C2897F2A05
:104FAC0014D8427BD20611D1104A90F90E601268C7
:104FBC0096420BDB0E4A904208D01A69A24202DCE0
:104FCC00FFF75CFFD1E7121B1A61D0E700230B61DE
:104FDC00CDE700BF20090020E1700000A7700000A1
:104FEC00EC0800201C0900202809002024090020BE
:104FFC00B801002070B590F90D200446002A437BBF
:10500C003FDBDA063DD18569002D3AD163F07F0391
:10501C0043731C4B98420AD11B491C4840F2A932DD
:10502C0001F0ECF940F2A931174801F0B3FA184934
:10503C000B4653F8280F984218BF0546002D1A4608
:10504C002B4638BF0023CD6AB3B194F90E6093F9A7
:10505C000E0086420CD0801B002809DD5A68C4E97A
:10506C00003214605C600020BDE87040FFF754BD56
:10507C00AB4201D01B68E7E7C4E900252C60CC6289
:10508C00F1E770BDB801002007810000A770000097
:10509C00EC08002038B504464FF02003EFF31185DF
:1050AC0083F31188BFF36F8F124800F0D9FC40B91D
:1050BC0011491248812201F0A1F981210E4801F019
:1050CC0069FA0C4800F0E8FC2046FFF793FF09480A
:1050DC0000F0D4FC40B908490848AC2201F08EF924
:1050EC00AC21054801F056FA85F31188BFF36F8F98
:1050FC0038BD00BF20090020E1700000A77000003F
:10510C0038B504464FF02003EFF3118583F3118873
:10511C00BFF36F8F184800F0A3FC40B9174918482B
:10512C00812201F06BF98121144801F033FA124805
:10513C0000F0B2FC637B5A0711D40F4800F09EFCC0
:10514C0040B90E490E48AC2201F058F9AC210B487D
:10515C0001F020FA85F31188BFF36F8F38BD23F06F
:10516C00040320466373FFF745FF2946BDE838402A
:10517C000148FFF70BBC00BF20090020E1700000C4
:10518C00A770000070B504464FF02003EFF31186B2
:10519C0083F31188BFF36F8F1B4800F061FC40B99B
:1051AC001A491B48812201F029F98121174801F085
:1051BC00F1F9154800F070FC14F80B3C13F0280FB3
:1051CC0010D154F8103CA4F1180513B12846FFF780
:1051DC0085FC14F80B3C284623F0140304F80B3C14
:1051EC00FFF708FF084800F049FC40B90749084898
:1051FC00AC2201F003F9AC21044801F0CBF986F3A1
:10520C001188BFF36F8F70BD20090020E170000082
:10521C00A7700000F8B504460E464FF02003EFF3DC
:10522C00118783F31188BFF36F8F384800F018FC97
:10523C0040B937493748812201F0E0F881213448E0
:10524C0001F0A8F9314800F027FC637B76B2DA064E
:10525C0058D1A569002D55D103F07F036373214606
:10526C002D48FFF71DFC637BA67363F07F0363730C
:10527C002A4B9C420AD12A49264840F2A93201F015
:10528C00BDF840F2A931264801F084F925490B46B6
:10529C0053F8280F984218BF0546002D1A462B4686
:1052AC0038BF0023CD6A43B394F90E6093F90E0016
:1052BC0086421ED0801B00281BDD5A68C4E90032D0
:1052CC0014605C600120FFF727FC01240F4800F0FC
:1052DC00D5FB40B90E490F48AC2201F08FF8AC2138
:1052EC000B4801F057F987F31188BFF36F8F2046F5
:1052FC00F8BDAB4201D01B68D5E7C4E900252C6092
:10530C00CC62DFE7A6730024E0E700BF2009002091
:10531C00E1700000A770000014090020B801002003
:10532C0007810000EC08002038B504464FF020033C
:10533C00EFF3118583F31188BFF36F8F164800F0DC
:10534C008FFB40B915491648812201F057F881218D
:10535C00124801F01FF9104800F09EFB204601F0A6
:10536C008BFB044628B1FFF7B9FB04F1180000F0E1
:10537C00D1FC094800F082FB40B908490848AC222E
:10538C0001F03CF8AC21054801F004F985F31188D3
:10539C00BFF36F8F204638BD20090020E17000005C
:1053AC00A77000000021044B084603F12802C3E952
:1053BC000A22FFF797BA00BFEC080020F8B5EFF30C
:1053CC00058353B14049414840F2A44201F016F81C
:1053DC0040F2A4413C4801F0DDF83D4D3D4EAB6838
:1053EC00B34267D04FF02003EFF3118783F311889A
:1053FC00BFF36F8F384800F033FB40B9374933485F
:10540C00812200F0FBFF8121344801F0C3F83248BF
:10541C0000F042FBA96832484B7B03F07F034B73CF
:10542C00FFF73EFBAC68637BB44263F07F036373AE
:10543C000AD12549254840F2A93200F0DFFF40F29D
:10544C00A931214801F0A6F8AB6A2548E96A8342E4
:10545C0008BF0023002B38BF002333B394F90E6030
:10546C0093F90E2096421CD0921B002A19DD5A6823
:10547C00C4E9003214605C600120FFF74DFB164854
:10548C0000F0FCFA40B915491048C32200F0B6FFF1
:10549C00C321124801F07EF83846BDE8F840FCF70D
:1054AC005BBD8B4201D01B68D7E7C4E900010C60DF
:1054BC00EC62E1E74FF02003EFF3118083F31188E6
:1054CC00BFF36F8FE9E700BF07810000A7700000F2
:1054DC00EC080020B801002020090020E170000039
:1054EC00140900202DE9F04106460F46EFF3058321
:1054FC0053B13549354840F2C34200F07FFF40F2CA
:10550C00C341314801F046F856EA070304D1FFF7CE
:10551C0055FF0020BDE8F08101F0C4FA84194FF06A
:10552C002003EFF3118883F31188BFF36F8F2848A2
:10553C0000F096FA40B927492448812200F05EFF1A
:10554C008121244801F026F8234D214800F0A4FACB
:10555C00A868224B1860FFF70DFBA86832463B4643
:10556C0018301F4900F016FBAA681948537B43F00A
:10557C001003537300F082FA40B916491348C32242
:10558C0000F03CFFC321134801F004F84046FCF73F
:10559C00E3FCAB685B7BDB060AD50B490B4840F29E
:1055AC00E14200F02BFF40F2E141074800F0F2FF2E
:1055BC0001F078FA201A64EB0401002871F1000361
:1055CC00B8BF0020A6E700BF07810000A77000004D
:1055DC0020090020E1700000EC0800201C090020CC
:1055EC009151000038B504460D46EFF3058353B1D5
:1055FC00114912484FF49E6200F000FF4FF49E6177
:10560C000D4800F0C7FF6B1C08BFB4F1FF3F06D17B
:10561C000B4B9868FFF77EFB4FF0FF3038BD2046F0
:10562C002946FFF75FFF4FF47A7380FB0334D80BE6
:10563C0040EA4440F2E700BF07810000A770000079
:10564C00EC080020014B9868704700BFEC08002064
:10565C002DE9F04104464FF02003EFF3118683F35C
:10566C001188BFF36F8F3E4800F0FAF940B93D49FD
:10567C003D48812200F0C2FE81213A4800F08AFFA9
:10568C00374800F009FA637B1A0712D5344800F04A
:10569C00F5F940B933493448AC2200F0AFFEAC21E7
:1056AC00304800F077FF86F31188BFF36F8FBDE8A9
:1056BC00F08123F0200242F00801D20938D1617345
:1056CC00A36813B12046FFF709FA04F1180000F0A3
:1056DC0021FB4FF0000804F15807A56DBD4200D026
:1056EC0085BB0120FFF718FA204B9B68A342CDD154
:1056FC00EFF30583002BC9D1194800F0BFF940B96D
:10570C0018491948C32200F079FEC321154800F04E
:10571C0041FF3046FCF720FC40F2F352144912488A
:10572C0000F06CFE40F2F351114800F033FFADE78E
:10573C0003F05F0343F0080321460E486373FFF741
:10574C00AFF9BDE72846FFF7C9F905F1180000F0DD
:10575C00E1FA2846C5F87880FFF74CFCBDE700BF9E
:10576C0020090020E1700000A7700000EC08002068
:10577C00078100001409002038B504464FF02003BF
:10578C00EFF3118583F31188BFF36F8F124800F08C
:10579C0067F940B911491248812200F02FFE81218E
:1057AC000E4800F0F7FE0C4800F076F92046FFF7A3
:1057BC00BBFD48B100228267FFF76CFC2946BDE8AF
:1057CC0038400548FFF7E2B8D4E902329A4218BFD4
:1057DC000133A360F2E700BF2C090020E170000048
:1057EC00A7700000F7B5044616461F46EFF3058375
:1057FC005BB156EA070308D02B492C488C2200F0E9
:10580C00FDFD8C21284800F0C5FE4FF02003EFF37E
:10581C00118583F31188BFF36F8F254800F020F9B1
:10582C0040B924492148812200F0E8FD812121481A
:10583C0000F0B0FE1E4800F02FF9A368ABB1013B9D
:10584C001B48A36000F01AF940B91A491748AC225A
:10585C0000F0D4FDAC21174800F09CFE85F31188B4
:10586C00BFF36F8F002003B0F0BD56EA070313D1CE
:10587C000F4800F003F940B90E490C48AC2200F077
:10588C00BDFDAC210B4800F085FE85F31188BFF3FC
:10589C006F8F6FF00F00E6E722462946CDE90067CF
:1058AC000348FFF711FADEE729810000A77000001A
:1058BC002C090020E17000002DE9F04385B0DDF8E3
:1058CC003C900446B9F10F0F0F46154698462ED161
:1058DC001F4B98452FD104F15803C4E91633109B84
:1058EC0000262373042363730E9BE81D02930D9B08
:1058FC0020F0070001930C9B3D18C4E9197000932C
:10590C002A46434639462046C4E90666A66084F812
:10591C000E90E673E666FCF7B9FB0E4B66659B686A
:10592C0003B11B6F2846236705B0BDE8F08309F16E
:10593C0010031E2BCFD94FF407720749074800F00C
:10594C005DFD4FF40771044800F024FEC3E700BF6F
:10595C0091420000EC08002049810000A770000073
:10596C002DE9F047394F3A4D3E46DFF8EC8086B0D2
:10597C00BD420AD94146374840F2EB2200F03EFDC9
:10598C0040F2EB21404600F005FEB54205F1300433
:10599C001DD3FFF731F840F2E7384FF000092C4CDB
:1059AC002D4DDFF8B0A0B4420AD92946504640F23A
:1059BC000A3200F023FD40F20A31284600F0EAFDDD
:1059CC00B44221D306B0BDE8F047FFF7FBB954F859
:1059DC00043C059354F8103C049354F8143C039382
:1059EC0054F8183C029354F81C3C019354F8203C96
:1059FC00009354E90A2354E90C01FFF75DFF54F8B6
:105A0C00303C5D652546B3E7636A5A1C0FD04FF4F2
:105A1C0000424046494623EAE373C2FB0301494571
:105A2C0008BF4045276804D13846FFF769FB30347E
:105A3C00B9E74FF47A720023FAF7FAFB02460B46E9
:105A4C0007F11800054900F0A5F8F0E768010020FF
:105A5C0068010020A77000004981000091510000EE
:105A6C00006838B1044B00F003001B7DC01A18BF4E
:105A7C000120704701207047EC08002005490346BF
:105A8C008A68087D196802430020914204BF18609F
:105A9C0001207047EC080020024A117D93680B43EB
:105AAC0003607047EC080020024A0349034800F0E9
:105ABC00A5BC00BF137200006C8100008C8100003B
:105ACC0008B50648064A0749121A00F090FEBDE8D0
