:10000000D0180020952100001B5C0000F5210000A5
:10001000F5210000F5210000F5210000F521000088
:10002000000000000000000000000000691F000048
:10003000F521000000000000111F0000251800003D
:1000400055210000552100005521000055210000D8
:1000500055210000552100005521000055210000C8
:1000600055210000552100005521000055210000B8
:1000700055210000552100005521000055210000A8
:100080005521000055210000552100005521000098
:100090005521000055210000552100005521000088
:1000A0005521000055210000552100005521000078
:1000B0005521000055210000552100005521000068
:1000C0005521000055210000552100005521000058
:1000D0005521000055210000552100005521000048
:1000E0005521000055210000552100005521000038
:1000F0005521000055210000552100005521000028
:100100005521000055210000552100005521000017
:100110005521000055210000552100005521000007
:1001200055210000552100005521000055210000F7
:1001300055210000552100005521000055210000E7
:100140005521000000000000000000000000000039
:10015000000000000000000000000000000000009F
:10016000000000000000000000000000000000008F
:10017000000000000000000000000000000000007F
:10018000000000000000000000000000000000006F
:10019000000000000000000000000000000000005F
:1001A000000000000000000000000000000000004F
:1001B000000000000000000000000000000000003F
:1001C000000000000000000000000000000000002F
:1001D000000000000000000000000000000000001F
:1001E000000000000000000000000000000000000F
:1001F00000000000000000000000000000000000FF
:10020000DEE61E284CBBCE8F025B00003C000000E7
:100210005C7400000100000000000000000000000D
:10022000FFFF02910000000000000000000000003D
:0C023000000000000000000000000000C2
:10023C0053B94AB9002908BF00281CBF4FF0FF3141
:10024C004FF0FF3000F070B9ADF1080C6DE904CE41
:10025C0000F006F8DDF804E0DDE9022304B0704795
:10026C002DE9F047089E0D4604468A46002B7FD1A7
:10027C008A42174641D9B2FA82F24AB1C2F1200140
:10028C0005FA02F39740944020FA01F141EA030A7F
:10029C004FEA17484FEA144C1FFA87F9BAFBF8FEDD
:1002AC0008FB1EA30EFB09F14CEA0343994206D945
:1002BC00FB1802D2994200F224810EF1FF3E591A2A
:1002CC00A3B2B1FBF8F008FB101100FB09F943EAEB
:1002DC000144A14505D93C1902D2A14500F20E8179
:1002EC000138A4EB090440EA0E4000211EB1D440B1
:1002FC000023C6E90043BDE8F08702B9FFDEB2FA7D
:10030C0082F2002A4FD1CB1B4FEA174E1FFA87F807
:10031C000121250CB3FBFEFC0EFB1C302B4608FB0D
:10032C000CF945EA0045A9450AD97D192CBF0123D2
:10033C000023A94502D9002B00F0D9800CF1FF3C19
:10034C00A5EB0905A3B2B5FBFEF00EFB105508FB9F
:10035C0000F843EA0544A04505D93C1902D2A04552
:10036C0000F2C9800138A4EB080440EA0C40BDE758
:10037C008B4208D9002E00F0B1800021C6E900059F
:10038C000846BDE8F087B3FA83F1002946D1AB42A9
:10039C00C0F0A780824240F2A4800846002EAAD06A
:1003AC00C6E9004AA7E7C2F12000974001FA02F320
:1003BC004FEA174EC14024FA00F51FFA87F8944013
:1003CC001D43B1FBFEF02B0C0EFB101100FB08FCC7
:1003DC0043EA01439C4509D9FB182CBF012100219C
:1003EC009C4502D9002900F095800138A3EB0C0341
:1003FC00ADB2B3FBFEF10EFB113301FB08FC45EA79
:10040C000345AC4505D97D1902D2AC4500F2898073
:10041C000139A5EB0C0341EA00417AE7C1F1200454
:10042C008B4002FA01F705FA01FCE24020FA04F8CD
:10043C00E54000FA01FE134348EA0C024FEA134868
:10044C004FEA124C1FFA83F9B5FBF8FA08FB1A5560
:10045C000AFB09F04CEA054C60450AD913EB0C0C6D
:10046C002CBF01250025604501D9002D55D00AF17E
:10047C00FF3AACEB000C92B2BCFBF8F008FB10CCD2
:10048C0000FB09F942EA0C4CE14505D913EB0C0CC5
:10049C0001D2E1453BD8013840EA0A40ACEB090CEB
:1004AC00A0FB0789CC4545464A4602D306D1C64532
:1004BC0004D20138B8EB070569EB03022EB3BEEB8F
:1004CC0005036CEB020C23FA01F20CFA04F42CFA7F
:1004DC0001F300211443C6E900430CE731463046D2
:1004EC0009E7841A65EB030301209A4656E7ACF141
:1004FC00020C3D4424E702383C4434E702383C44C7
:10050C00EFE6AEF1020E3B44D9E63146F3E6023893
:10051C009C44C1E702383B4468E7AAF1020A9C44B8
:10052C00A7E702393D4474E7704700BF2DE9E04F5F
:10053C002746A046A146A246A346A446A2B02DEC4F
:10054C00000A84F3008825462646A4473DEC000AA1
:10055C0022B0BDE8E08F000038B54468054604F0D1
:10056C000304032C816002D02CB1002000E0006851
:10057C0000236B6038BD45220449054805F0B8F9E5
:10058C004521024805F080FAEFE700BF58640000EF
:10059C007B6400000B6801330B60014B1B68184730
:1005AC0000000020014B1860704700BF00000020C5
:1005BC0007B50B46002102460191034801A900F042
:1005CC006DFA03B05DF804FBA10500002DE9F74FAF
:1005DC00B0F81CA004461AF0080F93461CD0012951
:1005EC000CBF4AF0100A4AF0200AA0F81CA004F133
:1005FC00140004F0BDFC40B9BA49BB48AC2205F06C
:10060C0077F9AC21B74805F03FFA8BF31188BFF3AB
:10061C006F8F03B0BDE8F08FB44FDFF8CC820AF0D7
:10062C00070A022906D1204605F06FF90028DED012
:10063C00012865D1D4F81890A38BB9F1000F19DA01
:10064C000026256823F00703C4E9006643F0010384
:10065C00A383A38B03F007025245009203D0A26838
:10066C00002A40F0F18015B9002E00F02B814FF0DC
:10067C00000AEBE003F00702511F012922D80021E8
:10068C0023F00703062A25689BB2C4E900110CD19C
:10069C008D422A4638BF0A462AB1E18B12680131D5
:1006AC00E183002AF8D143F002032046A38305F02E
:1006BC002CF906460028CCD0A38B43F02003A3834F
:1006CC000026C6E7042A0DD123F007039AB2204670
:1006DC00A28305F01AF9054680B142F020020025EC
:1006EC00A283EDE740F219123946404605F000F9B5
:1006FC0040F21911384605F0C7F900252E46A8E737
:10070C00032831D1BAF1000F0AD0394640464FF4D4
:10071C00AA7205F0EDF84FF4AA71384605F0B4F959
:10072C00236853B93946404640F2551205F0E0F8BB
:10073C0040F25511384605F0A7F923691E6856B9E1
:10074C00394640464FF4AC7205F0D2F84FF4AC7118
:10075C00384605F099F9A38B23F0070343F0060301
:10076C000025A383A94674E704282ED1BAF1020F01
:10077C000AD03946404640F25B1205F0B9F840F217
:10078C005B11384605F080F9E38B53B1394640468E
:10079C004FF4AE7205F0ACF84FF4AE71384605F07C
:1007AC0073F923695E6856B93946404640F25F12C8
:1007BC0005F09EF840F25F11384605F065F9A38B01
:1007CC0023F0070343F00403CAE705282ED1BAF13E
:1007DC00010F0AD0394640464FF4B17205F088F843
:1007EC004FF4B171384605F04FF9236853B93946C7
:1007FC00404640F2631205F07BF840F26311384634
:10080C0005F042F923699E6856B9394640464FF4C3
:10081C00B37205F06DF84FF4B371384605F034F946
:10082C00A38B23F0070343F0050399E7002540F25F
:10083C0069123946404605F05BF840F269113846BA
:10084C0005F022F92E468DE74FF0010A43F008031C
:10085C00A38304F114031846019304F089FB40B9F7
:10086C0040462049AC2205F043F8AC211D4805F068
:10087C000BF98BF31188BFF36F8FBAF1000F39D1DD
:10088C00002D4CD116B120461949B0474FF020032A
:10089C00EFF3118B83F31188BFF36F8F019804F082
:1008AC0059FB40B940460F49812205F021F88121BE
:1008BC000C4805F0E9F8019804F068FBA38B23F0D1
:1008CC000803A383A38BDA0631D5012123F010038F
:1008DC00A383B4F81CA00AF0070A00297FF4A1AE88
:1008EC0085E600BFB56400007B64000093640000E3
:1008FC004D090000A1680029C2D00B68002B38BF3D
:10090C0000239A4620464B46D1F804B0009AD847AB
:10091C00BAF1000FB4D05146DAF80030EEE72946B0
:10092C004B462046009A2D6805F00BF8A8E713F00B
:10093C0020011EBF23F020030221A383C9E700BFBF
:10094C00F8B504460D4600F114064FF02003EFF302
:10095C00118783F31188BFF36F8F304604F0FAFAD6
:10096C0040B90A490A48812204F0C2FF8121074894
:10097C0005F08AF8304604F009FB3A462046A5619A
:10098C000121BDE8F840FFF721BE00BFB5640000AF
:10099C007B6400002DE9F04704460F4604F0E7FFA6
:1009AC00051E54DB04F114094FF02003EFF3118AF8
:1009BC0083F31188BFF36F8F484604F0CBFA40B92C
:1009CC0033493448812204F093FF8121304805F0EB
:1009DC005BF8484604F0DAFA4FF6FF71E38BA28B12
:1009EC008B4202F007064AD0022E1FD135464FF03B
:1009FC0001080133E383484604F0BAFA40B92449AC
:100A0C002448AC2204F074FFAC21214805F03CF8DA
:100A1C008AF31188BFF36F8FB8F1000F17D0002342
:100A2C0032463946204604F08CFF10E0930701D083
:100A3C00062E0FD100233B606368EBB9C4E9007745
:100A4C003546F6B9524602212046FFF7BFFD28462F
:100A5C00BDE8F087052E17D0012E0AD00E490D489F
:100A6C0040F2C51204F044FF40F2C5110A4805F0EB
:100A7C000BF86FF0040504E01F606760E0E76FF0AF
:100A8C000A054FF00008B6E76FF02205F9E700BF42
:100A9C00B56400007B640000936400002DE9F04F06
:100AAC008B4692461C46002591B002909AF80000A5
:100ABC0008B928465EE325280AF1010707D05946F4
:100ACC00029B98470028C0F25583013510E218228A
:100ADC0000210AA805F002F99AF80130252B78D0EC
:100AEC0000229446164696461046394617F8013BA6
:100AFC002B2B00F09D8000F29480202B00F09B802B
:100B0C00232B00F09A8028B19DF8300040F00400AF
:100B1C008DF83000BEF1000F05D09DF8300040F08C
:100B2C0008008DF830002EB19DF8300040F0100018
:100B3C008DF83000BCF1000F05D09DF8300040F06E
:100B4C0020008DF830002AB19DF8302042F0400290
:100B5C008DF830209DF8302002F04400442803D159
:100B6C006FF386128DF830209DF830202A2B42F03E
:100B7C0080028DF830207BD19DF831204B1C42F047
:100B8C0001028DF831201A782E2A0CBF0121002188
:100B9C009DF8312061F341028DF8312074D15A78DF
:100BAC002A2A6AD000210A260133184610F8012B94
:100BBC00A2F13007092F40F28E809DF830200E9163
:100BCC00C2F3400040EAD17161F341028DF830204C
:100BDC005AE00AF102078DF833309DF83130D9070D
:100BEC0040F1498154F8049BB9F1000F07DA9DF8E4
:100BFC003020C9F1000942F004028DF830205A0768
:100C0C0040F1428154F8048BB8F1000F80F241811D
:100C1C009DF831306FF341038DF831304FF0FF38D0
:100C2C0037E12D2B0CD0302B7FF46DAF01225CE71C
:100C3C004FF0010E59E7012657E74FF0010C54E72E
:100C4C00012052E733460CFB0202303A1E4616F8DE
:100C5C00010BA0F13007092FF4D9994293D09DF8DC
:100C6C0030100D92D20F62F341018DF830108AE7EB
:100C7C000B4600224FF00A0CE8E79DF831200233B6
:100C8C0042F004028DF831201F4617F8012B6C2A14
:100C9C0041D025D8682A2BD06A2A46D04C2A4CD071
:100CAC001F4617F8012B9DF83130782A8DF8332028
:100CBC0000F2D980572A4DD8412A03D0453A022A4E
:100CCC0000F2D18004229DF8323062F302038DF8D9
:100CDC00323001239EE006FB01210346303964E7E4
:100CEC00742A26D07A2ADBD106229DF831300DE009
:100CFC005A78682A9DF8312006D1012161F3C60289
:100D0C008DF831209F1CCCE71346022262F3C603F8
:100D1C008DF83130C5E75A786C2A9DF8312001D115
:100D2C000421EBE713460322F0E705229DF831304E
:100D3C00ECE707229DF83130E8E7BDF8303023F4BA
:100D4C00F04323F0020343F4804343F00203ADF875
:100D5C003030A6E7A2F15801202900F2848001A0CE
:100D6C0050F821F0350E0000730E0000730E0000D9
:100D7C00730E0000730E0000730E0000730E000063
:100D8C00730E0000730E0000D10C0000730E0000F7
:100D9C00350E0000F50D0000D10C0000D10C000048
:100DAC00D10C0000730E0000F50D0000730E000056
:100DBC00730E0000730E0000730E00003D0E000059
:100DCC00350E0000590E0000730E0000730E00006B
:100DDC00590E0000730E0000350E0000730E00005B
:100DEC00730E0000350E000001209DF8321003F048
:100DFC00780360F30201402B8DF8321002BF9DF88E
:100E0C00301041F001018DF83010632A31D1003BD4
:100E1C0018BF01239DF83020C2F340010B4363F34C
:100E2C0041028DF83020D8E602209DF83210DEE722
:100E3C0003219DF8322003F07803A3F1400061F305
:100E4C00020243428DF832204341E3E703219DF82F
:100E5C00322013F0780F61F3020214BF0123002338
:100E6C008DF83220D6E79DF8303043F001038DF831
:100E7C0030300023CEE79DF93020002AACBF4FF074
:100E8C00FF39DDF83490BAE69B077FF5C7AEDDF885
:100E9C0038800023CDE90D339DF832309DF8312098
:100EAC0003F00703012BC2F3C30236D1D31E042B6C
:100EBC0020D8DFE803F00307071F1F0054F8040BCA
:100ECC00C11704E0073424F00704F4E80201CDE96B
:100EDC000A019DF8303013F0030654D03B465246BD
:100EEC005946029804F0BAFD0028C0F2438105442B
:100EFC00BA46DBE554F8040B012A4FEAE071CDE960
:100F0C000A0105D19DF828300A9300230B93E0E7E2
:100F1C00022ADED1BDF92800D2E7022B23D1D31E41
:100F2C00042B13D8DFE803F0030A0A121200002185
:100F3C002068231D0A900B911C46CAE7073424F045
:100F4C000703F3E80201CDE90A01F5E754F8043B85
:100F5C00012A0A934FF000030B93D3D0022AB8D185
:100F6C00BDF82830D0E7042B07D1073424F0070450
:100F7C00F4E80201CDE90A01ABE7032B04BF54F8F6
:100F8C00043B0A93A5E79DF833007828B0D8622873
:100F9C0022D825283FF493AD5828A9D1DDE90A01C0
:100FAC000DF1260300930CAA04AB04F00CFD824651
:100FBC00B8F1000F0DF126000CDB9DF83020A0EBF2
:100FCC000A036FF3861298458DF8302002D9A8EBEE
:100FDC0003030D9380463DE06338152888D801A1A2
:100FEC0051F820F071100000D5100000FD0E00002B
:100FFC00FD0E0000FD0E0000FD0E0000D5100000DF
:10100C00FD0E0000FD0E0000FD0E0000FD0E0000A8
:10101C00331100000111000005110000FD0E00004D
:10102C00FD0E000049100000FD0E00000111000033
:10103C00FD0E0000FD0E000001110000B8F1000FC4
:10104C00DDF828A00ADB4146504604F0F7FD0026E7
:10105C000AEB0008BAF1000F0CD149E7504604F036
:10106C00E6FDF4E700260A9B0DF111088DF810300F
:10107C000DF1100AA8EB0A0306B101339DF83220DA
:10108C00D0066BD5023352060D9948BF0E9A0B440D
:10109C0048BF9B18B9F1000F79DD9DF83020A9EB02
:1010AC000309C2F380030393530770D4500664D52D
:1010BC0046B159463046029B984700285ADB039BA1
:1010CC0001351E46302359E01E0711D413F01006CB
:1010DC0018BF2026DDE90A23002A73F10001BFF6B0
:1010EC005DAF524263EB43032D26CDE90A2355E74E
:1010FC002B26EFE7002651E70A9848B30DF126039B
:10110C000093002104AB0CAA04F05DFCBDF8323056
:10111C00824603F0EF0343F4F04343F01003002640
:10112C00ADF8323044E70A9B072A3FF6E1AEDFE820
:10113C0002F00D04060D08080D0D1D70D8E61D807B
:10114C00D6E62846E917C3E90001D1E61D60CFE6D3
:10115C00DFF8C4800646A8F1050A8BE7110748BFE3
:10116C00013390E7184603935946029B9847002891
:10117C00039B04DA11B0BDE8F08F20234D444A469E
:10118C00002AA5EB090109F1FF39EBDC0D4636B15C
:10119C0059463046029B98470028EBDB01359DF8F9
:1011AC003230D90601D41A0706D559463020029B95
:1011BC0098470028DEDB01359DF83230DB0607D579
:1011CC0059469DF83300029B98470028D2DB013525
:1011DC000D9E2E44731B002B16DC4346524659467B
:1011EC00029804F03BFC0028C4DB0544A944A9EB9D
:1011FC000503002B7FF77CAE59462020029B9847B5
:10120C000028B7DB0135F2E759463020029B98479E
:10121C000028AFDB0135DDE7D06400004FF0200281
:10122C00EFF3118382F31188BFF36F8F0121044A0E
:10123C00C2F8401583F31188BFF36F8F00207047FD
:10124C000090035020B1034B800143F00103184779
:10125C00704700BF0062000082B002AB03E90300DC
:10126C009DF80030062B07D10122044BC3F8002552
:10127C00BFF34F8F20BFFDE702B070470040005016
:10128C00F8B505464FF02003EFF3118683F3118870
:10129C00BFF36F8F194803F05DFE40B91849194828
:1012AC00812204F025FB8121154804F0EDFB134845
:1012BC0003F06CFE144B1C68002C38BF00245CB18E
:1012CC00124FD4E90132002D08BF13460BB1387808
:1012DC0098472468002CF4D1084803F049FE40B923
:1012EC0007490848AC2204F003FBAC21044804F085
:1012FC00CBFB86F31188BFF36F8FF8BD780200200B
:10130C00B56400007B6400007C0200208402002095
:10131C00084B10B51C685CB901221A60064B93E8A7
:10132C00030004F0BBFB2046BDE81040FFF7A8BF4C
:10133C0010BD00BF040000208402002037B56D46AC
:10134C000E4C0146284604F0C1FB95E8030084E8E6
:10135C000300207880B10022094B1A6002F0C6FD10
:10136C000120FFF78DFF94E80300FFF775FFFFF7EF
:10137C00CFFF02F0A1FF207803B030BD8402002023
:10138C0004000020044608B54FF02002EFF311834F
:10139C0082F31188BFF36F8F04F0FAFB204601F043
:1013AC009DF9034804F0A4FA00F068FEFCE700BFC6
:1013BC00DB64000010B5074802F056F9064C074BE9
:1013CC001860204601F050FC2046FFF7EBF8002097
:1013DC0010BD00BF04650000ED1300008C0200205E
:1013EC000A2838B50446074D04D1286883680D21B6
:1013FC005B68984728688368E1B25B689847204629
:10140C0038BD00BF8C0200202DE9F0410E4C074680
:10141C00051BC5F347130C255D4305F148000E462B
:10142C002044402104F056FB011E08DB074B2C44E2
:10143C00C4E91036064B5B59BDE8F04118473846F5
:10144C003346BDE8F0411847A4020020435B00007E
:10145C001C62000038B5CCB2012C054608D90849ED
:10146C0008487E2204F044FA7E21054804F00CFB67
:10147C000C212B6904FB0134A06C00F0070038BD73
:10148C000B6500007B640000F8B5CCB2012C05465E
:10149C00164607690AD91849184840F2531204F045
:1014AC0027FA40F25311144804F0EEFA4FF02003DF
:1014BC00EFF3118283F31188BFF36F8F0C2303FBBF
:1014CC000471896C11F0C00101D08E4211D101213F
:1014DC00002003FB0473996482F31188BFF36F8FB0
:1014EC0030B90C23696803FB041463689847002027
:1014FC00F8BD4FF0FF30EFE70B6500007B64000098
:10150C0070B50D4606490446411A4911402205485A
:10151C00FFF7BAFF2B4601462046BDE8704018473E
:10152C00A4020020C000002070B500220121044656
:10153C00052000F041FD052000F020FD0F4801F0D2
:10154C002DFF0F4B984215D101F048FF26690D492C
:10155C00304604F01BFA00280BDB0125B564246926
:10156C00084904F1200004F011FA002801DB0020E6
:10157C00656570BD6FF00400FBE700BFC915000086
:10158C000000AD0B3462000001460C2300224B43DB
:10159C00084870B5C4184833D4E91056184422646E
:1015AC0004F0B6FA2DB132462B46BDE87040024825
:1015BC00184770BDA4020020C0000020012808B507
:1015CC0006D0032808D0A0B90F4B9B6C5B0719D130
:1015DC00BDE80840FFF7D8BF0C4940F266220C4822
:1015EC0004F086F940F26621BDE80840074804F093
:1015FC004BBA064940F26A22054804F079F940F2E8
:10160C006A21F1E708BD00BFA40200200B650000B1
:10161C007B64000008B54FF02003EFF3118183F3D6
:10162C001188BFF36F8F124A136843F0020013F056
:10163C00010310600CD04FF05022D2F80C34D2F8C9
:10164C000C2413F0010303D00A4804F061FA0123BF
:10165C0081F31188BFF36F8F23B1BDE808400020E0
:10166C00FFF792BF0120BDE8084001F0D5BE00BFD6
:10167C00FC020020EC020020074BD3E8EF2F22F0F5
:10168C000201C3E8E01F0028F7D1D30702D40120E0
:10169C0001F012BF704700BFFC0200201FB50022F2
:1016AC000123CDE902236B46084ACDF800D0CDF8D2
:1016BC0004D004F052FA002805DB4FF480420023DA
:1016CC00684603F009FB05B05DF804FB615B0000A4
:1016DC002DE9F843012205464649D1E8EF3FC1E820
:1016EC00E02F0028F9D19BB9434944484B60CB60AB
:1016FC008A60FFF74FF900280ADA4149414840F265
:10170C00262204F0F5F840F226213D4804F0BCF9FD
:10171C00ADB36B1E012B59D8012D07D14FF05023BF
:10172C00D3F81C3403F00303022B28D004F0CAFBBB
:10173C00044618B9344B1B78002B54D14FF02003BE
:10174C00EFF3118683F31188BFF36F8F01242F4FB2
:10175C00DFF8BC80DFF8BC904FF05022D2F8183480
:10176C00D2F81824D2030CD503F00303022B01D0BA
:10177C00012D06D124B386F31188BFF36F8FBDE81A
:10178C00F883C4B1304600F087FC4FF05022D2F8F9
:10179C001835DBB2012BDFD139680029DCD00021F0
:1017AC00396039680221C2F818152022C8F8802146
:1017BC00C9F80030D0E70021212003F08DF9E4E7CF
:1017CC004FF050230222C3F80423D8E70C490D48EC
:1017DC004FF40E7204F08CF8BDE8F8434FF40E7120
:1017EC00074804F051B94FF0502302220646C3F8C3
:1017FC000823ACE70003002094020020C402002060
:10180C000B6500007B640000CD08002004510050E3
:10181C0000E100E00850005010B5064C0648214687
:10182C00172204F065F82046BDE81040172104F09B
:10183C002BB900BF626500007B640000044A13688A
:10184C00C81A20F07F400344136003F08DBD00BF25
:10185C00140300202DE9F0474FF480374FF00009B6
:10186C00860000F1500406F15026A40006F58036DF
:10187C00A4B204F15024D6F84035DFF86C8021F086
:10188C007F4504F580348740D8F804A5A3EB0A0300
:10189C0023F07F432AF07F42012BC6F8402502D16A
:1018AC00132004F015FB0AF10202AB1A23F07F435C
:1018BC00B3F5000F88BF1546C4F80090236825F0D7
:1018CC007F43C8F84473C6F84035D8F804359A45B8
:1018DC0006D0EB1A023B23F07F43B3F5000F01D87F
:1018EC00BDE8F0872B46CFE700500150F8B5002437
:1018FC0027460F4E0F4B104A18461D6804B1F8BD11
:10190C00D2F80413C903FAD531680029F7D0346032
:10191C0031684FF48031C2F848130124D2F84015D5
:10192C0025B100205A681F60A847E3E70560E6E789
:10193C0040510150080300200050015038B50024DC
:10194C004FF480334FF400120D4D0121C5F80845BA
:10195C00C5F804330B4B1520C3F88021224600F048
:10196C002BFB152000F00AFB0123074A0220136011
:10197C00064A2B601360FFF7ABFE204638BD00BF54
:10198C000050015000E100E008500150100300200D
:10199C00134BB0F1FF3F08BF1846013800281CDD7F
:1019AC009842A8BF18460F4BD3F804250E4B196864
:1019BC00521A12F4000F18BF002022F07F4301339B
:1019CC000A4A03440A48106000205060044A9342BB
:1019DC0094BFC9188918FFF73DBF0020E3E700BF8B
:1019EC00FFFF7F000050015014030020080300206B
:1019FC004918000038B54FF02003EFF3118583F33D
:101A0C001188BFF36F8F154803F0A4FA40B914493D
:101A1C001448812203F06CFF8121114804F034F842
:101A2C000E4803F0B3FA104B0C48D3F804450F4B97
:101A3C001B68E41A24F07F4403F09AFA40B9084971
:101A4C000848AC2203F054FFAC21054804F01CF804
:101A5C0085F31188BFF36F8F204638BD1803002023
:101A6C00B56400007B64000000500150140300209A
:101A7C0000280DDB0122430900F01F0002FA00F0E0
:101A8C00044A203342F82300BFF34F8FBFF36F8F0C
:101A9C00704700BF00E100E0F7B500281C4614BFFA
:101AAC004FF400534FF400438A420BD2942227493F
:101ABC00274803F01DFF9421244803B0BDE8F040F3
:101ACC0003F0E2BF40D00D46224E002839D005F578
:101ADC00E0770135AA4246F82740F6D802FB03F01E
:101AEC00013A4B4300901C4803F002FF1B4B14F0CF
:101AFC00100F1B491B4808BF194603F0F9FE14F0E0
:101B0C00040F14BF72212D21174803F0F1FE14F0BD
:101B1C00020F14BF77212D21134803F0E9FE14F0B6
:101B2C00010F0CBF2D2178210F4803F0E1FE6C2131
:101B3C000D4803F0DDFE0D4803B0BDE8F04003F0A6
:101B4C00D7BE05F5C077C4E703B0F0BDE46500006F
:101B5C007B6400000030005005660000D865000072
:101B6C00CF6500000E6700001F66000022710000A8
:101B7C0030B54FF4A02485B04FF4A0212548264D54
:101B8C0003F0B6FE2168254803F0B2FE296824480C
:101B9C0003F0AEFE10220021684604F09FF8236883
:101BAC0068460093029400F0E9FF012001F016F85A
:101BBC00002000F0FFFF002001F024F8012100209C
:101BCC0001F03EF801F032F816482C6803F090FE54
:101BDC000820FFF74DFF144A24F00104D2F82038F6
:101BEC00002B07DA03F00303023B012B9CBF0F4BC6
:101BFC00C2F820380121082003F0D2FFBFF34F8F29
:101C0C00BFF36F8F640864002046214622462346AA
:101C1C00FEF78CFC2266000004000500396600000B
:101C2C004E6600006C660000003000500001008021
:101C3C002DE9F843394803F05BFE002100240846E7
:101C4C0040F217130A22FFF727FF40F20713202256
:101C5C000A210020FFF720FF314803F049FE3148EC
:101C6C0003F046FE40F21713082200210120FFF773
:101C7C0013FF2D4D40F20713202208210120FFF7FE
:101C8C000BFF274803F034FEC5F88044274803F0C7
:101C9C002FFE274EC5F8C044264F274DDFF8A880ED
:101CAC0095F805902146B9F1000F14BF33463B4619
:101CBC0040462A6803F01CFEB9F1000F0CD11F48F6
:101CCC00013403F015FE1C2C05F10805E8D114486D
:101CDC00BDE8F84303F00CBE95F8049095F90400A8
:101CEC00FFF7C6FE4FEA890303F1A04303F5405307
:101CFC00B9F1310FD3F8002806D0002A07DA02F028
:101D0C000302023A012A02D80D4AC3F80028012125
:101D1C00484603F045FF0B48D2E700BFA26600001F
:101D2C0022710000C666000000300050E86600001A
:101D3C0097660000DC65000040620000116700003F
:101D4C00000100801867000004670000014803F0E0
:101D5C0047BC00BF2063000008B5B0B14368042B3A
:101D6C000DD100220368D3E8EF1F012903D1C3E88A
:101D7C00E02F0028F7D1074808BF104608BD3BB13B
:101D8C00006801F077FF0020F8E76FF4E040F5E71A
:101D9C000148F3E7E98FFFFFEA8FFFFF10B5044618
:101DAC0018B90D4B0D485B689847616808290DD030
:101DBC0031F004030AD011F0020108D02146084882
:101DCC0001F034FE002323600023636010BD142255
:101DDC00206803F083FFF7E760000020296800000B
:101DEC001C03002010B5044618B9164B16485B6846
:101DFC0098476368042B23D0082B21D0CBB92368D8
:101E0C00BBB94FF0FF324FF0FF3321460F4801F0C2
:101E1C00B3FD08B923681BB90A4B0D485B6898479A
:101E2C0014220021206803F059FF636843F0020379
:101E3C006360206804F01FF8636843F0010363607B
:101E4C0010BD00BF60000020296800001C030020AA
:101E5C004F68000008B5E8B14368042B0CD101228F
:101E6C000368D3E8EF1F002903D1C3E8E02F002853
:101E7C00F7D10BD1002008BD53B100684FF0FF32F1
:101E8C004FF0FF3301F024FE0028F3D00348F2E7B3
:101E9C000348F0E76FF4E040EDE700BFE98FFFFF88
:101EAC00EA8FFFFF08B5064940231422054803F0CA
:101EBC00C6FFBDE808400449044803F0E3BB00BF7B
:101ECC003C0300201C030020386300002863000042
:101EDC00094A0A49936809685867996708494B6821
:101EEC0043F080534B60002383F31188BFF36F8F53
:101EFC009368986F704700BF68080020B8630000B3
:101F0C0000ED00E013498A684FF030001044EFF305
:101F1C00098C80E8F01F202080F31188BFF36F8FAD
:101F2C000D4F4FF000664A6A8A603E60506F002386
:101F3C00536780F3118802F1300090E8F01F8CF3A6
:101F4C00098802F1000004B503F059FEBDE8044015
:101F5C00704700006808002004ED00E01EF0040F3C
:101F6C000CBFEFF30880EFF30980816911F8021CB4
:101F7C000229FFD001B503F046FE01BD43B2002B90
:101F8C0008DB012200F01F0002FA00F0024A5B0994
:101F9C0042F82300704700BF00E100E0054B420906
:101FAC0053F82220012300F01F0003FA00F0104028
:101FBC00704700BF00E100E038B54C1C072C05460B
:101FCC0008D90D490D48582203F092FC58210A48B3
:101FDC0003F05AFD6BB2002BACBF03F16043084B0E
:101FEC004FEA4414E4B2ABBF03F5614305F00F05AF
:101FFC0083F800435C5538BD7C6800007B640000AE
:10200C0014ED00E042F8203C009B0B4942F81C3CCC
:10201C00019B21F0010142F8183C029B42F8081C7C
:10202C0042F8143C4FF0807342F8043C0023203AF1
:10203C0002654367704700BFBF590000044608B5EE
:10204C000E46154600F0B0FB084B9C60636E83F3A4
:10205C000B88284686F30988002163B681F3118822
:10206C00BFF36F8F0022002303F0A3FC680800204D
:10207C00014910220A60704710ED00E072B6404032
:10208C0080F31188BFF36F8FBFF34F8F30BF62B6F1
:10209C00BFF36F8F704700BF72B6494081F3118850
:1020AC0020BF80F3118862B6704700BF37B5054674
:1020BC000C46C9B18B6810480093D1E90023452127
:1020CC0003F0F7FC636945210093D4E903230B4823
:1020DC0003F0EFFC4521E269094803F0EAFC4521D5
:1020EC00A269084803F0E5FC2146284603B0BDE888
:1020FC00304001F0E5BA00BFB2680000E6680000AD
:10210C001A6900002E69000030BFFFF7FDBF00BF49
:10211C000B4A08B50B4B22F07F029A60BFF34F8F2E
:10212C00BFF36F8FD3F8882022F47002C3F8882095
:10213C0001F038FB02F03EFF00F018FB01F056FBFB
:10214C000000000000ED00E001B572B60B4A106A09
:10215C0000281EBF0021116203F06AFE62B6EFF385
:10216C000580A0F110004FEAC0000549014409C9DF
:10217C009847BDE801400349084700006808002063
:10218C00545F0000CD260000002080F31488BFF3BC
:10219C006F8F002080F30A8880F30B8803F07CFC9F
:1021AC0000200E490860BFF34F8F0D4880F308885C
:1021BC0000F0B6FA202080F311880A484FF4006131
:1021CC00401880F30988EFF314800221084380F350
:1021DC001488BFF36F8FFFF79BFF000094ED00E0B6
:1021EC00D0180020101A0020EFF30880EFF30981BB
:1021FC0001B5724600F070F901BD00BF70B52B4CF3
:10220C0006460D462A48452103F053FCA26AD00627
:10221C0003D54521274803F04CFCA36A190703D5C5
:10222C004521254803F045FC204CA36A9A0710D59C
:10223C004521224803F03DFC626BA36A1B0608D5BE
:10224C0045211F4803F035FC1EB1A36A23F080031F
:10225C00A362164CA26AD60703D54521194803F090
:10226C0028FCA36A980603D54521174803F021FCE6
:10227C000E4B9A6AD10602D49A6A92070DD59B6AC4
:10228C00DB060AD51149124840F24F1203F030FB1D
:10229C0040F24F110D4803F0F7FB0020034A936AFC
:1022AC0043F0FF039362287070BD00BF00ED00E0A7
:1022BC00616900007C690000B4690000CC69000011
:1022CC00E9690000046A0000286A00005C6A0000EA
:1022DC007B64000070B5234C06460D462248452110
:1022EC0003F0E7FBA26AD10403D545211F4803F094
:1022FC00E0FBA36A1A0503D545211D4803F0D9FB61
:10230C00184CA36A9B0510D51A48452103F0D1FB44
:10231C00A26BA36A180408D54521174803F0C9FB22
:10232C001EB1A36A23F40043A3620E4CA36A5905A1
:10233C0003D54521114803F0BCFBA36ADA050BD584
:10234C0045210F4803F0B5FB0020064A936A43F47D
:10235C007F439362287070BDA36A9B04F4D545211A
:10236C000848EFE700ED00E0966A0000B16A000053
:10237C00B4690000C76A0000E56A0000FF6A00004B
:10238C001F6B0000286A000038B5214C45212148FC
:10239C0003F08FFBA26A950103D545211E4803F07B
:1023AC0088FBA36ADC0103D545211C4803F081FBA3
:1023BC00174DAC6A14F4801404D04521184803F06E
:1023CC0078FB0224AB6A180303D54521154803F0AA
:1023DC0070FB0F4DAA6A510303D54521124803F037
:1023EC0068FBAB6A9A0303D54521104803F061FBE7
:1023FC00074DAB6ADB0303D545210D4803F059FBB0
:10240C00AB6A20466FEA03436FEA1343AB6238BDF5
:10241C0000ED00E03C6B0000596B0000716B00009C
:10242C00906B0000BF6B0000E26B00000C6C0000B6
:10243C002B6C000010B51E4C1E48452103F039FBD7
:10244C00A2696369580603D545211B4803F031FB8B
:10245C006369D90708D54521184803F02AFB63693D
:10246C0043F0FF03636110BD63699A0702D54521F0
:10247C001348F2E763695B0702D545211148ECE785
:10248C006369180702D545210F48E6E76369D90649
:10249C0002D545210D48E0E763699A0602D545212E
:1024AC000B48DAE763691B06D9D545210948D4E7FF
:1024BC00D0ED00E05B6C0000796C00008E6C0000CD
:1024CC00A96C0000CC6C0000EC6C00000E6D0000E0
:1024DC00286D0000476D00002DE9F041624B0D4660
:1024EC005C6800268AB0C4F3080786F31188BFF332
:1024FC006F8F02F07F43B3F17F4F1ED112F00103B7
:10250C0039D012F0400302F0080840F0A6805207C0
:10251C0054BF05461E462A68544B58BF0126134427
:10252C00012B98BF2A6C4521514803F0C2FAB8F12F
:10253C00000F1DD0EFF389855DB940F2DB324D49B8
:10254C004D4803F0D5F940F2DB314A4803F09CFAD0
:10255C0000250023FA1E98468DF807301346092BE8
:10256C0069D8DFE803F00A595D3861686868686506
:10257C00EFF38885E0E71E46DFE745213F4803F08F
:10258C0098FA394B8DF80780DC6A14F0020404D0F9
:10259C0045213B4803F08DFA48E0DB6A5B0022D50D
:1025AC004521384803F085FA374B1B7833B10120AD
:1025BC000DF10701FFF722FE044614E0334B1B78A4
:1025CC002BB101200DF10701FFF784FEF4E7304B2E
:1025DC001B889BB213B1FFF7D7FEEDE72D4B5B6960
:1025EC000BB1FFF727FF9DF8073093B9202229463E
:1025FC0002A803F048FB099B56B3C3F3080222B9A7
:10260C006FEA53236FEA43230993204602A9FFF78D
:10261C004DFD0AB0BDE8F08100200DF10701C9E7BE
:10262C0000200DF10701CFE7FFF704FF0024DAE7E4
:10263C0045211948AEE7194914F4F87F184A19488E
:10264C0008BF0A46A7F11003452103F032FAEDE763
:10265C0023F4FF7323F00103D6E7B8F1000F7FF4E6
:10266C006BAF0546012667E700ED00E0A6ED05011E
:10267C008D6D00005C6A00007B640000B16D000091
:10268C00CD6D0000F36D000028ED00E029ED00E0B9
:10269C002AED00E0D0ED00E0176E00005F6D000049
:1026AC00746D0000406E0000044B5A6942F0100239
:1026BC005A615A6942F480625A61704700ED00E039
:1026CC00044B9968586A884203D003494FF08052F2
:1026DC000A6070476808002004ED00E0BFF34F8FDC
:1026EC000549064BCA6802F4E0621343CB60BFF3A2
:1026FC004F8F00BFFDE700BF00ED00E00400FA05BE
:10270C0000231846054A1168C1F307218B4200D1FA
:10271C007047936010610133F8E700BF90ED00E063
:10272C0010B572B6002484F31388FFF7E9FF0E4A44
:10273C00234611464FF0FF3403F120000133102BD8
:10274C0042F82040F8D100234FF0FF3003F1600233
:10275C000133102B41F82200F8D162B6BFF34F8F32
:10276C00BFF36F8F10BD00BF00E100E000232021FC
:10277C000348C2180133412B82F80013F9D170477A
:10278C0000E100E0064B9B68834207D1EFF3058321
:10279C0023B1044A536843F08053536002F0D2B91A
:1027AC006808002000ED00E01FB5094C094A2346DB
:1027BC000121094800F05EF900230393074B012126
:1027CC00E41A01A80193029400F070F904B010BD52
:1027DC0000600120000000204C630000700100200C
:1027EC0010B50B680C7A23F01F0204F01F031A4378
:1027FC00CB68640923F01F03044943EA440343F004
:10280C0001038860CA600B6110BD00BF90ED00E051
:10281C0030B54B680C6885B00A898D7A0094013B01
:10282C0024F01F04234402F01F0242EA451223F055
:10283C001F030F2804468DF80820039309D902467C
:10284C004521064803F035F96FF01504204605B014
:10285C0030BD6946FFF7C4FFF8E700BF5C6E0000AF
:10286C002DE9F04F8946144606464FF00008524DAC
:10287C0085B0C84523DA7768002F42D01F2F17D9AF
:10288C00FB0615D1D6F800A01AF01F0F10D1504638
:10289C0003F0C4F9834607EB0A00013803F0BEF9D4
:1028AC00834510D06FF0150B5A464521434802E082
:1028BC0042464521424803F0FCF86FF015042046CF
:1028CC0005B0BDE8F08F1BF1160FEDD0631E5B4514
:1028DC00EADBC5F808B0E968C5F808B02F6921F043
:1028EC001F01D6E900321A44994247F01F0702F142
:1028FC00FF3A1CD1574508D131465FFA8BF0FFF7F0
:10290C0087FF08F101080C36B3E73146C5F808B06B
:10291C00EB6822F01F0203F01F031A43EA60E0B2D7
:10292C00FFF776FF10F1160FC7D0441CE9E7013B07
:10293C005745E0B223F01F03C5F808B006D12A6949
:10294C00314602F01F0213432B61E9E7296901F0BC
:10295C001F010B432B613146FFF75AFF10F1160F85
:10296C00ABD0C5F808B0EA689DF80830013F62F3B7
:10297C0004038DF808302B699DF808205B0863F37D
:10298C0047128DF80820D6E900321344009323F047
:10299C001F033B44441CA3EB0A0AE0B22AF01F03BA
:1029AC000F28039303D902464521064883E769465D
:1029BC00FFF716FFB9E700BF90ED00E0AF6E000027
:1029CC00876E00005C6E00000522034B5A60BFF35B
:1029DC004F8FBFF36F8F704790ED00E0BFF35F8FA9
:1029EC000022014B5A60704790ED00E070B51B4D12
:1029FC002E68102E0DD94FF49E721949194802F009
:102A0C0077FF17484FF49E7103F03EF84FF0FF30FC
:102A1C0070BDFFF7E3FF0020134C144A226386427B
:102A2C0015D1134B1E70FFF7CFFF2368C3F3072399
:102A3C00102B0AD00A490B484FF4CF7202F058FF02
:102A4C004FF4CF71064803F01FF80020E0E76968E7
:102A5C0001EB0011FFF7C4FE0130E0E75863000002
:102A6C00D76E00007B64000090ED00E0AAFF4400EC
:102A7C00CC08002010B50A4C2278FFF7F1FE20702C
:102A8C0016300CD10749084840F2051202F030FF0D
:102A9C00BDE8104040F20511024802F0F5BF10BD30
:102AAC00CC080020D76E00007B6400002DE9F74FA6
:102ABC002D4D8A4606464FF00008AB462B4FD045AD
:102ACC0002DB03B0BDE8F08FD6F80490B9F1000F2B
:102ADC0044D031680846019103F0A0F801990446EE
:102AEC0009EB0100013803F099F884424FF014020D
:102AFC001F4B13D06FF0150302FB08F84BF808308E
:102B0C0040F215121B491C4802F0F2FE40F215115E
:102B1C00184803B0BDE8F04F02F0B6BF14F1160F21
:102B2C002C60EDD01978A142EADD02FB08B0BC6044
:102B3C00BC60FC6800F10801007B64F304000871C0
:102B4C0038690C79400860F347140C71F96821F06E
:102B5C001F016960396921F01F01296108F1010821
:102B6C0014350C36ABE700BF3C08002090ED00E0BC
:102B7C00CC080020D76E00007B64000082680C4BF0
:102B8C009A60036883F38888436883F38988027B9F
:102B9C0002F00101EFF3948323F00303920748BF83
:102BAC0043F0020309B143F0010383F394887047A7
:102BBC0000ED02E0084AD36848B123F400531B042B
:102BCC001B0C43F0BF6343F40033D36070479BB2DC
:102BDC0043F40053F5E700BF00ED00E0084AD3686A
:102BEC0040B19BB243F4804343F0BF6343F40033E2
:102BFC00D360704723F480431B041B0CF4E700BF25
:102C0C0000ED00E0084AD36840B19BB243F00803E2
:102C1C0043F0BF6343F40033D360704723F00803E1
:102C2C001B041B0CF4E700BF00ED00E0034AD2F8D4
:102C3C008C3043F44063C2F88C30704700ED00E0F8
:102C4C00084B1A6818B142F001021A60704722F062
:102C5C0001021A601A6811B142F00202F5E722F083
:102C6C000202F2E7D0ED00E0014B1860704700BFA4
:102C7C0028000020F0B54B79012B2AD0032B25D14D
:102C8C0010268B79032B21D1CC792CB1012C1DD1A1
:102C9C0043685B689B0719D00A7912B1022A15D1D7
:102CAC000E220B684568B3F5164F2D6865D02DD8EC
:102CBC00B3F5165F64D016D8B3F5966F62D00AD808
:102CCC00B3F5967F61D0B3F5167F61D06FF022001B
:102CDC0052E00026D5E7B3F5166F5CD0B3F5965FDE
:102CEC00F4D1374B3CE0B3F5E14F57D007D8B3F5EF
:102CFC00615F55D0B3F5964FE8D1324B30E047F6D3
:102D0C001227BB42E2D14FF4000329E0B3F5613F37
:102D1C0048D013D8B3F5963F47D009D84DF6C02705
:102D2C00BB4244D0B3F5614FD0D14FF46B0317E0E5
:102D3C00B3F5E13FCAD14FF0EB7311E0B3F5612F5E
:102D4C0038D008D8204FBB4237D0B3F5E12FBDD1D6
:102D5C004FF0E86304E01D4FBB42B7D14FF08053F6
:102D6C00C5F82435036934432243043303C9C5F839
:102D7C006C2583E803000020F0BD4FF41D03EFE742
:102D8C00134BEDE74FF49E23EAE74FF4A033E7E74C
:102D9C004FF41C33E4E74FF41D23E1E70D4BDFE761
:102DAC000D4BDDE74FF06C73DAE70C4BD8E74FF4C3
:102DBC006503D5E74FF07063D2E74FF08063CFE740
:102DCC0000B0130000A04E0090D0030040420F0052
:102DDC000050270000C0750000F03A0000903A0146
:102DEC00036810B55A090CBF4FF0FF32002203F0F4
:102DFC001F0322FA03F3DB0704460AD40E490F48DB
:102E0C0040F21A2202F074FD40F21A210A4802F034
:102E1C003BFE236803F01F025B0922600AD00649BF
:102E2C00064840F21F2202F063FD40F21F210248C7
:102E3C0002F02AFE024810BD266F00007B640000E1
:102E4C0000258450F8B505460F46066903F03AF89C
:102E5C0010B92C4B1B7883B94FF02003EFF311847E
:102E6C0083F31188BFF36F8F284602F0A6FF28BBAF
:102E7C0084F31188BFF36F8FEEE76424284602F0C9
:102E8C009CFF70B9012002F0C7FF013CF6D1002174
:102E9C00212001F021FEF0E784F31188BFF36F8F3E
:102EAC00F5E74FF02003EFF3118483F31188BFF3A0
:102EBC006F8F284602F081FF0028EDD0012206F822
:102ECC00107F69680B68C3F84465C3F84825002275
:102EDC00C3F82021D3F82001C3F85821D3F8582186
:102EEC004A68D20641BF0822C3F800254FF480027D
:102EFC00C3F8042301229A6084F31188BFF36F8F07
:102F0C00F8BD00BFCD0800202DE9F3474FF00008B5
:102F1C00436807691C680B68C4F80085064638606E
:102F2C0001A80D460193FFF75BFF0123019A934023
:102F3C0083602B6801A80193FFF752FF0322019BCA
:102F4C00803340F823206B68591C07D001A80193EB
:102F5C00FFF746FF019B803340F82380D5E900231F
:102F6C00C4F80C25C4F81435AB685A1C08D001A859
:102F7C000193FFF735FF0022019B803340F823209B
:102F8C00EB68581C11D001A80193FFF729FF01230E
:102F9C00019A93408360EB6801A80193FFF720FF2F
:102FAC000322019B803340F823203169D5E902329A
:102FBC003046C4F808250431C4F81035FFF75AFE22
:102FCC00804680B973685B6819073AD507F112001F
:102FDC0000F00CFB304B984209D045212F4802F0F1
:102FEC0068FD6FF00408404602B0BDE8F08714F5A8
:102FFC00907A97F812900AD129492A484FF4F57221
:10300C0002F076FC4FF4F571254802F03DFD49F0D5
:10301C00004914F10C0FCAF880900AD120492148BC
:10302C004FF4F87202F064FC4FF4F8711C4802F093
:10303C002BFD0123C4F88C90BA7C93401A4AC2F839
:10304C0004350823C4F800356B6801330CD0002319
:10305C00C4F81031D4F8103107F11103C4F8343529
:10306C000123C4F838352360736810375B681A077E
:10307C005CBF4FF48072C4F80423DB0644BF4FF4EA
:10308C008003C4F804330023C4F84475C4F84835ED
:10309C000123A360E360A6E70000AD0B596F0000AD
:1030AC007D6F00007B6400000070015030B585B06E
:1030BC006C460546084B0FCB84E80F00002201211B
:1030CC000820FEF779FF0820FEF758FF2146284616
:1030DC00FFF71AFF05B030BDC061000030B585B0F8
:1030EC006C460546084B0FCB84E80F0000220121EB
:1030FC000920FEF761FF0920FEF740FF2146284614
:10310C00FFF702FF05B030BDD06100000348452138
:10311C0008B502F0CEFC0020FFF7E0FACC6F0000FF
:10312C002DE9F0430025214C214E54F8048CDFF896
:10313C00889085B0A84503D8002005B0BDE8F08381
:10314C00636A96E807001F6801AB83E807000C224E
:10315C001946384602F087FD90B98FB1636A216930
:10316C001B681A6991420BD19A69A169914207D8DF
:10317C00E169914204D962695B6932EA03030AD0BE
:10318C00276A67B10B4802F0B3FB404080F311880B
:10319C004FF0040002DFE36801351C44CAE74846DF
:1031AC0002F0A6FB636A1F60F5E700BF3C0200005B
:1031BC00E0610000EE6F000017700000054B18680E
:1031CC00043B1B68092B03D1431E584258417047DE
:1031DC00002070473401FF004A4A08B5136843F0D9
:1031EC0002031360484B1B68092B01BF4FF050239F
:1031FC000022C3F81421C3F81821FFF7DFFF30B108
:10320C000123424A1360A2F63822C2F878353E4BAD
:10321C001B68092B07D13E4B1B68012B1EBF0122DB
:10322C003C4BC3F87825FFF7C9FF10B10E223A4B7F
:10323C001A60354B1B68092B04D10022374B1A60DE
:10324C0001225A600022D30003F57F03D3F8001348
:10325C00013108D0D3F800130132D3F80433B2F59E
:10326C00807F0B60EFD12E4BDA69D1073BD52D4B0C
:10327C001946D3F80024012AFBD1C3F80425D1F850
:10328C000034012BFBD1264BDA69D20708D5DA6959
:10329C00244922F00102DA61D1F80024012AFBD181
:1032AC001A6A01320AD11A6A22F0FF0242F0200295
:1032BC001A621C4AD2F80034012BFBD10022194BA4
:1032CC00C3F80425D3F80024012AFBD1BFF34F8F98
:1032DC001549164BCA6802F4E0621343CB60BFF386
:1032EC004F8F00BFFDE71B6A0133C0D00E4AD2F8E6
:1032FC008C3043F44063C2F88C300D4B0D4A1A608D
:10330C0008BD00BFD0ED00E03001FF00384A00508E
:10331C003401FF0000400050E4AE03500C47005055
:10332C000080FF000090035000ED00E00400FA055F
:10333C00540000200090D00308B570B101281BD0B8
:10334C0040F242321349144802F0D2FA114840F2CA
:10335C00423102F099FB00200DE031B14FF05023C7
:10336C00D3F8183403F003030B704FF05023D3F849
:10337C001804C0F3004008BD31B14FF05023D3F80E
:10338C000C3403F001030B704FF05023D3F80C04F2
:10339C00EFE700BF4A7000007B64000010B50446E4
:1033AC0040B909490948B32202F0A2FAB3210648F0
:1033BC0002F06AFB064B1A7922B9012205481C60FF
:1033CC001A7110BD0448FCE77E7000007B6400009D
:1033DC00580800200000AD0B0C00AD0B08B50B4BD2
:1033EC001B7943B90A490B48CC2202F081FACC2153
:1033FC00074802F049FB0520FEF7D0FD20B9BDE8D7
:10340C0008400520FEF7BABD08BD00BF58080020D3
:10341C007E7000007B640000224B13B51B790446C0
:10342C0053B9214921484FF4847202F061FA4FF4E8
:10343C0084711D4802F028FB6CB1012C28D04FF48C
:10344C009D721949194802F053FA4FF49D711648B0
:10345C0002F01AFB18E020460DF10701FFF76CFF94
:10346C004FF0502390B19DF80720022A0ED1C3F8DB
:10347C00182500220E4B1A601B6802224FF05023B5
:10348C00C3F8042301229A6002B010BD0122EEE7BA
:10349C000022084B1A601B684FF05023C3F80443FA
:1034AC001C60F1E7580800207E7000007B6400006F
:1034BC0004510050005100502D4B13B51B7904469C
:1034CC0053B92C492C4840F2411202F011FA40F247
:1034DC004111284802F0D8FA74B1012C27D02549A3
:1034EC00254840F25D1202F003FA40F25D112148CA
:1034FC0002F0CAFA02B010BD4FF050230222C3F8FA
:10350C0008230122C3F8044142F2107403F58273BC
:10351C001B681A4B1A6000210846FFF70DFF0028A4
:10352C00E8D0012002F078FC013CF4D1E2E74FF046
:10353C0050230022C3F80843C3F8002103F580731D
:10354C001B680F4B1C608DF8074042F21074012071
:10355C000DF10701FFF7F0FE0028CBD09DF8070016
:10356C000128C7D102F058FC013CF0D1C2E700BFE2
:10357C00580800207E7000007B6400000C50005046
:10358C0004500050164B07B51A6852B10020186051
:10359C001B6801224FF05023C3F80823114B1B6802
:1035AC009847114B1A688AB100200DF10701186079
:1035BC001B68FFF7C1FE9DF807104FF0502301293F
:1035CC004FF0020205D1C3F81825996003B05DF8DD
:1035DC0004FBC3F80823034B01201B689847F5E74D
:1035EC000051005058080020045100500B4A70B58F
:1035FC001668F14389B271B10025ECB221FA04F3DB
:10360C00DB0705F10105F8D50123A3403343047012
:10361C000348136070BD0348FCE700BF600800203E
:10362C000000AD0B0200AD0B0E4B70B553F82040F3
:10363C00013053F82060A64200D870BDD4E90035A3
:10364C002846984765B1EB6830B10028B8BF4042B6
:10365C00FF28A8BFFF2018705A7842F001025A7058
:10366C000834E8E7A463000070B5054610B90024DF
:10367C00204670BD0378002BF9D00F4A0F4C16462C
:10368C00944208D10D4CB442F1D0204602F0C7FB55
:10369C0050B91834F7E7204602F0C1FB10B123688B
:1036AC00AB42E5D01834EBE72846216802F0CFFA9C
:1036BC000028EED1DCE700BF20010020C000002074
:1036CC00F7B504460E464FF02003EFF3118783F352
:1036DC001188BFF36F8F01F02FFA0022042C98BFD2
:1036EC001D4B054694BF53F824301C4B00924521CA
:1036FC0022461B4802F0DDF93EB1F369C3F308031F
:10370C001BB14521174802F0D4F935B1284602F017
:10371C00E3FB034608B1027802B9134B2A46452154
:10372C00124802F0C6F931462046FFF7EFFC042C94
:10373C0008D10F490F488E2202F0DAF88E210C487E
:10374C0002F0A2F987F31188BFF36F8F284603B0FC
:10375C00BDE8F040FFF716B8BC630000BB7000007A
:10376C00D1700000FE700000C970000024710000D0
:10377C00417100007B64000008B5094C4FF0200239
:10378C00EFF3118382F31188BFF36F8F01F078FD93
:10379C002062FDF7D3FD0028F0D1FEF76FFCEDE7BA
:1037AC00680800200248034A0021121A02F096BA57
:1037BC0070010020D0080020012208B5094B02201E
:1037CC001A70FFF731FF01F0E9FB0320FFF72CFF24
:1037DC0001F040FB02F072F8034A137B23F0010363
:1037EC00137308BDCD080020F00100202DE980489E
:1037FC003D4BA7B003F5006787F3088883F30A886D
:10380C000024E023394D4FF0010B85F82230EC7782
:10381C002C766C76AC76EC766B6A354E43F4E02302
:10382C006B626B6ADFF8E0A043F400236B62AC635D
:10383C00EB68DFF8D8809BB243F0BF6343F40833E6
:10384C00EB60FEF731FFFEF713FC4FF0FF33AB627A
:10385C00EB6240F20113274DADF8243006ABAB60A0
:10386C00CDE91F4402F0DAFA2046FFF7DDFE012015
:10387C00FFF7DAFE01F010F81F4B6E624FF4805226
:10388C001E49059330465346CDE9034BCDE901441F
:10389C00009401F08BFA737B814623F004033046CD
:1038AC00737300F071FE0F234FF4A072CDE9024345
:1038BC001349144B4046CDE904B4CDE9005401F052
:1038CC0075FA98F80D30524623F0040388F80D3041
:1038DC0005F1180349463046C5E90633C5F80C8096
:1038EC002C756F60FEF7AAFB101A002000ED00E0AB
:1038FC00F001002068080020AD710000D008002005
:10390C00D018002085370000C5370000700100205A
:10391C002DE9F041144D154CA846154EAC4208D972
:10392C0031461448402201F0E3FF4021304602F0BA
:10393C00ABF8444502D30020BDE8F081D4E9041271
:10394C0042EA010313F003030BD1E068A361834245
:10395C0001D12034E2E7A76901331760A2610A4460
:10396C00F5E76FF01500E7E72001002020010020AB
:10397C00B57100007B6400002DE9F74304460D4649
:10398C009046994600F108064FF02003EFF311879B
:10399C0083F31188BFF36F8F304601F0DBFA40B927
:1039AC001F492048812201F0A3FF81211C4802F00D
:1039BC006BF8304601F0EAFAA369C3B12B601B68BF
:1039CC00A361E3690133E3610024304601F0D0FACE
:1039DC0040B913491348AC2201F08AFFAC211048BE
:1039EC0002F052F887F31188BFF36F8F13E058EA97
:1039FC00090203D16FF00B042B60E6E7224639462F
:103A0C003046CDE9008900F0D9FB044618B9064BC5
:103A1C009B685B692B60204603B0BDE8F08300BF58
:103A2C00B56400007B640000680800202DE9F041BB
:103A3C0004460D4600F108064FF02003EFF3118702
:103A4C0083F31188BFF36F8F304601F083FA40B9CE
:103A5C001D491E48812201F04BFF81211A4802F0BA
:103A6C0013F8304601F092FAD4F81880B8F1000F30
:103A7C000FD1204600F0D2FE58B12A68C0F87880E9
:103A8C00426100F081FD39463046BDE8F04100F05E
:103A9C00F7B92B68A26930461A602B68A361E369F9
:103AAC00013BE36101F064FA40B907490748AC22D5
:103ABC0001F01EFFAC21044801F0E6FF87F31188EA
:103ACC00BFF36F8FBDE8F081B56400007B6400002C
:103ADC002DE9F341044616461F46EFF3058343B127
:103AEC005F4960487D2201F003FF7D215C4801F0B5
:103AFC00CBFF4FF02003EFF3118883F31188BFF352
:103B0C006F8F594801F026FA40B95849554881221F
:103B1C0001F0EEFE8121554801F0B6FF524801F04C
:103B2C0035FAE368524AD3B1A0689168884233D021
:103B3C0056EA070332D14C4801F01AFA40B94B4906
:103B4C004848AC2201F0D4FEAC21484801F09CFF5F
:103B5C0088F31188BFF36F8F6FF00F0019E0916835
:103B6C0091F90E100133E36093683F482161A36023
:103B7C0001F0FEF940B93D493A48AC2201F0B8FEDB
:103B8C00AC213A4801F080FF88F31188BFF36F8FA6
:103B9C00002002B0BDE8F0812169E3E790F90E3016
:103BAC0091F90E109942A8BF194621EAE1718B4296
:103BBC003CDD00F0A9FD054622464146CDE90067F3
:103BCC00294800F0FBFA0028E3D04FF02003EFF374
:103BDC00118683F31188BFF36F8F234801F0BAF974
:103BEC0040B922491F48812201F082FE81211F48E1
:103BFC0001F04AFF1C4801F0C9F9236821699C4275
:103C0C0007D033B193F90E309942A8BF194621EA77
:103C1C00E171A06890F90E30994209D16DB131462D
:103C2C00114800F02DF96FF00A00B2E70025C3E748
:103C3C0000F06AFD0028F2D1F0E70B4801F098F98A
:103C4C0040B90A490748AC2201F052FEAC210748A2
:103C5C0001F01AFF86F31188BFF36F8FE3E700BF03
:103C6C00DA7100007B64000064080020B564000079
:103C7C006808002038B50446EFF3058343B1454985
:103C8C004548D82201F034FED821424801F0FCFE10
:103C9C00A368002B78D0414DAA68934277D1E36892
:103CAC0043B93C493C48EA2201F022FEEA2139485A
:103CBC0001F0EAFEEFF3058343B139493648FC22A3
:103CCC0001F016FEFC21364801F0DEFEAB68DB7B12
:103CDC00012B08D132493048FD2201F009FEFD21AB
:103CEC002F4801F0D1FEAA68D37B013BD373E36864
:103CFC00012B05D0013BE36000F0DEFA002038BD5B
:103D0C004FF02003EFF3118583F31188BFF36F8F0E
:103D1C00244801F01FF940B923491F48812201F0C2
:103D2C00E7FD8121204801F0AFFE1E4801F02EF97D
:103D3C00A068216990F90E30994201D000F0E4FCA2
:103D4C00204600F06BFDA06058B190F90E20226166
:103D5C000022826700F018FC2946124800F090F807
:103D6C00CAE7E0600F4801F003F940B90E490A4870
:103D7C00AC2201F0BDFDAC210B4801F085FE85F3B2
:103D8C001188BFF36F8FB7E76FF01500B7E74FF0EF
:103D9C00FF30B4E7DA7100007B6400006808002093
:103DAC00FC71000064080020B564000010B5084CDC
:103DBC0023685BB1FDF71EFE03462068054A0344E9
:103DCC000021BDE81040136101F090BA10BD00BF96
:103DDC00A408002068080020F8B504460D464FF0F2
:103DEC002003EFF3118683F31188BFF36F8F1E4806
:103DFC0001F0B0F840B91D491D48812201F078FD51
:103E0C0081211A4801F040FE174801F0BFF84FF429
:103E1C000047002240F2E7300021164BE7FB04017B
:103E2C001A6100234FF47A72FCF702FA002C124B41
:103E3C0016DC1860114B1D60FFF7B8FF0A4801F043
:103E4C0097F840B909490A48AC2201F051FDAC2160
:103E5C00064801F019FE86F31188BFF36F8FF8BD89
:103E6C000228B8BF0220E4E79C080020B5640000DB
:103E7C007B64000068080020A4080020A008002033
:103E8C0010B503460C46C1B9EFF30582AAB9144A22
:103E9C00516A9268914210D001F06AF840B9114908
:103EAC001148C32201F024FDC3210E4801F0ECFDA2
:103EBC00BDE810400020FEF70BB8184601F058F88A
:103ECC0040B908490848AC2201F012FDAC21054864
:103EDC0001F0DAFD84F31188BFF36F8F10BD00BFC2
:103EEC0068080020B56400007B64000038B54FF012
:103EFC002003EFF3118583F31188BFF36F8F2048F4
:103F0C0001F028F840B91F491F48812201F0F0FC4C
:103F1C0081211C4801F0B8FD194801F037F8EFF386
:103F2C00058343B119491848FC2201F0E1FCFC213E
:103F3C00164801F0A9FD164CA268D27B012A08D1C3
:103F4C0012491148FD2201F0D3FCFD210F4801F06C
:103F5C009BFDA268D37B013BD373094801F008F8A1
:103F6C0040B908490848AC2201F0C2FCAC21054814
:103F7C0001F08AFD85F31188BFF36F8F38BD00BF48
:103F8C009C080020B56400007B640000FC710000FC
:103F9C00680800200B4B10B599420C460AD10A490F
:103FAC000A484FF46E7201F0A3FC4FF46E71064890
:103FBC0001F06AFDD4E9003213605A600023C4E9B1
:103FCC00003310BD70010020177200007B640000EC
:103FDC00836810B5044653B90A490B4840F249228C
:103FEC0001F086FC40F24921064801F04DFD2146C6
:103FFC00A068FFF7CFFF637B23F0020363730023FA
:10400C00A36010BD177200007B64000038B5134C20
:10401C00024604F1280001F04BFF054600B9E568A3
:10402C00AAB9A36843B90E490E48882201F060FC76
:10403C0088210B4801F028FDA3685A7BD20606D1D3
:10404C00AA6922B9DA897F2A01D9636238BDA368CB
:10405C00AB4201D0FFF7AAFE6562F7E768080020C3
:10406C00177200007B64000010B590F90D20044617
:10407C00002A437B06DA03F07F03014643730648AC
:10408C00FFF788FF054B9868031B58425841BDE861
:10409C001040FFF7BBBF00BF90080020680800204D
:1040AC0038B504460D46FFF7DFFF637B43F0020390
:1040BC00637325B3184BA5609C420AD11749184865
:1040CC0040F2A93201F014FC40F2A931134801F07E
:1040DC00DBFC2B689D4208BF0023002B38BF00235C
:1040EC009BB194F90E1093F90E20914208D0521AFC
:1040FC00002A05DD5A68C4E9003214605C6038BDE2
:10410C006A68934201D01B68EAE76B68C4E9005304
:10411C001C606C60F3E700BF700100201772000098
:10412C007B6400002DE9F04104460D4616461F46FF
:10413C004FF02003EFF3118883F31188BFF36F8FD7
:10414C001A4800F007FF40B919491A48812201F0BA
:10415C00CFFB8121164801F097FC144800F016FFA4
:10416C0020462946FFF79CFF104800F001FF40B99C
:10417C000F491048AC2201F0BBFBAC210C4801F0FC
:10418C0083FC88F31188BFF36F8F7B1C08BFB6F1DB
:10419C00FF3F08D032463B4604F118000649BDE803
:1041AC00F04100F071BFBDE8F08100BF9C08002019
:1041BC00B56400007B6400008546000038B50546F8
:1041CC000D4B0C4698680D4B11461860DDE9042325
:1041DC00FFF7A8FF284600F0CBFE40B90849094874
:1041EC00C32201F085FBC321054801F04DFC20469C
:1041FC00BDE83840FDF76CBE680800209808002028
:10420C00B56400007B64000070B50446183000F003
:10421C00FBFF4FF02003EFF3118683F31188BFF3FC
:10422C006F8F204800F096FE40B91F491F4881222D
:10423C0001F05EFB81211C4801F026FC194800F0BE
:10424C00A5FE94F90D20637B002A06DA03F07F03A8
:10425C00214617486373FFF79DFE164D637BA868D4
:10426C0043F010036373031B58425841FFF7CEFE13
:10427C000C4800F07DFE40B90B490C48AC2201F013
:10428C0037FBAC21084801F0FFFB86F31188BFF324
:10429C006F8FAB68A34203D1BDE8704001F0FEBD47
:1042AC0070BD00BF9C080020B56400007B6400005A
:1042BC00900800206808002038B54FF02003EFF379
:1042CC00118583F31188BFF36F8F244800F042FEF1
:1042DC0040B923492348812201F00AFB812120485F
:1042EC0001F0D2FB204C1D4800F050FEA268D27B9E
:1042FC0052B91E491B484FF4527201F0F9FA4FF4AF
:10430C0052711A4801F0C0FBEFF3058353B1174902
:10431C00144840F2493201F0EBFA40F249311348AB
:10432C0001F0B2FBA2680020D37B0133D373FFF7FB
:10433C006DFE0A4800F01CFE40B909490948AC2240
:10434C0001F0D6FAAC21064801F09EFB85F31188EA
:10435C00BFF36F8FBDE8384001F0A0BD9C08002072
:10436C00B56400007B640000680800201772000030
:10437C0070B590F90D200446002A437B06DA03F051
:10438C007F03014643732048FFF704FE637B63F011
:10439C007F0363731D4B9C420AD11D491D4840F29B
:1043AC00A93201F0A5FA40F2A931194801F06CFBD1
:1043BC00194A114651F8283FD56A8B4208BF002391
:1043CC00002B38BF0023CBB194F90E6093F90E008B
:1043DC0086420FD0801B00280CDD5968C4E90031DF
:1043EC000C605C609068031B58425841BDE87040FB
:1043FC00FFF70CBEAB4201D01B68E4E7C4E9001523
:10440C002C60D462EEE700BF900800207001002001
:10441C00177200007B6400006808002070B5044629
:10442C004FF02003EFF3118583F31188BFF36F8FE7
:10443C00254800F08FFD40B924492548812201F020
:10444C0057FA8121214801F01FFB1F4800F09EFD07
:10445C00204B214A986811688842194613D1FFF7FE
:10446C00A5FC194800F084FD40B918491848AC2245
:10447C0001F03EFAAC21154801F006FB85F31188DA
:10448C00BFF36F8F70BD00261660144A1268BAB164
:10449C00C2897F2A14D8427BD20611D1104A90F9D6
:1044AC000E60126896420BDB0E4A904208D01A69D5
:1044BC00A24202DCFFF75CFFD1E7121B1A61D0E7C6
:1044CC0000230B61CDE700BF9C080020B564000001
:1044DC007B6400006808002098080020A4080020D5
:1044EC00A00800207001002070B590F90D20044642
:1044FC00002A437B3FDBDA063DD18569002D3AD19A
:10450C0063F07F0343731C4B98420AD11B491C4830
:10451C0040F2A93201F0ECF940F2A931174801F050
:10452C00B3FA18490B4653F8280F984218BF0546A2
:10453C00002D1A462B4638BF0023CD6AB3B194F92F
:10454C000E6093F90E0086420CD0801B002809DD0A
:10455C005A68C4E9003214605C600020BDE8704009
:10456C00FFF754BDAB4201D01B68E7E7C4E9002557
:10457C002C60CC62F1E770BD700100201772000056
:10458C007B6400006808002038B504464FF0200317
:10459C00EFF3118583F31188BFF36F8F124800F08E
:1045AC00D9FC40B911491248812201F0A1F98121AD
:1045BC000E4801F069FA0C4800F0E8FC2046FFF7C1
:1045CC0093FF094800F0D4FC40B908490848AC22D4
:1045DC0001F08EF9AC21054801F056FA85F31188EB
:1045EC00BFF36F8F38BD00BF9C080020B56400007E
:1045FC007B64000038B504464FF02003EFF31185BF
:10460C0083F31188BFF36F8F184800F0A3FC40B9F7
:10461C0017491848812201F06BF98121144801F0E7
:10462C0033FA124800F0B2FC637B5A0711D40F48DE
:10463C0000F09EFC40B90E490E48AC2201F058F92E
:10464C00AC210B4801F020FA85F31188BFF36F8F72
:10465C0038BD23F0040320466373FFF745FF29465A
:10466C00BDE838400148FFF70BBC00BF9C08002098
:10467C00B56400007B64000070B504464FF0200365
:10468C00EFF3118683F31188BFF36F8F1B4800F093
:10469C0061FC40B91A491B48812201F029F981219A
:1046AC00174801F0F1F9154800F070FC14F80B3CB8
:1046BC0013F0280F10D154F8103CA4F1180513B1C5
:1046CC002846FFF785FC14F80B3C284623F014030E
:1046DC0004F80B3CFFF708FF084800F049FC40B910
:1046EC0007490848AC2201F003F9AC21044801F059
:1046FC00CBF986F31188BFF36F8F70BD9C08002037
:10470C00B56400007B640000F8B504460E464FF01B
:10471C002003EFF3118783F31188BFF36F8F3848B1
:10472C0000F018FC40B937493748812201F0E0F815
:10473C008121344801F0A8F9314800F027FC637B53
:10474C0076B2DA0658D1A569002D55D103F07F0356
:10475C00637321462D48FFF71DFC637BA67363F042
:10476C007F0363732A4B9C420AD12A49264840F2A4
:10477C00A93201F0BDF840F2A931264801F084F9C4
:10478C0025490B4653F8280F984218BF0546002DB3
:10479C001A462B4638BF0023CD6A43B394F90E60FA
:1047AC0093F90E0086421ED0801B00281BDD5A6830
:1047BC00C4E9003214605C600120FFF727FC01247F
:1047CC000F4800F0D5FB40B90E490F48AC2201F060
:1047DC008FF8AC210B4801F057F987F31188BFF320
:1047EC006F8F2046F8BDAB4201D01B68D5E7C4E9FA
:1047FC0000252C60CC62DFE7A6730024E0E700BF45
:10480C009C080020B56400007B6400009008002028
:10481C0070010020177200006808002038B50446AB
:10482C004FF02003EFF3118583F31188BFF36F8FE3
:10483C00164800F08FFB40B915491648812201F04B
:10484C0057F88121124801F01FF9104800F09EFB27
:10485C00204601F02DFB044628B1FFF7B9FB04F10B
:10486C00180000F0D1FC094800F082FB40B908495F
:10487C000848AC2201F03CF8AC21054801F004F9E1
:10488C0085F31188BFF36F8F204638BD9C0800203C
:10489C00B56400007B6400000021044B084603F162
:1048AC002802C3E90A22FFF797BA00BF6808002064
:1048BC00F8B5EFF3058353B14049414840F2A442A7
:1048CC0001F016F840F2A4413C4801F0DDF83D4DF2
:1048DC003D4EAB68B34267D04FF02003EFF3118726
:1048EC0083F31188BFF36F8F384800F033FB40B966
:1048FC0037493348812200F0FBFF8121344801F015
:10490C00C3F8324800F042FBA96832484B7B03F0F5
:10491C007F034B73FFF73EFBAC68637BB44263F0E1
:10492C007F0363730AD12549254840F2A93200F070
:10493C00DFFF40F2A931214801F0A6F8AB6A254807
:10494C00E96A834208BF0023002B38BF002333B32E
:10495C0094F90E6093F90E2096421CD0921B002AFB
:10496C0019DD5A68C4E9003214605C600120FFF75D
:10497C004DFB164800F0FCFA40B915491048C3220B
:10498C0000F0B6FFC321124801F07EF83846BDE8AE
:10499C00F840FDF79DBA8B4201D01B68D7E7C4E9FC
:1049AC0000010C60EC62E1E74FF02003EFF31180A3
:1049BC0083F31188BFF36F8FE9E700BF1772000014
:1049CC007B64000068080020700100209C08002017
:1049DC00B5640000900800202DE9F04106460F4612
:1049EC00EFF3058353B13549354840F2C34200F02B
:1049FC007FFF40F2C341314801F046F856EA070305
:104A0C0004D1FFF755FF0020BDE8F08101F066FAF4
:104A1C0084194FF02003EFF3118883F31188BFF34F
:104A2C006F8F284800F096FA40B927492448812214
:104A3C0000F05EFF8121244801F026F8234D214827
:104A4C0000F0A4FAA868224B1860FFF70DFBA868C9
:104A5C0032463B4618301F4900F016FBAA6819482D
:104A6C00537B43F01003537300F082FA40B916499C
:104A7C001348C32200F03CFFC321134801F004F893
:104A8C004046FDF725FAAB685B7BDB060AD50B4984
:104A9C000B4840F2E14200F02BFF40F2E1410748A5
:104AAC0000F0F2FF01F01AFA201A64EB040100285E
:104ABC0071F10003B8BF0020A6E700BF1772000019
:104ACC007B6400009C080020B5640000680800208E
:104ADC00980800208546000038B504460D46EFF3D3
:104AEC00058353B1114912484FF49E6200F000FF48
:104AFC004FF49E610D4800F0C7FF6B1C08BFB4F16A
:104B0C00FF3F06D10B4B9868FFF77EFB4FF0FF3051
:104B1C0038BD20462946FFF75FFF4FF47A7380FBC0
:104B2C000334D80B40EA4440F2E700BF1772000090
:104B3C007B64000068080020014B9868704700BF38
:104B4C00680800202DE9F04104464FF02003EFF3F4
:104B5C00118683F31188BFF36F8F3E4800F0FAF98A
:104B6C0040B93D493D48812200F0C2FE81213A48BE
:104B7C0000F08AFF374800F009FA637B1A0712D558
:104B8C00344800F0F5F940B933493448AC2200F010
:104B9C00AFFEAC21304800F077FF86F31188BFF3ED
:104BAC006F8FBDE8F08123F0200242F00801D2099A
:104BBC0038D16173A36813B12046FFF709FA04F1E9
:104BCC00180000F021FB4FF0000804F15807A56D08
:104BDC00BD4200D085BB0120FFF718FA204B9B6823
:104BEC00A342CDD1EFF30583002BC9D1194800F0B6
:104BFC00BFF940B918491948C32200F079FEC32106
:104C0C00154800F041FF3046FDF762F940F2F352CF
:104C1C001449124800F06CFE40F2F351114800F0B8
:104C2C0033FFADE703F05F0343F0080321460E4862
:104C3C006373FFF7AFF9BDE72846FFF7C9F905F134
:104C4C00180000F0E1FA2846C5F87880FFF74CFC14
:104C5C00BDE700BF9C080020B56400007B64000029
:104C6C0068080020177200009008002038B5044630
:104C7C004FF02003EFF3118583F31188BFF36F8F8F
:104C8C00124800F067F940B911491248812200F02E
:104C9C002FFE81210E4800F0F7FE0C4800F076F94B
:104CAC002046FFF7BBFD48B100228267FFF76CFC82
:104CBC002946BDE838400548FFF7E2B8D4E902328E
:104CCC009A4218BF0133A360F2E700BFA808002086
:104CDC00B56400007B640000F7B5044616461F4619
:104CEC00EFF305835BB156EA070308D02B492C4838
:104CFC008C2200F0FDFD8C21284800F0C5FE4FF001
:104D0C002003EFF3118583F31188BFF36F8F2548D0
:104D1C0000F020F940B924492148812200F0E8FD37
:104D2C008121214800F0B0FE1E4800F02FF9A36845
:104D3C00ABB1013B1B48A36000F01AF940B91A490A
:104D4C001748AC2200F0D4FDAC21174800F09CFEB3
:104D5C0085F31188BFF36F8F002003B0F0BD56EAC6
:104D6C00070313D10F4800F003F940B90E490C4862
:104D7C00AC2200F0BDFDAC210B4800F085FE85F3A4
:104D8C001188BFF36F8F6FF00F00E6E722462946BC
:104D9C00CDE900670348FFF711FADEE7397200002E
:104DAC007B640000A8080020B56400002DE9F043E6
:104DBC0085B0DDF83C900446B9F10F0F0F4615464F
:104DCC0098462ED11F4B98452FD104F15803C4E9B6
:104DDC001633109B00262373042363730E9BE81D6C
:104DEC0002930D9B20F0070001930C9B3D18C4E926
:104DFC00197000932A46434639462046C4E9066694
:104E0C00A66084F80E90E673E666FDF7FBF80E4B91
:104E1C0066659B6803B11B6F2846236705B0BDE828
:104E2C00F08309F110031E2BCFD94FF407720749F9
:104E3C00074800F05DFD4FF40771044800F024FEB4
:104E4C00C3E700BF853700006808002059720000D6
:104E5C007B6400002DE9F047394F3A4D3E46DFF8B0
:104E6C00EC8086B0BD420AD94146374840F2EB226D
:104E7C0000F03EFD40F2EB21404600F005FEB5424D
:104E8C0005F130041DD3FFF731F840F2E7384FF04D
:104E9C0000092C4C2D4DDFF8B0A0B4420AD929469C
:104EAC00504640F20A3200F023FD40F20A31284607
:104EBC0000F0EAFDB44221D306B0BDE8F047FFF79D
:104ECC00FBB954F8043C059354F8103C049354F883
:104EDC00143C039354F8183C029354F81C3C019373
:104EEC0054F8203C009354E90A2354E90C01FFF7D1
:104EFC005DFF54F8303C5D652546B3E7636A5A1C88
:104F0C000FD04FF400424046494623EAE373C2FBFC
:104F1C000301494508BF4045276804D13846FFF7CF
:104F2C0069FB3034B9E74FF47A720023FBF780F950
:104F3C0002460B4607F11800054900F0A5F8F0E70A
:104F4C0020010020200100207B6400005972000029
:104F5C0085460000006838B1044B00F003001B7D4F
:104F6C00C01A18BF01207047012070476808002044
:104F7C00054903468A68087D19680243002091425E
:104F8C0004BF18600120704768080020024A117D98
:104F9C0093680B430360704768080020024A03497A
:104FAC00034800F0A5BC00BFD76500007C72000070
:104FBC009C72000008B50648064A0749121A00F010
:104FCC0062FEBDE80840054A0549064800F05BBE94
:104FDC000000002070010020EC72000000000000B6
:104FEC00EC72000000000020034B1B680BB9FCF7AF
:104FFC0001BD0020704700BFAC08002030B503682D
:10500C0068B10A4A5268904209D043B1D3E90421ED
:10501C00D0E90445121945EB0101C3E904214268AA
:10502C0013605A600023C0E9003330BD58000020E3
:10503C0038B5134B1C689C4208BF0024FFF7D4FF03
:10504C000546BCB1D4E90401401B61EBE5710128B4
:10505C0071F1000311DB6FF000420023824273EB0D
:10506C00010400DA1046074B1B6913B19842A8BF24
:10507C00184638BD6FF00040F5E70020F3E700BF9D
:10508C0058000020680800202DE9F04FB3F1FF3FD5
:10509C0085B008BFB2F1FF3F044692469B46039190
:1050AC0000F09780561C6FF0010543F100074FF09C
:1050BC00FF33B5EB060863EB0709B8F1000F79F184
:1050CC00000314DBFFF790FF4FF0FF334749D1E9A2
:1050DC000021AD1A63EB0103B5EB0A0263EB0B0382
:1050EC0000920193DDE90067361A67EBE0772368DD
:1050FC0043B13F493F48632200F0FAFB63213C482F
:10510C0000F0C2FC039B012EA36077F10003BCBF2F
:10511C00012600274FF02003EFF3118583F311884C
:10512C00BFF36F8F3448FFF715FF40B9334931484F
:10513C00812200F0DDFB8121304800F0A5FC2E48D7
:10514C00FFF724FFFFF750FF2D4A3618136847EB83
:10515C00E0779342C4E9046702D0D2F804C02BB9BB
:10516C005368C4E900231C60546012E0D3E904893D
:10517C00D4E90467464577EB09012DDAB8EB060054
:10518C0069EB0701C3E904015968C4E900310C60FB
:10519C005C60136893420BD09C4209D1FFF748FF27
:1051AC0018B1184B1B69834202D00021FCF7F0FBAD
:1051BC001148FFF7DDFE40B910490E48AC2200F053
:1051CC0097FBAC210D4800F05FFC85F31188BFF311
:1051DC006F8F05B0BDE8F08FB6EB080067EB0901E7
:1051EC006345C4E90401BBD01B68B8E7700200201A
:1051FC00C37200007B640000B0080020B56400009E
:10520C00580000206808002038B504464FF02003F1
:10521C00EFF3118583F31188BFF36F8F1548FFF7F8
:10522C0099FE40B914491548812200F061FB812197
:10523C00114800F029FC0F48FFF7A8FE2368B3B112
:10524C002046FFF7DBFE00240A48FFF791FE40B929
:10525C0009490A48AC2200F04BFBAC21064800F08F
:10526C0013FC85F31188BFF36F8F204638BD6FF0A8
:10527C001504E9E7B0080020B56400007B64000069
:10528C0038B54FF02003EFF3118583F31188BFF38A
:10529C006F8F1348FFF75EFE40B912491248812206
:1052AC0000F026FB81210F4800F0EEFB0C48FFF7C5
:1052BC006DFEFFF7BDFE04460948FFF759FE40B9E5
:1052CC0008490948AC2200F013FBAC21054800F05A
:1052DC00DBFB85F31188BFF36F8F204638BD00BF11
:1052EC00B0080020B56400007B64000070B5044673
:1052FC000D464FF02003EFF3118683F31188BFF3B3
:10530C006F8F1648FFF726FE40B9154915488122C4
:10531C0000F0EEFA8121124800F0B6FB0F48FFF7BF
:10532C0035FEFFF785FE012805DDA04203DB29468B
:10533C002046FCF72DFB0948FFF71AFE40B9084937
:10534C000848AC2200F0D4FAAC21054800F09CFBD4
:10535C0086F31188BFF36F8F70BD00BFB0080020BB
:10536C00B56400007B6400002DE9F04F85B0044665
:10537C00FFF754F84FF02003EFF3118983F31188F2
:10538C00BFF36F8F4C48FFF7E5FD40B94B494C48D4
:10539C00812200F0ADFA8121484800F075FB494F9D
:1053AC00494EBB464448DFF824A1FFF7EFFD3460BB
:1053BC00D6F800C0DAF800806246D7E90034D04550
:1053CC00CDE902344FEAE273CDE9002311D0B8F1F4
:1053DC00000F0ED0D8E90412DDE900348B4274EBD7
:1053EC0002032ADA009BC81A019B62EB0301C8E98D
:1053FC0004010024009B029A03999A18019B3460C3
:10540C0041EB0303CBE90023FFF712FE2146FCF727
:10541C00BFFA2948FFF7ACFD40B928492848AC220F
:10542C0000F066FAAC21254800F02EFB89F31188B8
:10543C00BFF36F8F05B0BDE8F08F0022DDE90245A8
:10544C0000236418ACEB010045EBE1753060C8E952
:10545C0004234046C7E90045FFF7D0FD1648FFF787
:10546C0087FD40B915491648AC2200F041FAAC2131
:10547C00124800F009FB89F31188BFF36F8F404687
:10548C00D8F8083098474FF02003EFF3118983F3D5
:10549C001188BFF36F8F0848FFF75CFD40B90749CF
:1054AC000748812200F024FA8121044800F0ECFA2C
:1054BC000148FFF76BFD7BE7B0080020B5640000E6
:1054CC007B64000070020020AC0800205800002013
:1054DC0070B54FF02003EFF3118683F31188BFF3FF
:1054EC006F8F1648FFF736FD40B9154915488122D4
:1054FC0000F0FEF98121124800F0C6FA0F48FFF7C0
:10550C0045FDFCF777FA104BD3E9004524180B48FE
:10551C0045F10005FFF72CFD40B909490948AC22BB
:10552C0000F0E6F9AC21064800F0AEFA86F31188DB
:10553C00BFF36F8F2046294670BD00BFB008002016
:10554C00B56400007B6400007002002010B50A4CAA
:10555C0023681BB101230020236010BD00F0AEF8BE
:10556C000028F7D00138062803D8044B53F8200044
:10557C0010BD034810BD00BFB4080020D06300006C
:10558C00FE8FFFFFBFF34F8F0549064BCA6802F42D
:10559C00E0621343CB60BFF34F8F00BFFDE700BF4A
:1055AC0000ED00E00400FA054FF0FE33002130B4AA
:1055BC00064A074D074C2B6013602360064A074CC4
:1055CC00EB606368C2F8001530BC184704148450B3
:1055DC000014845008148450000084506000002093
:1055EC00024BD0E90012C3E90012704760000020A2
:1055FC0048B143682BB1BFF35F8F0023036018469B
:10560C007047024870476FF4E0407047EA8FFFFF25
:10561C0010B5044628B1636813B10023236063609E
:10562C0010BD024B02485B689847F4E7600000200D
:10563C00EC63000010B5044630B1002263682260B0
:10564C0043F00103636010BD0148FFF7ADFFF4E7C1
:10565C001464000080B1436863B10122D0E8EF3FCD
:10566C00C0E8E12F0029F9D1012BF7D0BFF35F8FF0
:10567C0000207047024870476FF4E040704700BF4D
:10568C00EA8FFFFF70B40B4B0668C268D0E9015477
:10569C00C3E90242C3E90065D1E903020E68064B77
:1056AC00D1E90154C3E90065C3E902401A6170BC39
:1056BC00704700BF700000208000002010B500F083
:1056CC0033F820B1032400F067F8204610BD00F039
:1056DC0035F890B900F0B0F890B90F4B1B681B0E61
:1056EC00F02B08D10D4A0E4B12689A420AD00724AF
:1056FC0000F01CF8E7E70624FAE70424204610BD66
:10570C000024F5E7012000F097F804460028F7D1B3
:10571C00044B1860D9E700BF28198450241A845010
:10572C000000E0200C1A84500020704700207047C5
:10573C00014B1860704700BF041A845010B5114813
:10574C0000F048F800B110BD0F4800F043F80028F5
:10575C00F9D10E4C204600F03DF80028F3D10C4B4B
:10576C000C481C6000F036F801460028EBD100F024
:10577C002DF8044608B1204610BD00F03FF8204635
:10578C00FAE700BFB8000020AC000020B4000020F5
:10579C00BC000020B000002008B5084800F024F838
:1057AC00074800F021F8074800F01EF8064800F002
:1057BC001BF8BDE8084000F00BB800BFB800002093
:1057CC00AC000020B4000020B00000200020704786
:1057DC00704700BF08B5034B02681B6810689847F8
:1057EC00002008BD7000002008B5034B02685B6800
:1057FC0010689847002008BD7000002070B5094C57
:10580C00094D2069AB68984718B1084B08485B688C
:10581C0098470021074AEB6811602069BDE8704089
:10582C00184700BF8000002070000020600000209E
:10583C0038640000C808002070B51A4D1A4E044692
:10584C00B26828699047F0B95CB1184C2368ABB1C9
:10585C00012B1AD0013B23602869F368984700207C
:10586C0070BD124C216839B90120114B114AC3F893
:10587C0000051368002BFCD101312160F368286905
:10588C009847002070BD0C4870BD0A4A1368002B65
:10589C00FCD1074A6FF07E40C2F80035FFF748FF95
:1058AC002368D7E78000002070000020C808002083
:1058BC000000845010198450E98FFFFF08B5FCF7E5
:1058CC00B7F9BDE80840FCF753B9034658B1426834
:1058DC0002F00302012A03D0032A04D1026812B198
:1058EC000020986070476FF01500704700207047DB
:1058FC000FB407B504A951F8040B0191FAF758FE3F
:10590C0003B05DF804EB04B07047838B13F007030E
:10591C0005D10368002B0CBF002003207047022B1D
:10592C0005D1C38B002B14BF002004207047012B22
:10593C0005D10368002B0CBF002005207047002008
:10594C0070472DE9F0410D4607461946281D904633
:10595C001E46FAF701FE044638B133464246294644
:10596C003846A446BDE8F0416047BDE8F08110B56B
:10597C000C4640B139B1081DFFF7A7FF28B9A36841
:10598C0033F0030301D06FF0150010BD38B50C4691
:10599C00054658B151B10B6843B14B6833B1202265
:1059AC00002100F09BF900202C6138BD6FF0150030
:1059BC00FBE7044608B5084611461A46A047FFF710
:1059CC00BBF8FCF7DFFE2DE9F74F9946D378144668
:1059DC006F2BA3F1410206460F4601922DD028D819
:1059EC00582B14BF0A251025AA464FF0000BDDF8E2
:1059FC00308052465B4630463946FAF719FC092A84
:105A0C00D3B21FD830335F45DBB208BF564508F818
:105A1C00013D01D3C84512D823789B0605D5082D26
:105A2C0016D1A37843F00803A370404603B0BDE839
:105A3C00F08F03F0F703702BD3E70825D4E7064665
:105A4C000F46D6E7019A192A94BF37335733DAE752
:105A5C00102DEAD1A37843F01003E5E72DE9F041CE
:105A6C000746884615461E461446B442A4EB05006C
:105A7C0002D33EB923782BB1414614F8010BB84739
:105A8C000028F2DABDE8F081404080F311884FF035
:105A9C00040002DF70477047FDF79EBB82B002AB7B
:105AAC0003E90300002383F31188BFF36F8F02B067
:105ABC0070470FB407B504A951F8040B0191FAF71C
:105ACC0077FD03B05DF804EB04B070470022028050
